:020000040800F2
:10000000803B0020054500083D4400083F440008AF
:100010004144000843440008454400080000000033
:10002000000000000000000000000000474400083D
:100030004944000800000000354500084B44000812
:10004000394500083D450008414500084545000880
:10005000494500084D450008514500085545000830
:10006000594500085D4500086145000865450008E0
:10007000694500086D450008714500087545000890
:10008000794500087D450008814500088545000840
:10009000894500088D4500089145000895450008F0
:1000A000994500089D450008A1450008A5450008A0
:1000B000A9450008AD450008B1450008B545000850
:1000C000B9450008BD450008C1450008C545000800
:1000D000C9450008CD450008D1450008D5450008B0
:1000E000D9450008DD450008E1450008E545000860
:1000F000E9450008ED450008F1450008F545000810
:10010000F9450008FD4500080146000805460008BD
:10011000094600080D46000811460008154600086B
:10012000194600081D46000821460008254600081B
:10013000294600082D4600083146000835460008CB
:10014000394600083D460008414600084D44000875
:1001500045460008494600084D460008514600083B
:1001600055460008594600085D46000861460008EB
:1001700065460008694600086D460008714600089B
:10018000754600087946000800215FF0FF32C36819
:100190005A607FF08042C3685A6151F0004151F4C7
:1001A0000061C068816170477CB5040000250026AD
:1001B00000200090032000F03EFDE0680069009000
:1001C000761CBB48864204D20098C00F0028F1D0AC
:1001D00001E0002017E00020009951F0010100919A
:1001E0000099E2681161E16809690091401CB04919
:1001F000884203D20099C907F5D4FFE7032000F035
:100200001AFD2800C0B276BD30B4050000200024DD
:100210000024EC78002C11D19BB2DB1C042493FB4E
:10022000F4F3D2B205EB8202D2F8D040002203E010
:100230000D682560091D521C9A42F9D3C0B230BC2A
:10024000704710B4002392B2D21C042392FBF3F245
:10025000D0F8D030002003E01C680C60091D401C61
:100260009042F9D3080010BC704730B4002300223C
:100270000024C47001248470402484800C00E4B203
:10028000012C0DD15FF0A0430121C1720821017042
:10029000042141704FF4A071C180022101720CE071
:1002A000C9B2002909D1834B0021C1720C21017010
:1002B000062141704FF4A061C180C36013F5006155
:1002C000016100210EE013EB411414F5106400EB02
:1002D0008105AC6113EB411414F5306400EB81052A
:1002E0006C65491C4478A142EDD313F580614161EE
:1002F00013F58861C0F8CC10002108E013EB41141D
:1003000014F5A06400EB8105C5F89040491C047801
:10031000A142F3D300210AE04FF4805404FB0134DE
:1003200014F5805400EB8105C5F8D040491C0478D1
:10033000A142F1D313F56063C0F80C311000C0B2D4
:1003400030BC704770B50400002500200020002656
:10035000207A012825D1E068816B31F48031607A00
:10036000002801D051F48011E06881630020E0682A
:10037000C06830F0400030F4800030F4003030F4D9
:100380000020E168C8602000FFF70EFFE078012838
:1003900021D1052060F3440656F02006E06886600F
:1003A00019E0E068C06850F04000E168C8602000D3
:1003B000FFF7FAFE002151F4803151F4802151F40D
:1003C0000021607A002801D051F48011E068816337
:1003D000142000F037FCE078012808D1E06880683C
:1003E000052161F3440050F02000E1688860280096
:1003F000C0B270BD01000020002252F00102CB68A3
:100400009B681A43C9688A60C0B270470100002027
:10041000002252F00102CB689B6833EA0202C968ED
:100420008A60C0B270471CB502000024002300207F
:100430000090009850F020000090009861F38A101E
:1004400000900098D1680861D068006900905B1C3A
:100450001748834205D20098C0F340100028F3D11A
:10046000FFE7032000F0E7FB2000C0B216BD1CB57B
:1004700001000024002200200090009850F010009D
:1004800000900098CB681861C86800690090521C01
:100490000748824205D20098C0F300100028F3D12B
:1004A000FFE7032000F0C7FB2000C0B216BD00002C
:1004B000410D03000000044010B50024C268D2685A
:1004C00032F0005232F080420B00DBB2012B02D13D
:1004D00052F0005204E0C9B2002901D152F080422A
:1004E000C068C260322000F0ADFB2000C0B210BD79
:1004F000C068406910F00100704780B5FFF7F8FF51
:10050000012801D0012000E00020C0B202BD01009E
:100510000020C8684069C968896908407047026955
:10052000126861F30102006902607047F8B50400C7
:100530000025002000200026002700200020D4F8FD
:100540000C1108602069006830F4C050216908600F
:10055000E07A01282AD103212000FFF7E0FF802064
:10056000E1684862202060F31F46802060F30F0698
:10057000E068866216EB164666F30F07802060F38C
:100580001F47E068C0F8047117EB174060F30F07CE
:10059000202060F31F47E068C0F8087117EB174090
:1005A00060F30F07BFB2E068C0F80C7110212000A3
:1005B000FFF739FF2000FFF75AFF0020216908618B
:1005C0000020216948615FF0FF30216988610020C7
:1005D0002169C86100211CE000200BE004EB8100D0
:1005E00080690068C00F0028F6D0002050F08040DD
:1005F00050F0006004EB81029269106004EB81000E
:1006000080690022026104EB81008069FF22826020
:10061000491C60788142E1D300211CE000200BE0FE
:1006200004EB8100406D0068C00F0028F6D0002068
:1006300050F0804050F0006004EB8102526D106079
:1006400004EB8100406D0022026104EB8100406DEB
:10065000FF228260491C60788142E1D3002050F47F
:100660008070216909698143084321690861E07844
:1006700001280ED1002050F0010050F0020040216E
:1006800061F38A0050F48030402161F359402169C0
:100690000863200000F003F82800C0B2F2BD70B576
:1006A0000400002500260020E16888617FF080407A
:1006B000E16848612000FFF767FDE078002801D17C
:1006C00056F0100656F4006656F4805656F400565E
:1006D00056F4802656F4002656F0080656F4801686
:1006E00056F4001656F0804656F00406E06880691D
:1006F000B0430643E06886612800C0B270BD0021A7
:1007000000698068400810F00300002805D0022826
:1007100007D004D3032802D005E0032004E0022020
:1007200002E0012000E00220C0B2704710B40100D6
:10073000002000230A6994688A691268640814F02A
:100740000304002C04D0022C05D001D3032C06D1C5
:10075000D20AD20205E0032464F30A0201E0D20ABD
:10076000D2028C69226053F480730A6952689A43FA
:10077000134309694B60C0B210BC704770B40022CB
:10078000002300244B78012B0AD10B7800EB830364
:100790009E69012591F900309D4065F30F0409E041
:1007A0000B7800EB83035E6D012591F900309D40CD
:1007B000C4EA05443568C5F3C033002B0DD18B68FE
:1007C00063F30A05CB7863F39345C98861F39955C0
:1007D00055F0805555F4004535600169C9690C43F1
:1007E0000069C4611000C0B270BC704700224B7831
:1007F000012B14D10B7800EB83039B691B68DB0F83
:10080000002B05D0002353F0804353F0006300E039
:100810000023097800EB81008069036013E00B7806
:1008200000EB83035B6D1B68DB0F002B05D00023FF
:1008300053F0804353F0006300E00023097800EB9D
:100840008100406D03601000C0B2704770B5002495
:100850000022002200224A78012A62D10A7800EBA5
:100860008202926913680A7800EB82029269156924
:100870004A69002A05D1ED0CED04012262F3DC4542
:1008800011E04A6962F312054E698A689619761E6C
:100890008A68B6FBF2F262F3DC45CA78012A02D11B
:1008A000012262F35E750A7800EB8202926915619B
:1008B000C278012A06D10A7800EB820292690D699A
:1008C00055610FE0CA78012A0CD04A69002A09D084
:1008D000012591F9002015FA02F205696D6B2A4392
:1008E00005696A63CA78012A08D102699268D2054B
:1008F00002D453F0005301E053F0805353F080636F
:1009000053F000430A7800EB820292691360CA78C0
:10091000012A4ED14B699BB20A78C968FFF774FC73
:1009200047E00A7800EB8202526D13680A7800EB08
:100930008202526D15694A69002A06D18A6862F3FB
:100940001205012262F3DC4511E04E698A689619AE
:10095000761E8A68B6FBF2F262F3DC45C5F3C9463F
:100960008A68564366F312056A03520B4A610A7895
:1009700000EB8202526D1561C278012A05D10A7816
:1009800000EB8202526D0D695561CA78012A07D1C8
:100990004A79002A02D053F0005301E053F080530B
:1009A00053F0806353F00043097800EB8100406D01
:1009B00003602000C0B270BDF0B400220024002308
:1009C00000234B78012B3AD185692E682F694B693A
:1009D000002B04D1FF09FF0157F400270FE08B68BB
:1009E000D1F814C0634505D28B684B618B6863F303
:1009F000060702E04B6963F3060757F400272F61EF
:100A0000C378012B05D10B7800EB83039B690F6939
:100A10005F6156F0806656F000462E60C378002B6A
:100A20003ED14B69002B3BD0012391F900108B4044
:100A30001C430169496B0C430069446330E00B7847
:100A400000EB83035B6D1C680B7800EB83035B6D2D
:100A50001D694B69002B05D18B6863F3060555F4BE
:100A6000002506E08B684B618B6863F3060555F43F
:100A700000250B7800EB83035B6D1D61C378012BB0
:100A800005D10B7800EB83035B6D0D695D6154F05C
:100A9000806454F00044097800EB8100406D0460EC
:100AA0001000C0B2F0BC70470200002000234B7859
:100AB000012B0ED1097802EB81018B691A681100B4
:100AC000C90F002901D052F0804252F400121A607E
:100AD00007E0097802EB81014A6D116851F40011B9
:100AE0001160C0B2704710B40200002000234B78A0
:100AF000012B04D10B7802EB8302936903E00B789E
:100B000002EB8302536D1A6832F40012CC78032C86
:100B100002D0C978022901D152F080521A60C0B2C5
:100B200010BC70470100086980690969C9690840FB
:100B3000000C70470200C9B202EB8100406D806872
:100B400011694969084070470100086980690969AD
:100B5000C969084080B27047002151F0C04151F48A
:100B60000021182262F30601426D1161C17801294A
:100B70000CD1002100F2CC51426D5161416D0968E8
:100B800051F000415FF08021406D016070470EE040
:100B900002684368024408305FEAC37C44BF4B44A8
:100BA0005B1E52F804CB43F804CB091FF9D150F86F
:100BB000041B0029ECD17047E0B50121012000F0B1
:100BC000D6F80121802000F0E6F84FF4C0500090E4
:100BD00003208DF8050002208DF8040000208DF818
:100BE000060000208DF807006946074800F01AF952
:100BF0000A220B21044800F075F90A220C21024850
:100C000000F070F907BD00000000024080B54FF40D
:100C1000C06000F091F943208DF8000001208DF8AC
:100C2000010003208DF8020001208DF803006846C2
:100C300000F087F901BD37214843FFE7401E002837
:100C4000FCD1704780B54FF47A714843FFF7F3FF4A
:100C500001BD7047704770477047704770477047D5
:100C60000021DFF8A02111700021DFF89821117018
:100C7000C0B2012802D0042805D009E00120DFF825
:100C80008411087004E00520DFF878110870FFE790
:100C90007047002100210021022100210221DFF8FC
:100CA0005C11096811F00C01002904D0042906D058
:100CB000082908D033E0DFF85011016032E0DFF896
:100CC0004C1101602EE0DFF838110968C1F3805142
:100CD000DFF82C21126812F03F0200290AD0DFF859
:100CE0002C11B1FBF2F2DFF818110968C1F3881179
:100CF0004A4309E0DFF81011B1FBF2F2DFF800110E
:100D00000968C1F388114A43DFF8F4100968C1F398
:100D10000141491C4900B2FBF1F1016002E0DFF83A
:100D2000E8100160DFF8D410096811F0F00109093A
:100D3000DFF8DC20515C0268CA404260DFF8BC107A
:100D4000096811F4E051890ADFF8C420515C426857
:100D5000CA408260DFF8A410096811F46041490BB1
:100D6000DFF8AC20515C4268CA40C2607047C9B22B
:100D7000002907D0DFF89C1009680843DFF89410B9
:100D8000086007E0DFF88C10096831EA0000DFF83E
:100D9000841008607047C9B2002907D0DFF87810C6
:100DA00009680843DFF87010086005E01A4909680F
:100DB00031EA0000184908607047C9B2002905D01F
:100DC0001649096808431549086005E01349096890
:100DD00031EA0000114908607047C9B2002905D006
:100DE0000F49096808430E49086005E00C49096885
:100DF00031EA00000A4908607047000008380240E4
:100E000004380240703802400024F40000127A00D6
:100E1000600100203038024034380240403802403F
:100E20004438024030B4002200220022002347E070
:100E300001229A400C681440944240D10468032572
:100E40001A00D2B252009540AC43046004680D7998
:100E50001A00D2B2520095402C4304600A79012A4C
:100E600002D00A79022A1AD1846803251A00D2B264
:100E700052009540AC43846084684D791A00D2B228
:100E8000520095402C438460426801249C40A24358
:100E9000426042688C799C40A4B222434260C4689C
:100EA00003251A00D2B252009540AC43C460C46816
:100EB000CD791A00D2B2520095402C43C4605B1C1D
:100EC000102BB5D330BC70470022006989B20842AC
:100ED00001D0012000E00020C0B2704701837047BC
:100EE0004183704770B400230023D2B211F007038E
:100EF000DBB29B009A400B009BB2DB1000EB83043B
:100F00000B009BB2DB1000EB83031D6A0F2611F070
:100F10000703DBB29B009E40B54325620B009BB2EA
:100F2000DB1000EB83031B6A1A4389B2C91000EB84
:100F30008100026270BC7047224908432249086060
:100F40007047002100210F23C17800291FD01E49BE
:100F5000096811F4E061D1F5E061090AD1F10402F8
:100F6000DBB20B41417811FA02F281780B401A434F
:100F7000120116490378CA540121027812F01F02A7
:100F80009140134A0078401142F8201009E00121F5
:100F9000027812F01F0291400E4A0078401142F888
:100FA00020107047042806D10B48006850F0040058
:100FB0000949086005E00848006830F00400064967
:100FC000086070470000FA050CED00E000E400E066
:100FD00000E100E080E100E010E000E070B5050015
:100FE00000262800FFF789FA002870D02800FFF7B4
:100FF0008EFA0400002C01D1002069E0C4F3C04047
:10100000002803D0280000F05AF90643C4F38040BA
:10101000002803D0280000F0E2F80643C4F34000A3
:10102000002804D0002050F00200E9684861200048
:10103000C00F002803D0280000F06CF80643C4F36A
:10104000C020002803D0280000F089F80643C4F32C
:10105000C000002803D0280000F097F90643C4F32D
:101060000010002803D0280000F09EF90643C4F3C6
:101070000030002803D0280000F03EFA0643C4F3F5
:101080004030002803D0280000F08BFA0643C4F358
:101090000050002803D0280000F003FB0643C4F3EF
:1010A0004050002803D0280000F009FB0643C4F399
:1010B0008070002803D0280000F00BF80643C4F32A
:1010C0008000002803D0280000F012F8064330000A
:1010D00070BD10B504002000DFF800160968496AE9
:1010E0008847002050F08040E1684861012010BD31
:1010F00038B50400E0684568C5F38000002805D0D5
:101100002000DFF8D8150968896A8847E0684560DB
:10111000012032BD10B50400A07A002809D0D4F80F
:101120000C01006830F0020040084000D4F80C11B7
:101130000860002050F001002169496831EA000090
:10114000216948602000DFF894150968896988479B
:10115000002050F00040E1684861012010BD1CB53E
:10116000040000208DF8000094F812018DF80000B2
:101170002000DFF868150968496988472069816897
:10118000002050F40060E2685061A07A002824D06A
:10119000C80722D594F8150101281ED19DF800003A
:1011A00003281AD1002050F00100D4F80C1109686E
:1011B0000143D4F80C21116050F00200D4F80C1156
:1011C00009680843D4F80C110860DFF814050068BA
:1011D00050F00600DFF808150860012016BDF8B5CC
:1011E0000600002400203000FFF7AEFC050062E09E
:1011F000E8075ED52100C9B2300000F099FA070077
:10120000F80722D50120A0403169496B31EA00007E
:1012100031694863002757F0010706EB84008069B5
:1012200087602100C9B23000DFF8B024126852682C
:101230009047F078012808D1002C06D196F81101CA
:10124000042802D13000FFF787FCC7F3C000002854
:1012500006D0002757F0080706EB840080698760F6
:10126000C7F30010002806D0002757F0100706EB40
:10127000840080698760C7F38010002806D00027AB
:1012800057F0400706EB840080698760C7F3400091
:10129000002806D0002757F0020706EB840080697B
:1012A0008760C7F3C010002803D02100300000F091
:1012B000CCF8641C6D08002D9AD10120F2BDF8B560
:1012C0000600002400203000FFF72CFC050058E049
:1012D000E80754D52100C9B23000FFF72BFC070006
:1012E000F80730D5002757F0010706EB8400406D62
:1012F0008760F078012812D106EB8400406D006908
:10130000282101FB04F13144D1F87C134003400B48
:10131000081A282101FB04F13144C1F88C03210093
:10132000C9B23000DFF8B423126812689047F07831
:10133000012808D1002C06D196F81101052802D108
:101340003000FFF709FCC7F34000002806D0002753
:1013500057F0020706EB8400406D8760C7F3C000BA
:1013600000280CD03000DFF87413096889688847BA
:10137000002050F0080006EB8401496D8860641C71
:101380006D08002DA4D10120F2BD10B5040020008D
:10139000DFF848130968C9688847002050F0080042
:1013A000E1684861012010BDF8B50400002555F042
:1013B0001005E0688069A843E1688861E068066A12
:1013C00016F00F012820414304EB010010F55D7772
:1013D0003000400C10F00F00012808D0022807D080
:1013E00003281DD004281CD006281BD026E025E0A9
:1013F00030004004400D002811D03000C0F30A1224
:1014000092B2F9682000FEF71CFFF868C6F30A11D3
:101410000844F860B969C6F30A104118B9610DE0D3
:101420000CE00BE0082204F2CC512000FEF709FF8B
:10143000B969C6F30A104118B961FFE7E06880692D
:101440000543E06885610120F2BD2DE9F04104000B
:101450000D0000200020282000FB05F0204410F59E
:101460008E767069B769C71BB068B84200D2B7689A
:10147000FF1CBF0804EB8500806980692FE070695C
:10148000D6F81880B0EB0808B068404501D2D6F80D
:10149000088018F10307BF0843469BB22A00D2B266
:1014A000F1682000FEF7B0FEF0684044F060B069DB
:1014B00018EB0008C6F8188004EB85008069806985
:1014C0007169B26991420AD1012296F9001012FAAB
:1014D00001F12269526B32EA01012269516380B243
:1014E000874206D2B0697169884202D270690028C9
:1014F000C5D10120BDE8F081F8B504000021002528
:10150000002600270020002051F0010120694068DA
:1015100030EA01012069416000212000FEF783FFCD
:1015200000200AE004EB80018969FF228A6004EB55
:101530008001496DFF228A60401C61788842F1D3A6
:101540005FF0FF3021698861012060F30F05012001
:1015500060F31F452069C56156F0080656F0010684
:1015600056F002062069466157F0010757F0080758
:1015700057F00207206907612069006830F4FE60B7
:10158000216908602000FFF7E7FA002050F480503E
:10159000E1684861200051490968096988470120CC
:1015A000F2BD7FB504004F482000FFF7BFF8684642
:1015B000FFF76FFB019EE068C56835F47055E06881
:1015C000C5602000FFF79BF8032808D10020A07019
:1015D0004FF40070A080092060F38D2557E00120B2
:1015E000A0704020A080404880194049884203D222
:1015F0000E2060F38D254AE03D4880193D49884220
:1016000003D20D2060F38D2541E03B4880193B4912
:10161000884203D20C2060F38D2538E038488019C9
:101620003849884203D20B2060F38D252FE03648DD
:1016300080193649884203D20A2060F38D2526E0BE
:10164000334880193349884203D2092060F38D253D
:101650001DE0314880193149884203D2082060F3E7
:101660008D2514E02E4880192E49884203D2072088
:1016700060F38D250BE02C4886192C48864203D256
:10168000062060F38D2502E0052060F38D25E068DB
:10169000C560002050F40050E1684861012004B0AA
:1016A00070BD38B50400002520000C490968C969DF
:1016B000884755F48015E0684561012032BD38B592
:1016C00004000025200005490968096A884755F487
:1016D0000015E0684561012032BD00007401002062
:1016E00010ED00E0007A030A401E1BFF40420F008D
:1016F00000DC0BFFE0C810002013FBFE20D6130017
:10170000003DE7FE006A180000D3CEFE40771B00C4
:10171000C05BB3FEC091210000CA91FE40AC27001F
:10172000C01D6AFE40E13300803C36FEE09C410073
:101730000269126903695B6BCB40DB0113F0800324
:101740001A43C9B200EB810080698068104070477D
:1017500010B500244A78002A18D0012A1CD0032A88
:1017600017D0052A09D0062A04D0082A0BD0092A46
:1017700006D014E000F00FF913E000F093F910E048
:1017800000F0BCF90DE000F019FA0AE000F032FABE
:1017900007E000F04AFA04E000F09AFA01E000F0F5
:1017A000D3FA2000C0B210BD70B504000E000025B1
:1017B00094F81201032818D13079022810DA310088
:1017C0002000D4F8E42592689047F08800280BD1D7
:1017D0002800C0B2002807D1200000F036FB03E04B
:1017E0003100200000F0B0FA03E03100200000F0EA
:1017F000ABFA2800C0B270BD70B505000E00002421
:10180000B188307810F06000202808D1310028001D
:10181000D5F8E425926890472000C0B2BAE070780D
:10182000002868D0012834D0032840F0B18095F812
:101830001201022802D003280DD025E00800C0B212
:10184000002807D00800C0B2802803D0C9B2280001
:1018500000F003FC1CE0708800280BD10800C0B227
:10186000002807D00800C0B2802803D0C9B22800E1
:1018700000F0F3FB31002800D5F8E425926890478A
:10188000280000F0E2FA03E03100280000F05CFAE2
:101890007EE095F81201022802D003280DD025E041
:1018A0000800C0B2002807D00800C0B2802803D0CA
:1018B000C9B2280000F0D1FB1CE07088002814D1C8
:1018C0000800C0B200280DD00800C0B2802809D09E
:1018D000C9B2280000F0E4FB31002800D5F8E42567
:1018E00092689047280000F0B0FA03E03100280029
:1018F00000F02AFA4CE095F81201022802D00328E1
:101900000DD040E00800C0B2002807D00800C0B2E7
:10191000802803D0C9B2280000F09FFB37E0080000
:10192000C0B2000614D5C9B211F07F01282041438E
:1019300005EB010090F81E01002804D00120DFF81B
:101940007C13086018E00020DFF87013086013E0D3
:10195000080611D4C9B22820414305EB010090F8D4
:101960007603002804D00120DFF85013086003E05C
:101970000020DFF8481308600222DFF84013280037
:1019800000F021FA03E03100280000F0DDF9FFE764
:101990002000C0B270BD38B504000D00E888ADF875
:1019A0000000688880B2000AC0B2012808D002286E
:1019B00019D0032822D006285BD007285ED062E029
:1019C0006946A078D4F8EC2512689047BDF800105D
:1019D000002966D0E988002963D0BDF80010EA88A4
:1019E000914255D257E06946A078D4F8E425926A2E
:1019F000904702214170C4F8F005E7E7A878002875
:101A000008D0022814D00CD304281FD017D30528DF
:101A100023D029E06946A078D4F8EC255268904795
:101A2000D4E76946A078D4F8EC2592689047F7E7A8
:101A30006946A078D4F8EC25D2689047F0E769466B
:101A4000A078D4F8EC2512699047E9E76946A078B8
:101A5000D4F8EC2552699047E2E76946A078D4F8BB
:101A6000EC2592699047DBE72900200000F06CF933
:101A700017E02900200000F067F912E0290020009B
:101A800000F062F90DE02900200000F05DF908E0A7
:101A9000E988ADF80010BDF800200100200000F03A
:101AA00092F931BD38B505008888002822D1C88850
:101AB00000281FD18C7814F07F0495F812010328B8
:101AC00003D1280000F040F917E085F81441210007
:101AD000C9B2280000F007FB280000F0B6F9E4B214
:101AE000002C03D0022085F8120106E0012085F8C1
:101AF000120102E0280000F027F931BD10B5040002
:101B000048886F4A10706E480078022803DB200076
:101B100000F01AF951E094F81201022802D00328CB
:101B200018D047E06648007800280FD06448007855
:101B300084F81001032084F8120161480178200024
:101B400000F02DFC200000F080F902E0200000F001
:101B50007CF932E05A48007800280FD1022084F83E
:101B600012015748007884F8100155480178200088
:101B700000F023FC200000F068F91AE050480078DB
:101B800094F81011884211D094F81011200000F040
:101B900014FC4B48007884F8100149480178200073
:101BA00000F0FDFB200000F050F902E0200000F002
:101BB0004CF902E0200000F0C7F810BD80B5CA88DB
:101BC000012A02D000F0C0F813E090F81221022A96
:101BD00002D0032A05D00AE001223A4900F0F3F8C6
:101BE00007E0012210F5887100F0EDF801E000F047
:101BF000ABF801BD80B590F81221921E012A11D8D0
:101C00000121314A1160D0F81811002905D02E4960
:101C1000096851F002012C4A116002222A4900F0A1
:101C2000D2F801E000F090F801BD10B504000020EA
:101C3000488801280BD10120C4F818012000D4F8ED
:101C4000E42592689047200000F0FFF835E04888CE
:101C5000022832D18888C0B200282ED1206940687D
:101C6000898889B2090AC9B2012907D01AD3032980
:101C70000CD007D3052911D00CD313E0012161F357
:101C8000061012E0022161F306100EE0032161F359
:101C900006100AE0042161F3061006E0052161F355
:101CA000061002E0012161F30610084908600120D6
:101CB00084F81601200000F0C8F810BD581B002061
:101CC0007A1B00205C1B0020601B0020541B00209E
:101CD00010B5040094F81201801E01280ED848881F
:101CE00001280AD10020C4F818012000D4F8E42506
:101CF00092689047200000F0A8F802E0200000F071
:101D000023F810BD90F8CC250A7090F8CD254A70C4
:101D100090F8CE2590F8CF351B029A184A8090F89B
:101D2000D02590F8D1351B029A188A8090F8D225D8
:101D300090F8D3351B029A18CA80C988C0F84011A0
:101D4000012180F81111704710B504008021200096
:101D500000F083F90021200000F07FF92000FEF759
:101D6000FBFE10BDF8B504000D0017000026002C86
:101D70001ED0200000F01DF84000801C38803888FC
:101D80003100C9B26854761C03203100C9B26854CE
:101D9000761C0AE020783100C9B26854641C761CB5
:101DA00000203100C9B26854761C20780028F1D197
:101DB000F1BD0200002001E0401C521C11780029F6
:101DC000FAD1C0B2704710B5130000241A0092B2C5
:101DD000C0F83C211A0092B2C0F83821022280F8E3
:101DE00011219BB20A00002100F017F92000C0B2B7
:101DF00010BD10B5130000249BB20A00002100F0B2
:101E00000CF92000C0B210BD10B5130000241A0058
:101E100092B2C0F894231A0092B2C0F89023032221
:101E200080F811219BB20A00002100F0D2F82000B6
:101E3000C0B210BD10B5130000249BB20A000021EF
:101E400000F0C7F82000C0B210BD38B5040000256E
:101E5000042084F81101002300220021200000F05A
:101E6000DCF82000FEF778FE2800C0B232BD38B59D
:101E700004000025052084F8110100230022002120
:101E8000200000F0A6F82000FEF766FE2800C0B291
:101E900032BD10B50400C9B22000FEF7E6F90120FA
:101EA00084F81201002084F81401002012E0282197
:101EB00001FB00F1214411F58E7101224A70087076
:101EC000C8800022CA7040228A600022CA600022B4
:101ED0004A61401C61788842E9D3002012E0282141
:101EE00001FB00F1214411F55D7100224A70087078
:101EF000C8800022CA7040228A600022CA60002284
:101F00004A61401C61788842E9D32000FEF77EFADE
:101F10002000FEF717FA00212000FEF7CDFA20007E
:101F2000FEF704FB2000FEF765FA10BD38B50C067D
:101F30000AD50D00EDB215F07F052824654300EBAE
:101F4000050414F58E7409E00D00EDB215F07F055F
:101F50002824654300EB050414F55D7411F07F053A
:101F60002570C9B2C909617092B2A260E37061784C
:101F7000002901D02178E180DBB2022B01D10021C0
:101F800021712100FEF7FAFB002032BD80B50A0660
:101F90000AD50B00DBB213F07F032822534300EB7A
:101FA000030212F58E7209E00B00DBB213F07F031F
:101FB0002822534300EB030212F55D7211F07F03F8
:101FC0001370C9B2C90951701100FEF70FFC00204F
:101FD00002BD38B50C002500EDB215F07F052821B3
:101FE0004D4300EB050111F55D71CA609BB24B6179
:101FF00000238B6100234B7014F07F040C70C378B6
:10200000012B00D10A610A78002A02D1FEF7D4FC24
:1020100001E0FEF71BFC002032BD38B50C002500A6
:10202000EDB215F07F0528214D4300EB050111F5B8
:102030008E7101254D7014F07F040C70CA600A6126
:1020400000228A614B610A78002A02D1FEF7B4FCB3
:1020500001E0FEF7FBFB002032BD80B50A0011064F
:102060000AD51300DBB213F07F0328214B4300EBAA
:10207000030111F58E7107E01300DBB228214B43F9
:1020800000EB030111F55D7101238B7012F07F03EA
:102090000B70D2B2D2094A70FEF706FD002002BDD5
:1020A00080B50A0011060AD51300DBB213F07F03D6
:1020B00028214B4300EB030111F58E7107E013005B
:1020C000DBB228214B4300EB030111F55D710023C6
:1020D0008B7012F07F030B70D2B2D2094A70FEF7F8
:1020E00002FD002002BD002261F30A1201690968A5
:1020F0000A430069026070472DE9F04104000D00B9
:1021000016001F00DDF818802000FEF755FD2000A6
:1021100000F014F8C4F8E475C4F8E885C4F8EC6578
:102120002900C9B22000FFF7B4FED4F8E805006822
:1021300080472000FEF76AFDBDE8F081002070476F
:102140001CB5040069462000FFF7DCFD9DF8000087
:1021500010F01F00002803D002280BD005D30EE09A
:1021600069462000FFF7F4FA10E069462000FFF707
:102170001BFB0BE069462000FFF73EFB06E09DF8E5
:10218000001011F080012000FFF767FF002016BD4E
:1021900010B504000800C0B2002833D114F55D71F9
:1021A00094F8110103283CD18868CA69904217D27B
:1021B000CA698868121ACA61E078012803D1C86820
:1021C0008A681044C860C8698A68904201D2CA69A6
:1021D00000E08A6892B2C9682000FFF72BFE20E079
:1021E000D4F8E4050069002808D094F81201032807
:1021F00004D12000D4F8E415096988472000FFF7CE
:1022000024FE0EE0D4F8E4058069002809D094F893
:102210001201032805D1C9B22000D4F8E42592693F
:102220009047002010BD38B504000800C0B2002857
:102230005BD114F58E7594F8110102284AD1A86873
:10224000E969884217D2E969A868091AE961E07862
:10225000012803D1E868A9680844E860EA6992B2F5
:10226000E9682000FFF7C5FD0023002200212000BF
:10227000FFF7AFFE2EE0286AA968B0FBF1F201FB80
:102280001200002815D1286AA968884211D3286A4B
:10229000696A88420DD2002200212000FFF7A9FDC3
:1022A000002068620023002200212000FFF791FE39
:1022B00010E0D4F8E405C068002808D094F81201B2
:1022C000032804D12000D4F8E415C9688847200009
:1022D000FFF7CDFD94F81601012815D1200000F07C
:1022E00015F8002084F816010EE0D4F8E4054069E2
:1022F000002809D094F81201032805D1C9B22000A2
:10230000D4F8E42552699047002032BD024909689B
:102310000069416000207047541B002010B5040084
:102320000023402200212000FFF700FE002340226E
:1023300080212000FFF7FAFD012084F81201A07827
:10234000D4F8E81549688847002010BD10B504008E
:10235000D4F8E8050069804794F8130184F8120165
:10236000032084F81201002010BD80B590F81211EE
:1023700080F81311042180F81211D0F8E805C06824
:102380008047002002BD80B5D0F8E415C969002956
:1023900003D0D0F8E415C9698847002002BD10B504
:1023A0000400C9B22000D4F8E42512689047D4F89C
:1023B000E80580688047002010BD80B5C9B2D0F81C
:1023C000E42552689047002002BD80B5D0F8E4159E
:1023D000096A8847002002BD80B5D0F8E415496A33
:1023E0008847002002BD10B50400D4F8E805406914
:1023F0008047012084F81501002010BD10B50400AD
:10240000D4F8E8058069804700212000D4F8E4254D
:1024100052689047002084F81501002010BD00008C
:102420002DE9F04F93B08246029117461C98002286
:102430000FF2C4411D468DF82F0008920CAE129188
:10244000DFF88C830CE025280FD017F8011B0298C9
:10245000D0470028029000F0BA800898401C0890ED
:1024600038780028EFD10898B4E1002000220590C8
:102470000690079201E040F0010017F8011F2029A3
:10248000F9D023290CD02B2904D02D2905D03029AF
:1024900009D00BE040F00200EFE740F00400ECE769
:1024A00040F00800E9E740F01000E6E72A290CD1E7
:1024B0002A6852F8041B2A6000290A9103D5494270
:1024C0000A9140F004007F1C10E00A9209E00A998A
:1024D000414505DA01EB810302EB4302303A0A92EF
:1024E0007F1C3A78A2F130010A29F0D339782E29DD
:1024F00003D04FF0FF32099222E017F8011F2A297A
:1025000006D1296851F8042B296009927F1C17E035
:102510002D290CBF7F1C0021002209920BE00A002C
:1025200008D1099A424505DA02EB820403EB440321
:10253000303B09937F1C3B78A3F130020A2AEED38B
:10254000ADF82C003978129800F0EAF908B117F8C4
:10255000010B8DF82E009DF82E00682804BF3978F5
:10256000682903D162208DF82E007F1C0CA80490EE
:1025700017F8012B252A13D0582A4DD0632A00F0D2
:10258000AA80642A18BF692A71D06F2A44D0702AA1
:1025900039D0732A09D0752A18BF782A3CD0A3E015
:1025A00001218DF830200591A8E0286850F8044BEF
:1025B0002860039494B99DF82F0058B10FF2403071
:1025C00000F0BAF94FF0FF34241A00F097804FF072
:1025D000FF30FFE00FF2443003908FE0DDF82490ED
:1025E000B9F1000F04D5204600F0C6F9044608E012
:1025F0004A460021204600F0DBF9002814BF041BE6
:102600004C4606947AE0286850F8041B2860019133
:102610000CA9039178215AE09DF82E00622802D07F
:10262000682806D00BE0296851F8040B2960C0B275
:1026300009E0296851F8040B296080B203E0296899
:1026400051F8040B296001909DF82C00010739D541
:102650000198002836D042F02001782932D105981F
:1026600030213154401C431C059332542AE09DF81C
:102670002E00622802D0682806D00BE0296851F8A5
:10268000040B296040B209E0296851F8040B296065
:1026900000B203E0296851F8040B2960002801907A
:1026A00002D505982D210AE0BDF82C00810702D53E
:1026B00005982B2103E0C00704D50598202131544B
:1026C000401C05900CA8059901440391114601A8EE
:1026D00000F083F812E001200590286850F8041BF0
:1026E00028608DF8301009E025218DF83010012385
:1026F0001100059302D00220727005900A98059986
:10270000079A401A0699801AA0EB01099DF82C003F
:10271000410711D42020B9F1000F8DF800000BDD26
:102720004C4601236A4601A9504600F0CEF8002825
:102730007FF44DAF641EF4D1059C0DF1300B64B1F4
:102740001BF8012B01A9504600F0AFF8002801D476
:10275000641EF5D100287FF43AAF079C3020002C8E
:102760008DF800000ADD01236A4601A9504600F0F9
:10277000ACF800287FF42BAF641EF4D1DDF80CB068
:10278000069C64B11BF8012B01A9504600F08DF89E
:10279000002801D4641EF5D100287FF418AF9DF8FD
:1027A0002C0041077FF55CAE2020B9F1000F8DF8B9
:1027B00000007FF755AE4C4601236A4601A95046FA
:1027C00000F083F800287FF402AF641EF4D147E6DE
:1027D000CBCCCC0C13B0BDE8F08FF0B402466F291F
:1027E000D46808BF082605D041F02000782814BF1F
:1027F0000A26102618251368642918BF6929184667
:1028000002D1002B48BF404258B9136A4BB9082E79
:1028100027D192F82800010723D530201725E0752D
:102820001FE0B0FBF6F706FB170030306D1EC3B299
:102830003A2B03DA6055380003D106E040185138CE
:10284000F8E793686719BB42EBD3082E09D192F8D9
:102850002800010705D5605D302802D06D1E3020AC
:102860006055C5F11803106A536161198342916084
:1028700008DA118DC31A4FF6EF700140936111858C
:10288000F0BC704700280ED592F8280000F0140024
:10289000102808D1546A11699069641A241AE31A3D
:1028A000012BA8BF9361F0BC704710B503460C46DE
:1028B000114660689847606020B1E069401CE061A3
:1028C000002010BD4FF0FF3010BDF8B505460E4694
:1028D00017461C4600205CB117F8011B7068A8471A
:1028E000706030B1F069401CF0610020641EF3D1CB
:1028F000F2BD4FF0FF30F2BD686C747A4C000000FE
:102900007072696E74665F733A2062616420257329
:1029100020617267756D656E740000000000000034
:10292000C9B202788A421AB11CBF10F8012FF9E728
:1029300018BF00207047000080B500B906A0054907
:102940000B681BB122220021984701E000F05CF8DF
:10295000222002BD701B0020636F6E737472616968
:102960006E742068616E646C65723A2062616420E6
:102970006D6573736167650000F10103810704D021
:1029800010F8011B820781B1FAD10268A2F101316E
:10299000914311F0803104BF50F8042FF6E709BAD3
:1029A000B1FA81F100EBD100401CC01A7047000061
:1029B000C9B2830706D0521E22D310F8013B9942B8
:1029C000F7D11FE0083A13D302F1040241EA0121D2
:1029D00041EA014150F8043B121F21BF4B40A3F1D3
:1029E000013C2CEA030C1CF0803FF3D0C9B2001F5D
:1029F000083210F8013B521E28BF91EA030FF8D8A5
:102A000018BF0120401E7047012000F001B80000EF
:102A100080B5AFF30080024A11001820ABBEFBE77F
:102A20002600020010B40300002000200A00511EFE
:102A300092B2002A13D01A7890EA02205B1C082276
:102A4000040405D5040041F2210090EA440000E0AE
:102A50004000521E1400E4B2002CF1D1E6E780B22F
:102A600010BC704738B50A0092B2012A03D1042283
:102A7000DFF818331A700A0092B2852A05D00A00CE
:102A800040F2054392B29A423ED10278DFF8FC321E
:102A90001A70401C0278DFF8F4325A70401C027839
:102AA000DFF8E8329A70401C0A0092B2852A0DD1F4
:102AB000002207E00378B54C1500EDB22C44E3701A
:102AC000401C521C1300DBB2802BF3DB0A0040F2E7
:102AD000054392B29A420ED1002207E00378AB4C34
:102AE0001500ADB22C44E370401C521C13009BB285
:102AF000B3F5806FF2DB0278A44B83F80324401C0B
:102B00000078A24A82F80404A048007801282FD156
:102B1000080080B2852812D180219D48FFF782FFEE
:102B200080B29A4991F80314984A92F8042452EA20
:102B30000122904201D1A02021E0A1201FE040F21B
:102B4000054089B2814213D14FF480619048FFF76C
:102B500069FF80B28D4991F803148C4A92F80424DD
:102B600052EA0122904201D1A02008E0A12006E013
:102B700086480078042801D1A32000E0A12032BDBE
:102B800080B589B2834AD268904701BD1CB5002048
:102B90008DF8000000F06EF900285FD07E480068D4
:102BA000401C7D4908607C4801687C4800F070F951
:102BB000002407E07A48210089B2415C794800F09E
:102BC00067F9641C200080B2774909688842F1D314
:102BD0006DA000F05DF972480078682835D1704822
:102BE0004078112831D16E48807804282DD16C4866
:102BF000C078012829D16A480079C02825D16848C1
:102C00004079162821D169480078012816D168201A
:102C1000674908701120664948700420644988702B
:102C200001206349C870C4206149087116206049B9
:102C3000487106215E48574AD268904700205D4996
:102C4000088000205849086008E0002056490860C4
:102C500001205949087001205849087056480078E9
:102C6000002814D156480068401C55490860544853
:102C70000068544988420AD3002051490860432023
:102C80008DF8000001216846FFF77AFF5DE04B48B0
:102C90000078012859D1002048490870454801882A
:102CA0003F48FFF7DFFEA02806D04ED3A2282CD045
:102CB00020D3A32834D048E03E480088421F92B277
:102CC000334941480068414B181800F017F93E4855
:102CD000006838490988491F08183B4908600620E0
:102CE0008DF8000001216846FFF74AFF00203149B6
:102CF00008802AE015208DF8000001216846FFF7C2
:102D00003FFF00202B4908801FE006208DF80000BF
:102D100001216846FFF734FF00202649088014E0AF
:102D200006208DF8000001216846FFF729FF0020EA
:102D30002049088001201D49087000F005F9022192
:102D4000502000F01AF900F00FF913BD80B54FF4D0
:102D5000FA7000F020FA4FF4FA7000F01CFA4FF409
:102D6000FA7000F018FA4FF4FA7000F014FA4FF409
:102D7000FA7000F010FA4FF4FA7000F00CFA1448F0
:102D80001449086001BD00000D0A00005015002024
:102D90005315002038010020681B00202045000842
:102DA000740F00202C450008501B00207B1B0020C6
:102DB000E81A0020761B00207C1B00207D1B0020D1
:102DC0006C1B0020C0C62D00641B00200000020800
:102DD0000400FA050CED00E0002070470020704769
:102DE0000020704730B4002213E00378234C244DB8
:102DF0002D686355401C224B1B685B1C204C2360D4
:102E00001F4B1B68B3F5006F02D100231C4C2360DD
:102E1000521C8A42E9D3002030BC704730B44029AC
:102E20000ED100220AE0835C164C174D2D886355A5
:102E3000154B1B885B1C144C2380521C8A42F2D316
:102E400040290ED200220AE0835C0E4C0E4D2D88E4
:102E500063550D4B1B885B1C0B4C2380521C8A4214
:102E6000F2D3402903D008480088084908600020B0
:102E700030BC7047054800687047000080010020A2
:102E80003C1B0020740F0020761B0020501B0020EC
:102E90000EB4C0B5024603A800210190009101AB19
:102EA0000121044878440C30FFF7BAFA06BC5DF8FB
:102EB00010FB00BFF915000080B50B4801680B48F6
:102EC0000140B1F1005F0ED109480068094908606E
:102ED00008480068084908600348006880F30888CB
:102EE00005480068804701BD000002080000FE2F71
:102EF00004000208301B0020341B0020F8B5040039
:102F00000F00150000F020F8002613E03978781C37
:102F10000278471CD2B2120252FA81F1080080B244
:102F200041F61A22904203D089B2200000F080F8C6
:102F3000A41CB61C3000290080B289B28842E5D3B7
:102F400000F012F8F1BD0000DFF87C0100680028F5
:102F500009D5DFF87801DFF878110860DFF874012F
:102F6000DFF86C1108607047DFF85C01006850F012
:102F70000040DFF854110860704738B504000020A5
:102F800009200800C0B2002801D100250EE0080089
:102F9000C0B2012802D14FF4807507E0C9B20229FE
:102FA00002D14FF4007501E04FF4407500F096F83F
:102FB0000100C9B2092939D1DFF80C01006830F4E9
:102FC0004070DFF804110860DFF8FC00006805437A
:102FD000DFF8F4000560DFF8F000006830F0F8007A
:102FE000DFF8E4100860DFF8E0000068044354F004
:102FF0000204DFF8D4000460DFF8CC00006850F46D
:103000008030DFF8C410086000F068F8DFF8B8100E
:10301000096831F00201DFF8B0201160DFF8A81074
:10302000096831F0F801DFF8A0201160C0B232BDAC
:1030300038B504000D00092000F050F80100C9B2B5
:1030400009291AD12048006830F440701E490860F0
:103050001D48006850F480701B4908601A480068D9
:1030600050F0010018490860258000F037F8164933
:10307000096849084900144A1160C0B232BD0920EC
:1030800015480068C00301D5012019E01248006806
:10309000C00601D5062013E00F480068C00501D521
:1030A00002200DE00C48006810F0E00F01D007206E
:1030B00006E009480068800701D5082000E00920E3
:1030C000C0B2704700000000103C02402301674579
:1030D000043C0240AB89EFCD0C3C024080B5092096
:1030E0008DF80000FFF7CBFF8DF8000003E0FFF73D
:1030F000C6FF8DF800009DF800000128F7D09DF86C
:10310000000002BD020052B2002A08D509012D4A72
:1031100040B210F00F00104400F8041C03E0090155
:10312000294A40B21154704780B5411EB1F1807FE9
:1031300001D301200EE0401E244908600F215FF0FA
:10314000FF30FFF7DFFF00202149086007202149F9
:103150000860002002BD80B545F20820FFF7E4FFBB
:103160007FF00400FDF71EFF01BD80B2152148432A
:1031700016490860002016490860012015490860BA
:1031800014480068C003FBD50020124908600020E5
:103190000F490860704780B245F2082148430B4947
:1031A000086000200A49086001200A4908600948AF
:1031B0000068C003FBD500200649086000200449D0
:1031C0000860704718ED00E000E400E014E000E063
:1031D00018E000E010E000E01CB5049C89B200910A
:1031E0008DF8042003218DF805108DF806308DF838
:1031F00007406946FDF716FE13BD80B501217F200B
:10320000FDF7B5FD01215FF08050FDF7D6FD0120EF
:1032100000F098F90020FDF723FD002000F092F95E
:1032200000200090002301224FF40051BF48FFF717
:10323000D3FF4FF40051BD48FDF750FE0020009031
:10324000002301220421BA48FFF7C6FF0421B84831
:10325000FDF744FE00200090012301224FF480611D
:10326000B348FFF7B9FF4FF48061B148FDF736FE70
:1032700000200090002301220421AE48FFF7ACFF9C
:103280000421AC48FDF72AFE002000900023012213
:103290008021A648FFF7A0FF8021A448FDF720FE6B
:1032A00000200090002301224FF40051A248FFF7B4
:1032B00093FF4FF40051A048FDF712FE002000904C
:1032C000002301224FF400719848FFF785FF4FF467
:1032D00000719648FDF704FE0020009000230122B3
:1032E0004FF480419448FFF777FF4FF480419248B4
:1032F000FDF7F6FD00200090002301224FF48071BD
:103300008A48FFF769FF4FF480718848FDF7E8FDB0
:10331000002000900023012204218448FFF75CFF75
:1033200004218248FDF7DCFD0020009000230122EB
:1033300008217E48FFF750FF08217C48FDF7D0FDAB
:1033400000200090002301224FF480517748FFF7BE
:1033500043FF4FF480517548FDF7C2FD00200090F7
:103360000023012210217148FFF736FF10216F481A
:10337000FDF7B6FD00200090002301224FF400412C
:103380006C48FFF729FF4FF400416A48FDF7A6FD9E
:1033900000200090002301224FF400516548FFF700
:1033A0001BFF4FF400516348FDF798FD002000908B
:1033B000002301224FF400615E48FFF70DFF4FF438
:1033C00000615C48FDF78AFD002000900023012287
:1033D0004FF480415748FFF7FFFE4FF480415548B6
:1033E000FDF77CFD00200090002301224FF4805166
:1033F0005048FFF7F1FE4FF480514E48FDF76EFD47
:1034000000200090002300224FF480514848FFF72D
:10341000E3FE00200090002300224FF400514448B6
:10342000FFF7DAFE00200090002301224FF48061B4
:103430003E48FFF7D1FE4FF480613C48FDF74EFD5A
:10344000022000900023002202213948FFF7C4FE29
:1034500000200090002301224FF480713448FFF7D0
:10346000BBFE4FF480713248FDF738FD002000901C
:10347000002301224FF480613048FFF7ADFE4FF486
:1034800080612E48FDF72CFD082200212B48FDF716
:1034900029FD082201212948FDF724FD0020009084
:1034A0000023022201212548FFF796FE002000900C
:1034B0000023022202212148FFF78EFE0722052168
:1034C0001A48FDF70FFD072206211848FDF70AFDEF
:1034D000002000900023022220211448FFF77CFEE8
:1034E000002000900023022240211048FFF774FEC4
:1034F00002200090002301224FF480411048FFF782
:103500006BFE4FF480410E48FDF7E8FC022000906E
:10351000002301224FF400410948FFF75DFE4FF4FC
:1035200000410748FDF7DAFC01BD0000000C024035
:103530000010024000140240000802400000024057
:1035400000180240C0B201490860704720000E42D6
:1035500080B50221BA48FDF7B7FC002803D001204E
:10356000B849087002E00020B6490870B5480078F4
:10357000012840F01D8109E0B348008840F2F511B0
:10358000884280F2A5800A20FFF705FEAE48008839
:10359000401CAD490880AC480088002800F0088134
:1035A000AA4800780028E7D1A74800886438B0F519
:1035B000C87FE1D24FF48061A148FDF791FCC8209B
:1035C000FFF7E9FD4FF480619D48FDF787FC4FF45C
:1035D00000519F48FDF782FC04219948FDF77EFCCD
:1035E0000A20FFF7D8FD80219948FDF779FC4FF4B8
:1035F00000519848FDF774FC1420FFF7CCFD4FF400
:1036000000719348FDF76CFC4FF480419148FDF741
:1036100067FC4FF480718E48FDF762FC04218C48F2
:10362000FDF75EFC1420FFF7B6FD08218848FDF782
:1036300057FC0F20FFF7AFFD4FF480518448FDF792
:103640004FFC10218248FDF74BFC0F20FFF7A3FD34
:103650004FF400418048FDF741FC4FF400517E4893
:10366000FDF73CFC0A20FFF796FD4FF400617A4815
:10367000FDF734FC0F20FFF78EFD4FF480417648B4
:10368000FDF72CFC4FF480517348FDF727FC40F602
:10369000B830FFF780FD04216F48FDF71FFC0120C3
:1036A0006A49087000206D49088000206C49086054
:1036B00000206C49087000206B49087000206B499D
:1036C000087002215E48FDF7FFFB0028F9D16FE08A
:1036D00004216148FDF704FC0520FFF75CFD4FF471
:1036E00080515D48FDF7FCFB4FF480415A48FDF7DF
:1036F000F7FB3220FFF74FFD4FF400615648FDF70E
:10370000EFFB4FF400515448FDF7EAFB4FF4004142
:103710005148FDF7E5FB3220FFF73DFD10214C48F5
:10372000FDF7DCFB4FF480514948FDF7D7FB08213A
:103730004748FDF7D3FB04214548FDF7CFFB4FF485
:1037400080714348FDF7CAFB1420FFF724FD4FF4B6
:1037500080414048FDF7C2FB4FF400513D48FDF762
:10376000BDFB4FF400713A48FDF7B8FB80213848A3
:10377000FDF7B4FB0A20FFF70EFD00203349087067
:10378000002036490880002035490860002038496B
:103790000860002033490870002033490870002079
:1037A0003249087002212648FDF78EFB0028F9D126
:1037B00024480078002802D100202349088001BD58
:1037C00080B52C48006810F1010F35D000F0AFF83B
:1037D000FFF7BAFB02212820FFF7CFFB02213020A0
:1037E000FFF7CBFB02213820FFF7C7FB0221402067
:1037F000FFF7C3FB02214820FFF7BFFBFFF7B4FB35
:103800001D48FFF745FBFFF7C1F9FFF7A1FE15487B
:1038100000780028F7D04FF400510948FDF754FB19
:103820000028F0D14FF480510548FDF74DFB0028EA
:10383000E9D100F023F8E6E7FFF73EFBFEE70000E2
:1038400000100240781B0020741B00207C01002027
:10385000000C02400008024000140240761B0020C9
:10386000501B00207B1B00207C1B00207D1B0020A8
:10387000641B002000000C08E444000880B504210B
:103880003A48FDF72DFB0520FFF785FC4FF48051EA
:103890003648FDF725FB4FF480413448FDF720FB07
:1038A0003220FFF778FC4FF400613048FDF718FB39
:1038B0004FF400512D48FDF713FB4FF400412B4806
:1038C000FDF70EFB3220FFF766FC10212548FDF7BF
:1038D00005FB4FF480512348FDF700FB08212148E8
:1038E000FDF7FCFA04211F48FDF7F8FA4FF4807148
:1038F0001C48FDF7F3FA1420FFF74DFC4FF480410C
:103900001948FDF7EBFA4FF400511748FDF7E6FAB6
:103910004FF400711348FDF7E1FA80211148FDF7DB
:10392000DDFA0A20FFF737FCFFF710FA01BD80B57A
:10393000FFF763FC0E4800900E4B0F4A01210F4821
:10394000FEF7DAFB4FF480610D48FDF7C9FAFFF787
:1039500002FC00F004F95FF4E1310A4800F034F9A8
:1039600001BD0000000C02400008024000140240AB
:103970001C0100208C000020E400002080090020B1
:1039800000000240004C0040E0B501210220FDF79C
:10399000EEF98020009001208DF8040003208DF8BE
:1039A000050001208DF8060000208DF8070069460B
:1039B0005548FDF737FA80215348FDF78FFA07BDC8
:1039C000E0B501210220FDF7D2F98020009000200F
:1039D0008DF8040003208DF8050000208DF8060006
:1039E00000208DF8070069464748FDF71BFA07BD20
:1039F00080B5FFF7C9FF40214348FDF76FFA50201B
:103A0000FFF7B3FB80214048FDF768FA5020FFF72D
:103A1000ACFB80213C48FDF763FA5020FFF7A5FB83
:103A200040213948FDF75CFA5020FFF79EFB01BDAD
:103A300080B5FFF7A9FF40213348FDF751FA8021F7
:103A40003148FDF74DFA5020FFF78FFB40212E48FB
:103A5000FDF744FA5020FFF788FB80212A48FDF744
:103A60003DFA5020FFF781FB01BD38B50400FFF798
:103A70008BFF80251FE080212348FDF72FFA07E008
:103A80002800C0B22042F6D180211F48FDF728FA55
:103A90005020FFF76AFB40211B48FDF71FFA50201A
:103AA000FFF763FB40211848FDF71AFA5020FFF793
:103AB0005CFBEDB26D082800C0B20028E0D131BD3A
:103AC00010B50224FFF77CFF0520FFF74EFB802195
:103AD0000D48FDF7F9F9002806D0641E200080B2D9
:103AE0000028F4D101200EE040210748FDF7F6F947
:103AF0005020FFF73AFB40210348FDF7F1F9502031
:103B0000FFF733FB002010BD0004024070B5040035
:103B10000D001600FFF76CFF64002000C0B2FFF735
:103B2000A4FFFFF7CDFF002801D0012016E02800F8
:103B3000C0B2FFF79AFFFFF7C3FF002801D00120B2
:103B40000CE03000C0B2FFF790FFFFF7B9FF00288C
:103B500001D0012002E0FFF76BFF002070BD80B5AF
:103B6000802220212C20FFF7D1FF00222A212C20A7
:103B7000FFF7CCFF1F222B212C20FFF7C7FF0022CD
:103B80002C212C20FFF7C2FF00222D212C20FFF733
:103B9000BDFF1C2230212C20FFF7B8FF1C22402142
:103BA0002C20FFF7B3FF1C2250212C20FFF7AEFF83
:103BB0001C2260212C20FFF7A9FF1C2270212C2041
:103BC000FFF7A4FF01BD00001FB504002A4884428E
:103BD00004D101211020FDF700F922E0274884429A
:103BE00005D101215FF40030FDF7E7F819E0244822
:103BF000844205D101215FF48020FDF7DEF810E05A
:103C00002048844205D101215FF40020FDF7D5F85A
:103C100007E01D48844204D101215FF48010FDF7C4
:103C2000CCF85FF4E13000900020ADF804000020F3
:103C3000ADF806000020ADF808000C20ADF80A0031
:103C40000020ADF80C006946200000F01FF80121AB
:103C5000200000F07FF81FBD10B504004021094886
:103C600000F08AF80028F9D02100C9B289B20548CD
:103C700000F07EF8200010BD00100140004400401C
:103C800000480040004C00400050004038B584B06F
:103C900005000C000020002000200020A089002842
:103CA000298A31F44051E08801432982A9892848B2
:103CB0000140A08801432089014360890143A98113
:103CC000A98A31F44071A0890143A9826846FCF7B2
:103CD000E0FF1D48854202D01C48854201D103996E
:103CE00000E00299A889000406D519204143206804
:103CF0004000B1FBF0F205E019204143206880004C
:103D0000B1FBF0F26420B2FBF0F109010B001B09DA
:103D10007FF0630000FB0322A889000408D5D000CF
:103D200032306422B0FBF2F010F00700014307E0EC
:103D3000100132306422B0FBF2F010F00F000143AA
:103D4000298105B030BD0000001001400014014081
:103D5000F3E9FFFFC9B2002904D0818951F4005171
:103D6000818104E082894DF6FF710A4082817047AB
:103D7000C905C90D8180704700220A0092B2B2F5D0
:103D8000007F0088084201D0012000E00020C0B27E
:103D90007047000010B5040002234022812120005A
:103DA000FEF7C4F80223402201212000FEF7BEF8EE
:103DB0000323082282212000FEF7B8F8B048022130
:103DC000017100214171AF48006880474023AE4A2D
:103DD00001212000FEF7FDF8002010BD10B5040001
:103DE00081212000FEF7D2F801212000FEF7CEF855
:103DF00082212000FEF7CAF8A248406880470020D0
:103E000010BD38B504000D00287810F06000C0B275
:103E100000282DD0202825D1E88800281AD028781D
:103E200000060BD5EA8899496878964B9B689847B5
:103E3000EA8896492000FDF7C6FF11E068789449AA
:103E40000860E88893490860EA8890492000FDF7F7
:103E5000DBFF05E00022002168788A4B9B689847C9
:103E6000002026E029002000FDF76EFF022020E060
:103E70006878062804D00A2808D00B280CD017E050
:103E800029002000FDF760FF022012E00122824994
:103E90002000FDF798FF0BE06888C0B2002803D12E
:103EA000A8787D49086003E029002000FDF74CFF59
:103EB000002032BD80B576480068FF280AD07548DA
:103EC00002687249724800686E4B9B689847FF20F1
:103ED0006F490860002002BD10B5704909780129BA
:103EE00006D16F490968002910D100216B4A117071
:103EF0006A490978022907D1002300228121FEF7AF
:103F00008CF8002065490870002010BD64490968DC
:103F100041290DD363490A68402362490968403149
:103F2000604C21605E49096840395D4C216014E0B5
:103F30005C490A685A490B685A490C68584909682B
:103F40000C1958490C600021554C2160190089B2A8
:103F5000402902D10221514C21709BB2524992B2A8
:103F60000A448121FEF759F80020CEE710B504007D
:103F7000C9B22820414304EB0100D0F88C1389B268
:103F80004148404A1269904740233F4A012120009E
:103F9000FEF71FF8002010BD80B5444909684A1C8F
:103FA000424B1A60052904D10021404A116000F0FB
:103FB00002F8002002BD10B53849097800295AD10D
:103FC00038490968B1F5006F02D10021354A116006
:103FD00034490968364A1268914203D100202F49BA
:103FE000087048E0324909682E4A1268914206D2A8
:103FF0002C490968D1F50061294A116006E02C4975
:104000000A6828490968521A25490A60244909683A
:10401000412910D323490A684023224909684031C5
:10402000204C21601E49096840391D4C2160012146
:104030001A4C217018E01B490A6819490B68194984
:104040000C68174909680C1916490C600021144CBA
:104050002160190089B2402903D102210F4C21703F
:1040600002E001210D4C21709BB20F4992B20A442B
:104070008121FDF7D2FF10BD432008800D48704715
:104080004C01002038010020A81A0020281B002025
:1040900070010020481B0020381B0020791B0020E5
:1040A000441B0020401B0020800100204C1B0020EE
:1040B0003C1B00204800002080B54848006850F4B0
:1040C0007000464908604648006850F001004449C5
:1040D00008600020434908604148016842480140A7
:1040E0003F4801604148424908603D48006830F45B
:1040F00080203B49086000203E49086000F005F838
:104100005FF000603C49086001BD82B00020019072
:10411000002000903248006850F480303049086038
:104120002F48006810F4003000900198401C019066
:104130000098002803D10198B0F5A04FF0D128488D
:104140000068800302D50120009001E0002000906B
:10415000009801283ED12948006850F08050274936
:1041600008602748006850F44040254908601D4811
:1041700000681C4908601B48006850F40040194959
:1041800008601848006850F4A050164908601D489F
:10419000174908601248006850F0807010490860A4
:1041A0000F4800688001FBD540F205701649086091
:1041B0000C480068800880000A49086009480068C7
:1041C00050F00200074908600648006810F00C0033
:1041D0000828F9D102B070470000000088ED00E027
:1041E0000038024008380240FFFFF6FE103000247D
:1041F000043802400C38024008ED00E0403802402C
:104200000070004008544007003C02401220088023
:104210002C487047042008802B48704780B50A005E
:10422000C0B2002804D129492948FDF79BFD03E0CD
:1042300026492848FDF796FD244802BD80B50A00AE
:1042400022492548FDF78EFD204802BD80B51A2081
:10425000088000F022F8214802BD80B50A00C0B2F3
:10426000002804D119491E48FDF77CFD03E01749D9
:104270001B48FDF777FD154802BD80B50A00C0B2A6
:10428000002804D111491748FDF76CFD03E00F49E0
:104290001448FDF767FD0D4802BD10B512480068CF
:1042A00012490C68124909680818002808D0082229
:1042B000104900F023F804220F49200000F01EF8F6
:1042C00010BD00004C01002078010020581900208A
:1042D000AC430008D0430008D0440008000100208F
:1042E00014450008F4440008107AFF1F147AFF1FD9
:1042F000187AFF1F020100201201002030B40023B1
:1043000000231AE00400240F37341D00EDB201F839
:1043100015400AE00400240F0A2CF3D20400240FF5
:1043200030341D00EDB201F81540000100241D00DD
:10433000EDB201EB45056C705B1C1C001500E4B28E
:10434000EDB2AC42E6D330BC704730B4002512E089
:1043500050F8042BD30744BF4A44521E091F0429B6
:1043600042F8045BFAD213468C0744BF15809B1CAD
:10437000C90748BF1D7050F8041B0029E8D130BCA4
:104380007047000010B5074979441831064C7C4449
:10439000163404E00A68081D114488470146A1420A
:1043A000F8D110BD740000009400000053544D3348
:1043B00032205669727475616C20436F6D506F7254
:1043C0007420696E204853206D6F64650000000002
:1043D00053544D3332205669727475616C20436FAB
:1043E0006D506F727420696E204653204D6F646566
:1043F000000000004EF68851CEF20001086840F43B
:1044000070000860BFF34F8FBFF36F8F4FF00070E5
:10441000E1EE100A7047000033FFFFFF001A0000B2
:10442000800100200000000067C7FFFF800100003E
:104430004C02000000000020000000007047FEE772
:10444000FEE7FEE7FEE770477047704780B5024819
:10445000FCF7C4FD01BD00008009002000F00DF84C
:10446000002801D0FFF78EFFAFF300800020AFF3EC
:104470000080FFF7A5F900F002F80120704700F076
:1044800001B8000007463846FEF7C2FAFBE7000015
:104490000548014603B4684680F30988AFF30080FD
:1044A000FFF7A8FFFFF7DAFFA5EDF5FE38B50446E4
:1044B0000D46284600F006F8A84218BF0024204602
:1044C00032BD00000149FFF7C7BB00BF000000205C
:1044D00053544D6963726F656C656374726F6E6976
:1044E0006373000052756E20546F20496170200D77
:1044F0000A00000056435020496E7465726661637D
:10450000650000000148804701480047B9400008A5
:104510009144000856435020436F6E66696700005F
:104520006B6B203D202564200D0A00002530325899
:1045300020000000FFF7FEBFFFF7FEBFFFF7FEBF42
:10454000FFF7FEBFFFF7FEBFFFF7FEBFFFF7FEBF9F
:10455000FFF7FEBFFFF7FEBFFFF7FEBFFFF7FEBF8F
:10456000FFF7FEBFFFF7FEBFFFF7FEBFFFF7FEBF7F
:10457000FFF7FEBFFFF7FEBFFFF7FEBFFFF7FEBF6F
:10458000FFF7FEBFFFF7FEBFFFF7FEBFFFF7FEBF5F
:10459000FFF7FEBFFFF7FEBFFFF7FEBFFFF7FEBF4F
:1045A000FFF7FEBFFFF7FEBFFFF7FEBFFFF7FEBF3F
:1045B000FFF7FEBFFFF7FEBFFFF7FEBFFFF7FEBF2F
:1045C000FFF7FEBFFFF7FEBFFFF7FEBFFFF7FEBF1F
:1045D000FFF7FEBFFFF7FEBFFFF7FEBFFFF7FEBF0F
:1045E000FFF7FEBFFFF7FEBFFFF7FEBFFFF7FEBFFF
:1045F000FFF7FEBFFFF7FEBFFFF7FEBFFFF7FEBFEF
:10460000FFF7FEBFFFF7FEBFFFF7FEBFFFF7FEBFDE
:10461000FFF7FEBFFFF7FEBFFFF7FEBFFFF7FEBFCE
:10462000FFF7FEBFFFF7FEBFFFF7FEBFFFF7FEBFBE
:10463000FFF7FEBFFFF7FEBFFFF7FEBFFFF7FEBFAE
:10464000FFF7FEBFFFF7FEBFFFF7FEBFFFF7FEBF9E
:10465000FFF7FEBFFFF7FEBFFFF7FEBFFFF7FEBF8E
:10466000FFF7FEBFFFF7FEBFFFF7FEBFFFF7FEBF7E
:10467000FFF7FEBFFFF7FEBFFFF7FEBF0204010119
:10468000581A0020A81A0020581A0020581A002092
:1046900000000000581A0020000000004400002024
:1046A00030000020000000000000000000000000BA
:1046B00000000000000000000000000000000000FA
:1046C0000000000009024300020100C0320904009A
:1046D000000102020100052400100105240100016F
:1046E000042402020524060001070582030800FFD6
:1046F00009040100020A0000000705010240000051
:104700000705810240000000953D0008DD3D0008DE
:10471000033E000800000000B53E0008D93E000836
:104720006D3F0008993F00080000000000000000F5
:104730007940000891210008272200084121000843
:10474000872300081D2300086B2300084D23000861
:10475000CB230008D9230008E7230008FD23000825
:104760000D420008154200083D4200081D420008A5
:104770004D4200085B4200087B4200081A0300001B
:104780000000000000000000000000000000000029
:104790000000000000000000530C0008550C000849
:1047A000570C0008590C00085B0C00085D0C000851
:1047B0005F0C0008D92D0008DD2D0008E12D000850
:1047C000E52D00081D2E0008120100020202004023
:1047D00087044757000201020301000000000000A7
:1047E000010203040102030406070809FF00000098
:0C47F000B80000200403090401000000D0
:04000005080044911A
:00000001FF
:020000040802F0
:10000000C0B00020D5F6020819F002081BF0020863
:1000100025F0020827F0020829F00208000000007D
:100020000000000000000000000000002BF00208AB
:100030002DF0020800000000379202082FF002089D
:1000400099F702089DF70208A1F70208A5F7020830
:10005000A9F70208ADF70208B1F70208B5F70208E0
:10006000B9F70208BDF70208C1F70208C5F7020890
:10007000C9F70208CDF70208D1F7020881F002089B
:10008000D5F7020891F00208D9F70208DDF7020857
:10009000E1F70208E5F70208E9F70208EDF70208C0
:1000A000F1F70208F5F70208F9F70208FDF7020870
:1000B000A1F0020801F8020805F8020809F8020890
:1000C0000DF8020811F8020815F8020819F80208DC
:1000D0001DF8020821F8020871F0020825F802084C
:1000E00029F802082DF8020831F8020835F802084C
:1000F00039F802083DF8020841F8020845F80208FC
:1001000049F802084DF8020851F8020855F80208AB
:1001100061F0020859F802085DF8020861F8020867
:1001200065F8020869F802086DF8020871F802081B
:1001300075F8020879F802087DF8020881F80208CB
:1001400085F8020889F802088DF802084BF00208C9
:1001500091F8020895F8020899F802089DF802083B
:10016000A1F80208A5F80208A9F80208ADF80208EB
:10017000B1F80208B5F80208B9F80208BDF802089B
:10018000C1F80208C5F8020880B50178427852EA41
:100190000122DFF8B41D4A858178C27852EA012233
:1001A000DFF8A41D8A850179427952EA0122DFF83D
:1001B000981DCA858179C07950EA0120DFF8881D31
:1001C0000886DFF8840D408DB0F5FA7041F659319C
:1001D000884280F03381DFF8700D808DB0F5FA70C1
:1001E00041F65931884280F02981DFF85C0DC08DDD
:1001F000B0F5FA7041F65931884280F01F81DFF87E
:10020000480D008EB0F5FA7041F65931884280F001
:100210001581DFF8340D408DDFF82C1DC98D884223
:10022000C0F00C81DFF8200D808DDFF81C1D098ED9
:100230008842C0F0038102F0A5F9DFF80C0D408D73
:10024000DFF8041DC98E884207D0DFF8FC0C808DD2
:10025000DFF8F41C098F884217D1DFF8EC0C408DD1
:10026000DFF8E41CB1F87210401A02F09BFC32284F
:100270000BDBDFF8D40C808DDFF8CC1CB1F87410E8
:10028000401A02F08FFC32284DDA02F052FEDFF8FD
:10029000B80C408D02F08AFCDFF8AC1CA1F85A00C3
:1002A000DFF8A40C808D02F0B0FCDFF89C1CA1F8F4
:1002B0005C00DFF8940CC08EDFF88C1C498D8842FE
:1002C0000CD2DFF8840C008FDFF87C1C898D88420B
:1002D00004D2C820DFF8701C088404E04FF4FA60F0
:1002E000DFF8641C0884DFF8600C408DDFF8581CD0
:1002F000C886DFF8540C808DDFF84C1C088700207E
:10030000DFF8441C48730120DFF83C1C0871002012
:10031000DFF8341CC8710020DFF82C1C8872012023
:10032000DFF8241C0875DFF8200CC08DDFF8181CDE
:10033000498F884207D0DFF8100C008EDFF8081CC8
:10034000898F884217D1DFF8000CC08DDFF8F81BC9
:10035000B1F87610401A02F025FC32280BDBDFF8EA
:10036000E80B008EDFF8E01BB1F87810401A02F0BD
:1003700019FC322866DA02F0F5FDDFF8CC0BC08DEF
:1003800002F014FCDFF8C01BA1F85E00DFF8B80B28
:10039000008E02F03AFCDFF8B01BA1F86000DFF835
:1003A000A80B408FDFF8A01BC98D88420CD2DFF864
:1003B000980B808FDFF8901B098E884204D2C820EA
:1003C000DFF8841B888404E04FF4FA60DFF8781BC0
:1003D0008884DFF8740BC08DDFF86C1B4887DFF86A
:1003E000680B008EDFF8601B88870020DFF8581B41
:1003F00008730020DFF8501BC8700020DFF8481B8E
:1004000048720020DFF8401B88710120DFF8381B9C
:10041000C8740020DFF8301B88730120DFF8281B28
:1004200048710020DFF8201B08720020DFF8181B3D
:10043000C8720120DFF8101B487503E001F0BCFC16
:1004400002F003FD01BD80B5DFF8A40D4068FFF7A1
:100450009BFE01BD80B50178427852EA0122DFF8A7
:100460006C1C4A858178C27852EA0122DFF85C1C54
:100470008A850179427952EA0122DFF8501C4A86C6
:100480008179C07950EA0120DFF8401C8886DFF8C6
:100490003C0C408DB0F5FA7041F65931884280F03D
:1004A0000881DFF8280C808DB0F5FA7041F65931DB
:1004B000884280F0FE80DFF8140C408EFA38FB286A
:1004C00080F0F780DFF8040C808EFA38FB2880F08B
:1004D000F08002F057F8DFF8F40B408DDFF8EC1BEA
:1004E000C98E884207D0DFF8E40B808DDFF8DC1B73
:1004F000098F884217D1DFF8D40B408DDFF8CC1B71
:10050000B1F87210401A02F04DFB32280BDBDFF815
:10051000BC0B808DDFF8B41BB1F87410401A02F0E8
:1005200041FB32284DDA02F004FDDFF8A00B408DCC
:1005300002F03CFBDFF8941BA1F85A00DFF88C0BAB
:10054000808D02F062FBDFF8841BA1F85C00DFF80D
:100550007C0BC08EDFF8741B498D88420CD2DFF80B
:100560006C0B008FDFF8641B898D884204D2C82091
:10057000DFF8581B088404E04FF4FA60DFF84C1BE6
:100580000884DFF8480B408DDFF8401BC886DFF891
:100590003C0B808DDFF8341B08870020DFF82C1B14
:1005A00048730120DFF8241B08710020DFF81C1BB2
:1005B000C8710020DFF8141B88720120DFF80C1BC3
:1005C0000875DFF8080B408EDFF8001BC98F8842E2
:1005D00008D0DFF8F80A808EDFF8F01AB1F8401082
:1005E000884217D1DFF8E40A408EDFF8E01AB1F84C
:1005F0007610401A02F0D6FA32280BDBDFF8CC0A6C
:10060000808EDFF8C81AB1F87810401A02F0CAFAE2
:10061000322852DA02F074FCDFF8B00A408E02F0A1
:100620001EFBDFF8A81AA1F86200DFF8A00A808E8E
:1006300002F02FFBDFF8941AA1F864004FF4FA607F
:10064000DFF8881A8883DFF8840A408EDFF87C1A86
:10065000C887DFF8780A808EDFF8701AA1F84000AA
:100660000020DFF8681A88730020DFF8601A4871EC
:100670000020DFF8581A08720020DFF8501AC872FC
:100680000120DFF8481A48750020DFF8401A087387
:100690000120DFF8381AC8700020DFF8301A4872DD
:1006A0000020DFF8281A88710120DFF8201AC874AA
:1006B00003E001F081FB02F0C8FB01BD80B5DFF86B
:1006C000480D4068FFF7C6FE01BD00219020DFF80D
:1006D0003C2D50730020DFF8342D9073DFF868084C
:1006E00090F89800DFF8242DD073DFF85C0890F8BC
:1006F0009500DFF8182D1074DFF84C08B0F8A20050
:1007000080B2000ADFF8042D5074DFF83C08B0F81E
:10071000A200DFF8F82C9074DFF82C08B0F8A400E1
:1007200080B2000ADFF8E42CD074DFF81C08B0F8BF
:10073000A400DFF8D82C1075DFF80C08B0F8A6007C
:1007400080B2000ADFF8C42C5075DFF8FC07B0F85F
:10075000A600DFF8B82C9075DFF8EC07B0F8A80019
:1007600080B2000ADFF8A42CD075DFF8DC07B0F8FF
:10077000A800DFF8982C1076DFF8CC07B0F8AA00B4
:1007800080B2000ADFF8842C5076DFF8BC07B0F89E
:10079000AA00DFF8782C9076DFF8AC07B0F87E007E
:1007A000A0F24C40C92802D251F4007102E04FF689
:1007B000FF500140DFF89007B0F88000A0F24C40F5
:1007C000C92802D251F4807102E04FF6FF60014067
:1007D000DFF87407B0F88200B0F5FA70652802D22D
:1007E00051F0800102E04FF67F700140DFF85807BA
:1007F000B0F88400B0F5FA70652802D251F04001DB
:1008000002E04FF6BF700140DFF83C07B0F8860009
:10081000B0F5FA70652802D251F0200102E04FF6DF
:10082000DF700140DFF82007B0F88800B0F596705F
:10083000972802D251F0100102E04FF6EF7001400C
:10084000DFF80407B0F88A00B4385B2802D251F010
:10085000080102E04FF6F7700140DFF8EC06B0F84F
:100860008E00B0F5966040F22132904202D251F0F3
:10087000040102E04FF6FB700140DFF8CC06B0F84F
:100880008C006438562802D251F0020102E04FF683
:10089000FD700140DFF8B006B0F89000413838280C
:1008A00002D251F0010102E04FF6FE700140080053
:1008B00080B2000ADFF8542BD076DFF8500B0177B6
:1008C000DFF88406B0F87E0080B2000ADFF83C1B37
:1008D0004877DFF87406B0F87E00DFF8301B8877C1
:1008E000DFF86406B0F8800080B2000ADFF81C1B55
:1008F000C877DFF85406B0F88000DFF8101B81F8E5
:100900002000DFF84406B0F8820080B2000ADFF869
:10091000FC1A81F82100DFF83006B0F88200DFF819
:10092000EC1A81F82200DFF82006B0F8840080B2CB
:10093000000ADFF8D81A81F82300DFF80C06B0F8B7
:100940008400DFF8C81A81F82400DFF8FC05B0F84D
:10095000860080B2000ADFF8B41A81F82500DFF8BB
:10096000E805B0F88600DFF8A41A81F82600DFF861
:10097000D805B0F8880080B2000ADFF8901A81F834
:100980002700DFF8C405B0F88800DFF8801A81F886
:100990002800DFF8B405B0F88A0080B2000ADFF85A
:1009A0006C1A81F82900DFF8A005B0F88A00DFF89A
:1009B0005C1A81F82A00DFF89005B0F88E0080B24A
:1009C000000ADFF8481A81F82B00DFF87C05B0F840
:1009D0008E00DFF8381A81F82C00DFF86C05B0F8CB
:1009E0008C0080B2000ADFF8241A81F82D00DFF8AD
:1009F0005805B0F88C00DFF8141A81F82E00DFF8E3
:100A00004805B0F8900080B2000ADFF8001A81F8BB
:100A10002F00DFF83405B0F89000DFF8F01981F806
:100A20003000704780B5A020DFF8E41988703120CD
:100A3000DFF8DC19C870DFF8D409DFF8D419486092
:100A4000DFF8040590F8BC00022808D1DFF8C409DB
:100A5000006801F0D9FADFF8C00901F02DFBDFF8DA
:100A6000E80490F8BC0001280DD1DFF8B00901F0CE
:100A7000CBFADFF8A809C178891DDFF8A009DFF8F3
:100A8000A029D2689047DFF8C00490F8BC00032882
:100A900008D1DFF89009006801F0B6FADFF82C0DF4
:100AA00001F00AFB01BD80B5DFF84407406800781B
:100AB0001B287DD16820DFF858190870DFF850092D
:100AC0000078DFF8581908700420DFF844194870DE
:100AD000DFF83C094078DFF8441948700520DFF85A
:100AE00030198870DFF828098078DFF830198870AD
:100AF0000420DFF81C19C870DFF81409C078DFF88B
:100B00001C19C8701B20DFF8081949680870DFF845
:100B1000000940680078DFF8041908719020DFF8B8
:100B2000F01849684870DFF8E80840684078DFF856
:100B3000EC1848710020DFF8D81849688870DFF891
:100B4000D00840688078DFF8D4188871DFF8CC08C6
:100B50004178DFF8C80880784118DFF8C008C0780D
:100B60004118DFF8B80800794118DFF8B00840797B
:100B70004118DFF8A80880794118DFF8940801725D
:100B8000DFF88C08007ADFF89418C8711620DFF8B7
:100B900080184872DFF87808407ADFF88018087209
:100BA0000921DFF87808DFF87828D268904740E01C
:100BB0000120DFF85C1888700220DFF85418C87034
:100BC0009020DFF84C18496808700020DFF84018C2
:100BD00049684870DC4890F8BC00022808D1DFF86A
:100BE0003408006801F010FADFF82C0801F064FA0C
:100BF000D54890F8BC0001280DD1DFF8200801F09D
:100C000003FADFF81808C178891DDFF81008DFF84B
:100C10001028D2689047CC4890F8BC00032808D12F
:100C2000DFF80008006801F0EFF9DFF8A00B01F031
:100C300043FA01BD10B5DFF8B805406800781C28FC
:100C400040F090806820DFF8C8170870DFF8C00710
:100C50000078DFF8C81708700420DFF8B417487070
:100C6000DFF8AC074078DFF8B41748700520DFF8EC
:100C7000A0178870DFF898078078DFF8A0178870D1
:100C80001520DFF88C17C870DFF88407C078DFF80C
:100C90008C17C8701C20DFF8781749680870DFF8D7
:100CA000700740680078DFF8741708710B22DFF8CE
:100CB0003019DFF85C074068441C200002F094F90A
:100CC0000822DFF82019DFF84807406810F10C040B
:100CD000200002F089F91322DFF834074068411C34
:100CE000DFF80449200002F07FF9DFF8240741789B
:100CF000DFF81C0780784118DFF81407C078411826
:100D0000DFF80C07017200210BE0DFF80407027A1C
:100D1000DFF8FC064068405C8218DFF8F4060272D7
:100D2000491CDFF8EC06C078401E8142EDDBDFF89D
:100D3000E006007ADFF8E41648761620DFF8D016D1
:100D40004872DFF8CC06407ADFF8D0168876DFF8F4
:100D5000C006C178491DDFF8C406DFF8C426D26892
:100D600090474AE00220DFF8A81688701320DFF8C9
:100D7000A016C8700B22DFF86818DFF894064468E4
:100D8000200002F031F90822DFF85818DFF8800659
:100D9000406810F10B04200002F026F96A4890F830
:100DA000BC00022808D1DFF86C06006801F02CF9BD
:100DB000DFF8640601F080F9634890F8BC00012870
:100DC0000DD1DFF8580601F01FF9DFF85006C178A1
:100DD000891DDFF84806DFF84826D26890475A4850
:100DE00090F8BC00032808D1DFF83806006801F04D
:100DF0000BF9DFF8D80901F05FF910BD80B50222C8
:100E00006946002002F0E1FA0320DFF8041688703A
:100E10000220DFF8FC15C8709DF80000DFF8F0151F
:100E2000496808709DF80100DFF8E41549684870CA
:100E3000454890F8BC00022808D1DFF8D8050068C2
:100E400001F0E2F8DFF8D00501F036F93E4890F8FD
:100E5000BC0001280DD1DFF8C40501F0D5F8DFF89A
:100E6000BC05C178891DDFF8B405DFF8B425D26868
:100E70009047354890F8BC00032808D1DFF8A40556
:100E8000006801F0C1F8DFF8440901F015F901BD6F
:100E900010B5A0B0002006E0DFF854134968095CE3
:100EA0006A461154401CDFF84813C9788842F3DBC6
:100EB000002406E0684600EB0401002002F07FFAFF
:100EC0000834CB48C0788442F4DB0420DFF84015B6
:100ED00088700120DFF83815C8700120DFF8301560
:100EE00049680870184890F8BC00022808D1DFF85B
:100EF0002405006801F088F8DFF81C0501F0DCF833
:100F0000114890F8BC0001280DD1DFF8100501F060
:100F10007BF8DFF80805C178891DDFF80005DFF8E8
:100F20000025D2689047084890F8BC00032808D1F3
:100F3000DFF8F004006801F067F8DFF8900801F0CE
:100F4000BBF820B010BD00000000002080B50520D7
:100F5000DFF8BC1488700120DFF8B414C8700120D9
:100F6000DFF8AC1449680870584890F8BC000228B3
:100F700008D1DFF8A004006801F046F8DFF8980413
:100F800001F09AF8514890F8BC0001280DD1DFF823
:100F90008C0401F039F8DFF88404C178891DDFF88A
:100FA0007C04DFF87C24D2689047484890F8BC0065
:100FB000032808D1DFF86C04006801F025F8DFF899
:100FC000E00C01F079F801BD80B50620DFF840148F
:100FD00088700120DFF83814C8700120DFF8301461
:100FE00049680870394890F8BC00022808D1DFF839
:100FF0002404006801F008F8DFF81C0401F05CF834
:10100000324890F8BC0001280DD1DFF8100400F040
:10101000FBFFDFF80804C178891DDFF80004DFF862
:101020000024D2689047294890F8BC00032808D1D2
:10103000DFF8F003006800F0E7FFDFF8640C01F070
:101040003BF801BD80B50720DFF8C413887001208C
:10105000DFF8BC13C8700120DFF8B41349680870CA
:101060001A4890F8BC00022808D1DFF8A8030068ED
:1010700000F0CAFFDFF8A00301F01EF8134890F853
:10108000BC0001280DD1DFF8940300F0BDFFDFF8AC
:101090008C03C178891DDFF88403DFF88423D268CC
:1010A00090470A4890F8BC00032808D1DFF8740381
:1010B000006800F0A9FFDFF8E80B00F0FDFF01BDBC
:1010C000DFF8DC0ADFF8EC1C086070470000002045
:1010D00080B54748406800781D2844D16820DFF873
:1010E00030130870CA480078DFF830130870042005
:1010F000C7494870C6484078C84948700620C44966
:101100008870C3488078C54988700220C049C8707B
:10111000BF48C078C149C8701E20BD4949680870E1
:10112000BB4840680078BD490871BC484178BB485D
:1011300080784118B948C0784118B84800794118FA
:10114000B3480172B248007AB44948711620B049D8
:101150004872AF48407AB14988710721AF48B04A18
:10116000D268904734E00820A94988700120A84936
:10117000C8700120A64949680870DFF8A80A90F8ED
:10118000BC00022806D1A348006800F03DFFA24839
:1011900000F092FFDFF88C0A90F8BC00012809D11A
:1011A0009E4800F031FF9D48C178891D9B489C4AAC
:1011B000D2689047DFF86C0A90F8BC00032807D18A
:1011C0009848006800F020FFDFF8000600F074FF88
:1011D00002F002F9DFF8CC1ADFF84C0C02F015F936
:1011E00002F00AF9C82002F0B4F9FFF769FF01BD67
:1011F0008402002080B50920854988700720844931
:10120000C870DFF8200A90F8BE008149496808706C
:10121000DFF8100A90F8C0007D4949684870DFF88F
:10122000040A90F8C2007A4949688870DFF8F40926
:1012300090F8C60076494968C870DFF8E80990F868
:10124000C100734949680871DFF8D80990F8C300F4
:101250006F4949684871DFF8CC0990F8C7006C49BC
:1012600049688871DFF8BC0990F8BC00022806D1F3
:101270006848006800F0C8FE674800F01DFFDFF80E
:10128000A40990F8BC00012809D1644800F0BCFE14
:101290006248C178891D6148614AD2689047DFF889
:1012A000840990F8BC00032807D15E48006800F06C
:1012B000ABFEDFF8EC0900F0FFFE01BD80B50A20AF
:1012C000534988700F205249C870DFF85809B0F8A8
