:020000040802F0
:10000000D8910020BDEF020821E7020823E702088B
:100010002DE702082FE7020831E702080000000080
:1000200000000000000000000000000033E70208AC
:1000300035E70208000000002785020837E70208BC
:1000400099F002089DF00208A1F00208A5F002084C
:10005000A9F00208ADF00208B1F00208B5F00208FC
:10006000B9F00208BDF00208C1F00208C5F00208AC
:10007000C9F00208CDF00208D1F0020889E70208B1
:10008000D5F0020899E70208D9F00208DDF002086D
:10009000E1F00208E5F00208E9F00208EDF00208DC
:1000A000F1F00208F5F00208F9F00208FDF002088C
:1000B000A9E7020801F1020805F1020809F10208A6
:1000C0000DF1020811F1020815F1020819F10208F8
:1000D0001DF1020821F1020879E7020825F1020862
:1000E00029F102082DF1020831F1020835F1020868
:1000F00039F102083DF1020841F1020845F1020818
:1001000049F102084DF1020851F1020855F10208C7
:1001100069E7020859F102085DF1020861F102087D
:1001200065F1020869F102086DF1020871F1020837
:1001300075F1020879F102087DF1020881F10208E7
:1001400085F1020889F102088DF1020853E70208DF
:1001500091F1020895F1020899F102089DF1020857
:10016000A1F10208A5F10208A9F10208ADF1020807
:10017000B1F10208B5F10208B9F10208BDF10208B7
:10018000C1F10208C5F1020800219020DFF8202DFE
:1001900050730020DFF8182D9073DFF8B00A90F844
:1001A0006800DFF80C2DD073DFF8A00A90F8670024
:1001B000DFF8FC2C1074DFF8940AB0F86C0080B201
:1001C000000ADFF8EC2C5074DFF8800AB0F86C00FD
:1001D000DFF8DC2C9074DFF8740AB0F86E0080B29F
:1001E000000ADFF8CC2CD074DFF8600AB0F86E009B
:1001F000DFF8BC2C1075DFF8540AB0F8700080B23C
:10020000000ADFF8AC2C5075DFF8400AB0F8700037
:10021000DFF89C2C9075DFF8340AB0F8720080B2D9
:10022000000ADFF88C2CD075DFF8200AB0F87200D5
:10023000DFF87C2C1076DFF8140AB0F8740080B276
:10024000000ADFF86C2C5076DFF8000AB0F8740072
:10025000DFF85C2C9076DFF8F409B0F85000A0F2DB
:100260004C40C92802D251F4007102E04FF6FF5011
:100270000140DFF8D809B0F85200A0F24C40C9287C
:1002800002D251F4807102E04FF6FF600140DFF8C6
:10029000BC09B0F85400B0F5FA70652802D251F0EC
:1002A000800102E04FF67F700140DFF8A009B0F84E
:1002B0005600B0F5FA70652802D251F0400102E014
:1002C0004FF6BF700140DFF88409B0F85800B0F570
:1002D000FA70652802D251F0200102E04FF6DF707B
:1002E0000140DFF86809B0F85A00B0F59670972819
:1002F00002D251F0100102E04FF6EF700140DFF83A
:100300004C09B0F85C00B4385B2802D251F0080107
:1003100002E04FF6F7700140DFF83009B0F86000F6
:10032000B0F5966040F22132904202D251F00401C1
:1003300002E04FF6FB700140DFF81009B0F85E00F4
:100340006438562802D251F0020102E04FF6FD70E7
:100350000140DFF8F808B0F862004138382802D2CE
:1003600051F0010102E04FF6FE700140080080B23A
:10037000000ADFF83C2BD076DFF8340B0177DFF88A
:10038000CC08B0F8500080B2000ADFF8241B487790
:10039000DFF8B808B0F85000DFF8141B8877DFF8F2
:1003A000AC08B0F8520080B2000ADFF8041BC8772E
:1003B000DFF89808B0F85200DFF8F41A81F820004E
:1003C000DFF88808B0F8540080B2000ADFF8E01ABD
:1003D00081F82100DFF87408B0F85400DFF8D01A73
:1003E00081F82200DFF86408B0F8560080B2000AF5
:1003F000DFF8BC1A81F82300DFF85008B0F8560087
:10040000DFF8AC1A81F82400DFF84008B0F8580093
:1004100080B2000ADFF8981A81F82500DFF82C086E
:10042000B0F85800DFF8881A81F82600DFF81C08B9
:10043000B0F85A0080B2000ADFF8741A81F8270079
:10044000DFF80808B0F85A00DFF8641A81F82800CD
:10045000DFF8F807B0F85C0080B2000ADFF8501A45
:1004600081F82900DFF8E407B0F85C00DFF8401AF3
:1004700081F82A00DFF8D407B0F8600080B2000AE3
:10048000DFF82C1A81F82B00DFF8C007B0F8600005
:10049000DFF81C1A81F82C00DFF8B007B0F85E0016
:1004A00080B2000ADFF8081A81F82D00DFF89C07F7
:1004B000B0F85E00DFF8F81981F82E00DFF88C073D
:1004C000B0F8620080B2000ADFF8E41981F82F006A
:1004D000DFF87807B0F86200DFF8D41981F830004F
:1004E000704780B5A020DFF8CC1988703120DFF884
:1004F000C419C870DFF8B809DFF8B8194860DFF828
:100500004C0790F88600022808D1DFF8AC09006893
:1005100001F01BF8DFF8A40901F072F8DFF82C07EE
:1005200090F8860001280DD1DFF8940901F00DF84C
:10053000DFF88C09C178891DDFF88409DFF8842988
:10054000D2689047DFF8040790F88600032808D1A6
:10055000DFF87409006800F0F8FFDFF8840D01F09F
:100560004FF801BD80B5DFF86409406800781B28AA
:100570007DD16820DFF83C190870DFF83809007871
:10058000DFF83C1908700420DFF828194870DFF8FC
:1005900024094078DFF8281948700520DFF814197D
:1005A0008870DFF810098078DFF81419887004204B
:1005B000DFF80019C870DFF8FC08C078DFF8001910
:1005C000C8701B20DFF8EC1849680870DFF8E408F1
:1005D00040680078DFF8E81808719020DFF8D41838
:1005E00049684870DFF8CC0840684078DFF8D018D8
:1005F00048710020DFF8BC1849688870DFF8B4083B
:1006000040688078DFF8B8188871DFF8B40841785E
:10061000DFF8AC0880784118DFF8A408C0784118EA
:10062000DFF89C0800794118DFF8940840794118F8
:10063000DFF88C0880794118DFF878080172DFF85C
:100640007408007ADFF87818C8711620DFF864188B
:100650004872DFF86008407ADFF8641808720921F0
:10066000DFF85C08DFF85C28D268904743E001209F
:10067000DFF8401888700220DFF83818C870902022
:10068000DFF83018496808700020DFF8281849683A
:100690004870DFF8B80590F88600022808D1DFF826
:1006A0001808006800F051FFDFF8100800F0A8FFFC
:1006B000DFF8980590F8860001280DD1DFF80008D2
:1006C00000F043FFDFF8F807C178891DDFF8F00775
:1006D000DFF8F027D2689047DFF8700590F88600C1
:1006E000032808D1DFF8E007006800F02EFFDFF8EC
:1006F000F00B00F085FF01BD10B50220DFF8B41744
:1007000088701320DFF8AC17C8700B22DFF8A0192F
:10071000DFF8A0074468200001F0EAF80822DFF8BB
:100720009419DFF89007406810F10B04200001F0E5
:10073000DFF8DFF8180590F88600022808D1DFF806
:100740007807006800F001FFDFF8700700F058FF3D
:10075000DFF8F80490F8860001280DD1DFF8600773
:1007600000F0F3FEDFF85807C178891DDFF8500765
:10077000DFF85027D2689047DFF8D00490F8860061
:10078000032808D1DFF84007006800F0DEFEDFF83C
:10079000500B00F035FF10BD80B50320DFF81417B3
:1007A00088700220DFF80C17C8709020DFF804175B
:1007B000496808700020DFF8FC1649684870DFF8C7
:1007C0008C0490F88600022808D1DFF8EC06006857
:1007D00000F0BBFEDFF8E40600F012FFDFF86C0467
:1007E00090F8860001280DD1DFF8D40600F0ADFEA8
:1007F000DFF8CC06C178891DDFF8C406DFF8C4260F
:10080000D2689047DFF8440490F88600032808D1A6
:10081000DFF8B406006800F098FEDFF8C40A00F0C4
:10082000EFFE01BD80B5DFF8A406406801F0C2F913
:100830000420DFF8801688700120DFF87816C87071
:100840000120DFF8701649680870DFF8000490F89E
:100850008600022808D1DFF86006006800F075FE07
:10086000DFF8580600F0CCFEDFF8E00390F88600D1
:1008700001280DD1DFF8480600F067FEDFF84006DA
:10088000C178891DDFF83806DFF83826D26890472E
:10089000DFF8B80390F88600032808D1DFF82806AF
:1008A000006800F052FEDFF8380A00F0A9FE01BD32
:1008B00080B50520DFF8FC1588700120DFF8F415FD
:1008C000C8700120DFF8EC1549680870DFF87C0378
:1008D00090F88600022808D1DFF8DC05006800F0F7
:1008E00034FEDFF8D80500F08BFEDFF8600390F8E7
:1008F000860001280DD1DFF8C80500F026FEDFF8DC
:10090000C005C178891DDFF8B805DFF8B825D268C1
:100910009047CE4890F88600032808D1DFF8A80554
:10092000006800F012FEDFF8D40C00F069FE01BD93
:1009300080B50620DFF87C1588700120DFF874157B
:10094000C8700120DFF86C1549680870BF4890F83E
:100950008600022808D1DFF86005006800F0F5FD88
:10096000DFF8580500F04CFEB84890F886000128E2
:100970000DD1DFF84C0500F0E8FDDFF84405C17843
:10098000891DDFF83C05DFF83C25D2689047AF4869
:1009900090F88600032808D1DFF82C05006800F0E5
:1009A000D4FDDFF8580C00F02BFE01BD80B5072008
:1009B000DFF8001588700120DFF8F814C8700120F6
:1009C000DFF8F01449680870A04890F88600022803
:1009D00008D1DFF8E404006800F0B7FDDFF8DC04BC
:1009E00000F00EFE994890F8860001280DD1DFF83E
:1009F000D00400F0AAFDDFF8C804C178891DDFF833
:100A0000C004DFF8C024D2689047904890F8860070
:100A1000032808D1DFF8B004006800F096FDDFF885
:100A2000DC0B00F0EDFD01BDDFF8680ADFF8201DEA
:100A30000860704780B5DFF89404406800781D288E
:100A40005DD16820DFF86C140870DFF86804007866
:100A5000DFF86C1408700420DFF858144870DFF8D1
:100A600054044078DFF8581448700620DFF8441426
:100A70008870DFF840048078DFF844148870022022
:100A8000DFF83014C870DFF82C04C078DFF83014B9
:100A9000C8701E20DFF81C1449680870DFF81404C1
:100AA00040680078DFF818140871DFF81404417802
:100AB000DFF80C0480784118DFF80404C07841188E
:100AC000DFF8FC0300794118DFF8E8030172DFF872
:100AD000E403007ADFF8E81348711620DFF8D41336
:100AE0004872DFF8D003407ADFF8D4138871072109
:100AF000DFF8CC03DFF8CC23D26890473BE0082036
:100B0000DFF8B01388700120DFF8A813C870012047
:100B1000DFF8A013496808704C4890F88600022856
:100B200008D1DFF89403006800F00FFDDFF88C03B4
:100B300000F066FD454890F8860001280DD1DFF8E9
:100B4000800300F002FDDFF87803C178891DDFF82B
:100B50007003DFF87023D26890473C4890F8860015
:100B6000032808D1DFF86003006800F0EEFCDFF82E
:100B7000700700F045FD01F035F8DFF8A41ADFF842
:100B8000D40B01F048F801F03DF8C82001F0E7F877
:100B9000FFF74AFF01BD80B50920C64988700720CC
:100BA000C449C870294890F88800C249496808704B
:100BB000264890F88A00BF4949684870234890F851
:100BC0008C00BC4949688870204890F89000B94969
:100BD0004968C8701D4890F88B00B649496808718B
:100BE0001A4890F88D00B34949684871174890F841
:100BF0009100B04949688871144890F8860002282D
:100C000006D1AD48006800F0A0FCAC4800F0F8FC4C
:100C10000E4890F88600012809D1A94800F095FCFB
:100C2000A748C178891DA648A64AD26890470748B8
:100C300090F88600032807D1A348006800F085FCDF
:100C4000DFF8B80900F0DCFC01BD00000000002066
:100C500080B50A20974988700A209649C870DFF845
:100C6000F80AB0F86C0080B2000A9249496808702E
:100C7000DFF8E40AB0F86C008E4949684870DFF884
:100C8000D80AB0F86E0080B2000A8A4949688870B4
:100C9000DFF8C40AB0F86E0086494968C870DFF80A
:100CA000B80AB0F8700080B2000A82494968087139
:100CB000DFF8A40AB0F870007E4949684871DFF88F
:100CC000980AB0F8720080B2000A7A4949688871BF
:100CD000DFF8840AB0F8720076494968C871DFF815
:100CE000780AB0F8740080B2000A72494968087244
:100CF000DFF8640AB0F874006E4949684872DFF89A
:100D0000580A90F88600022806D16B48006800F067
:100D10001CFC6A4800F074FCDFF83C0A90F886007E
:100D2000012809D1664800F010FC6548C178891D8A
:100D30006348644AD2689047DFF81C0A90F886003E
:100D4000032807D16048006800F0FFFBDFF8AC081B
:100D500000F056FC01BD80B50B205649887002207A
:100D60005449C870DFF8F00990F88E00514949687D
:100D70000870DFF8E40990F88F004E494968487020
:100D8000DFF8D40990F88A00002808D04948406864
:100D9000007850F0800047494968087007E04548EE
:100DA0004068007810F07F00424949680870DFF819
:100DB000A80990F88B00002808D03E484068407889
:100DC00050F080003B494968487007E03948406866
:100DD000407810F07F00374949684870DFF878099B
:100DE00090F88600022806D13348006800F0ADFB79
:100DF000324800F005FCDFF8600990F88600012811
:100E000009D12F4800F0A1FB2D48C178891D2C483D
:100E10002C4AD2689047DFF8400990F886000328F2
:100E200007D12948006800F090FBDFF8D00700F0F8
:100E3000E7FB01BD80B5254840680078DFF8181948
:100E400081F867000C201B49887001201949C8707F
:100E50000120184949680870DFF8FC0890F88600FE
:100E6000022806D11448006800F06FFB134800F018
:100E7000C7FBDFF8E40890F88600012809D1104884
:100E800000F063FB0E48C178891D0D480D4AD268F9
:100E90009047DFF8C40890F88600032807D10A4875
:100EA000006800F052FBDFF8540700F0A9FB01BD19
:100EB000280100205802002084020020A060024087
:100EC000AC6F002008020020740200204C020020B9
:100ED00080B50D20DFF8F41988701420DFF8EC19C4
:100EE000C870DFF87408B0F8500080B2000ADFF86C
:100EF000DC1949680870DFF86008B0F85000DFF8C6
:100F0000CC1949684870DFF85008B0F8520080B238
:100F1000000ADFF8B81949688870DFF83C08B0F8B3
:100F20005200DFF8A8194968C870DFF82C08B0F83B
:100F3000540080B2000ADFF8941949680871DFF89C
:100F40001808B0F85400DFF8841949684871DFF8D0
:100F50000808B0F8560080B2000ADFF87019496836
:100F60008871DFF8F407B0F85600DFF860194968B7
:100F7000C871DFF8E407B0F8580080B2000ADFF863
:100F80004C1949680872DFF8D007B0F85800DFF84C
:100F90003C1949684872DFF8C007B0F85A0080B2BF
:100FA000000ADFF8281949688872DFF8AC07B0F842
:100FB0005A00DFF818194968C872DFF89C07B0F8C2
:100FC0005C0080B2000ADFF8041949680873DFF892
:100FD0008807B0F85C00DFF8F41849684873DFF858
:100FE0007807B0F8600080B2000ADFF8E0184968BE
:100FF0008873DFF86407B0F86000DFF8D01849683C
:10100000C873DFF85407B0F85E0080B2000ADFF85A
:10101000BC1849680874DFF84007B0F85E00DFF8D4
:10102000AC1849684874DFF83007B0F8620080B245
:10103000000ADFF8981849688874DFF81C07B0F8D0
:101040006200DFF888184968C874DFF80C0790F868
:101050008600022808D1DFF87808006800F075FAE9
:10106000DFF8700800F0CCFADFF8EC0690F88600A4
:1010700001280DD1DFF8600800F067FADFF85808A2
:10108000C178891DDFF85008DFF85028D2689047F2
:10109000DFF8C40690F88600032808D1DFF840087E
:1010A000006800F052FADFF8540500F0A9FA01BD1B
:1010B000400200206402002080B500F04FFF0E20A7
:1010C000DFF8081888700820DFF80018C870DFF80B
:1010D0008806B0F8480080B2000ADFF8F0174968C7
:1010E0000870DFF87406B0F84800DFF8E0174968C8
:1010F0004870DFF86406B0F84A0080B2000ADFF8F2
:10110000CC1749688870DFF85006B0F84A00DFF85D
:10111000BC174968C870DFF84006B0F84C0080B2D0
:10112000000ADFF8A81749680871DFF82C06B0F844
:101130004C00DFF8981749684871DFF81C06B0F8D2
:101140004E0080B2000ADFF8841749688871DFF822
:101150000806B0F84E00DFF874174968C871DFF868
:10116000F80590F8860001280DD1DFF86C0700F033
:10117000ECF9DFF86407C178891DDFF85C07DFF858
:101180005C27D2689047DFF8D00590F886000228E7
:1011900008D1DFF83C07006800F0D7F9DFF8340722
:1011A00000F02EFADFF8B00590F88600032808D189
:1011B000DFF82C07006800F0C8F9DFF8400400F001
:1011C0001FFA01BD80B54FF40041DFF8180701F0A8
:1011D0000DFA0F20DFF8F41688700120DFF8EC1606
:1011E000C8700120DFF8E41649680870DFF8680568
:1011F00090F88600022808D1DFF8D406006800F0D5
:10120000A4F9DFF8D00600F0FBF9DFF84C0590F800
:10121000860001280DD1DFF8C00600F096F9DFF84E
:10122000B806C178891DDFF8B006DFF8B026D268AD
:101230009047DFF8240590F88600032808D1DFF8EE
:10124000A006006800F081F9DFF8B00300F0D8F9DB
:1012500001BD80B54FF40041DFF8880601F0C4F904
:101260001020DFF8681688700120DFF86016C8705B
:101270000120DFF8581649680870DFF8DC0490F8A0
:101280008600022808D1DFF84806006800F05DF902
:10129000DFF8400600F0B4F9DFF8BC0490F88600EF
:1012A00001280DD1DFF8300600F04FF9DFF82806ED
:1012B000C178891DDFF82006DFF82026D268904724
:1012C000DFF8940490F88600032807D1DFF81006B1
:1012D000006800F03AF9C94800F092F901BD000039
:1012E0007060024080B54FF48041DFF8F80501F0EE
:1012F0007DF91120DFF8D41588700120DFF8CC15B6
:10130000C8700120DFF8C41549680870DFF8480488
:1013100090F88600022808D1DFF8B405006800F0D4
:1013200014F9DFF8B00500F06BF9DFF82C0490F841
:10133000860001280DD1DFF8A00500F006F9DFF8DE
:101340009805C178891DDFF89005DFF89025D268EF
:101350009047DFF8040490F88600032807D1DFF8EF
:101360008005006800F0F1F8A44800F049F901BDDB
:1013700080B54FF48041DFF86C0501F035F912209B
:10138000DFF8481588700120DFF84015C87001208B
:10139000DFF8381549680870DFF8BC0390F886005C
:1013A000022808D1DFF82805006800F0CEF8DFF841
:1013B000240500F025F9DFF8A00390F88600012845
:1013C0000DD1DFF8140500F0C0F8DFF80C05C17886
:1013D000891DDFF80405DFF80425D2689047DFF89F
:1013E000780390F88600032807D1DFF8F40400683A
:1013F00000F0ABF8814800F003F901BD80B5DFF8DB
:10140000E804406801F01EFA01BD80B5DFF8D80499
:10141000406801F086FB01BD80B5F020DFF8AC1418
:1014200088700120DFF8A414C870F020DFF89C1445
:1014300049680870C84890F88600022808D1DFF88B
:101440009004006800F081F8DFF8880400F0D8F814
:10145000C14890F8860001280DD1DFF87C0400F027
:1014600074F8DFF87404C178891DDFF86C04DFF8C4
:101470006C24D2689047B84890F88600032807D1BA
:10148000DFF85C04006800F060F85C4800F0B8F831
:1014900001BD00000400FA05DFF84C044068007844
:1014A000C00703D50120AC49087002E00020AA491A
:1014B0000870DFF8340440680078800704D5012004
:1014C000A54981F8870003E00020A34981F887003F
:1014D000DFF8140440680078400704D501209E49D5
:1014E00081F8660003E000209B4981F86600DFF880
:1014F000F80340680078000704D50120964981F878
:101500006A0003E00020944981F86A00DFF8D803FC
:1015100040680078C00604D501208F4981F8760024
:1015200003E000208C4981F87600DFF8BC034068B6
:101530000078800604D50120874981F89A0003E0ED
:101540000020854981F89A00704710B40021DFF827
:101550007C134A78DFF8741389788A18DFF86C13E3
:10156000C9788A18DFF864130A7200220DE0DFF8E8
:101570005C130B7ADFF8541349681400E4B2095D78
:10158000CB18DFF848130B72521C1100DFF83C3304
:10159000DB78C9B29942EAD3DFF8301309780170D9
:1015A000DFF8281349784170DFF8201389788170BB
:1015B000DFF81813C978C170002107E0DFF80C23A9
:1015C0005268525C00EB01031A71491CDFF8FC22DF
:1015D000D2789142F2DBDFF8F412097ADFF8EC22DC
:1015E000D27802441171DFF8E412497ADFF8DC2284
:1015F000D2781044417110BC704700007060024006
:1016000010B50400DFF8C402C178891D89B220003A
:1016100002F041F80121200002F030F810BD000076
:10162000BBBBAAAA30B400220378DFF8BC42237007
:10163000401C0378DFF8B0426370401C0378DFF889
:10164000A842A370401C0378DFF89C42E370401C62
:10165000002306E00478DFF890526D68EC54401CDB
:101660005B1C0C00E4B2A41FA342F3DB0178DFF89B
:1016700078321972401C0078DFF86C124872DFF87B
:10168000680240788218DFF8600280788218DFF8FC
:101690005802C0788218002105E0DFF84C0240684B
:1016A000405C8218491CDFF84002C0788142F4DBBC
:1016B000DFF83402007868281ED1DFF82C02407869
:1016C000042819D1DFF820028078032814D1DFF82C
:1016D0001802C07802280FD1DFF80C0240680078A9
:1016E0001B2801D1012031E0DFF8FC0140680078BF
:1016F0001D2801D1012029E0DFF8EC0100786828DD
:1017000023D1DFF8E401407804281ED1DFF8D801A6
:10171000407A162819D1DFF8D001007AD2B282427D
:1017200013D1DFF8C4018078132804D0DFF8B801A2
:101730008078142807D1002000E0401CDFF8A811B1
:10174000C9788842F9DB012000E0002030BC7047F6
:101750000CED00E000000C080000002080B5DFF870
:101760008801807803280FD15F48406800781B28E3
:1017700002D101205C4988705B48406800781D28D0
:1017800002D10820584988705748807801282DD008
:1017900002282ED003282FD0042830D0052831D09D
:1017A000062832D0072833D0082834D0092835D06D
:1017B0000A2836D00B2837D00C2838D00D2839D03D
:1017C0000E283AD00F283BD010283CD011283DD00D
:1017D00012283ED013283FD0142858D0A02802D079
:1017E000FF286CD06EE0FEF77CFE6DE0FEF7BAFEDF
:1017F0006AE0FEF781FF67E0FEF7CEFF64E0FFF7E7
:1018000011F861E0FFF754F85EE0FFF791F85BE054
:10181000FFF7CCF858E0FFF70DF955E0FFF7BBF9FB
:1018200052E0FFF715FA4FE0FFF795FA4CE0FFF7AB
:1018300001FB49E0FFF74CFB46E0FFF73DFC43E0CE
:10184000FFF7C0FC40E0FFF704FD3DE0FFF74AFD75
:101850003AE0FFF78DFD37E0012024494870002071
:101860002249887000202149487100201F490871D1
:1018700000201E49C87100201C49C87201201B4964
:101880000872002019498881FFF7B8FD1CE000208C
:101890001649487001201549887000201349487185
:1018A00000201249087100201049C87101200F4919
:1018B000087200200D498881FFF7A7FD04E0FFF7BB
:1018C000EBFD01E0FFF7A8FD01BD0000580200207C
:1018D00084020020A0600240AC6F002008020020BB
:1018E00074020020001802404C020020000000207A
:1018F00062B38B0708D0521E11F8013B00F8013B80
:1019000000F024808B07F6D1830740F0208000BFD1
:10191000103A07D330B4B1E83810103AA0E83810C4
:10192000F9D230BC530724BFB1E80810A0E8081072
:1019300044BF51F8043B40F8043BD20724BF31F8C0
:10194000022B20F8022B44BF0B7803707047121F44
:1019500017D35B0009D151F8043B20F8023B1B0C64
:10196000121F20F8023BF6D20BE051F8043B00F8BE
:10197000013B1B0A20F8023B1B0C121F00F8013B25
:10198000F3D238BF121D521E24BF11F8013B00F8DC
:10199000013BF8D8704770477047704770477047F1
:1019A00070477047E0B50121102001F076FF4FF439
:1019B0000060009001208DF8040003208DF80500E0
:1019C00001208DF8060000208DF807006946834845
:1019D00000F0AEFD07BDE0B50121102001F05DFF74
:1019E0004FF40060009000208DF8040003208DF873
:1019F000050001208DF8060000208DF807006946DB
:101A0000764800F095FD07BD10B5FFF7CBFF4FF40A
:101A10000061724800F0E8FDC82000F0C6F94FF4FC
:101A200000616E4800F0E2FD4FF4167000F0BDF961
:101A3000FFF7D1FF3C2000F0B8F94FF40061674890
:101A400000F0C8FD04004FF4967000F0AEF92000DD
:101A5000C0B210BD38B50400FFF7A4FF002522E096
:101A60004FF400615D4800F0C1FD16E04FF40061E5
:101A70005A4800F0B9FD022000F097F94FF40061D8
:101A8000564800F0B3FD0A2000F08FF9E007E7D5D3
:101A90004FF40061514800F0A7FD3C2000F085F9AB
:101AA000E4B264086D1C082DE0DB31BD70B5002484
:101AB0000125002625E0AC431EE0FFF773FF4FF43D
:101AC0000061464800F090FD022000F06EF94FF4EE
:101AD0000061424800F08AFD022000F066F9FFF73D
:101AE0007AFF052000F061F94FF400613B4800F0F7
:101AF00071FD0028DFD02C433C2000F056F96D002A
:101B0000761C082ED9DB2000C0B270BD70B5040071
:101B10000D00FFF779FF002801D0012049E0CC201B
:101B2000FFF798FF0F20FFF795FF2000C0B2FFF7E7
:101B300091FF0020FFF78EFF002605E03000C0B2C5
:101B4000285CFFF787FF761C3000C0B20828F5DB61
:101B5000FFF7ACFF0500FFF7A9FF55EA0025FFF7E7
:101B600053FF002801D0012023E0CC20FFF772FFB3
:101B70005520FFF76FFF2000C0B2FFF76BFF00207A
:101B8000FFF768FF0720FFF765FF4FF40061134878
:101B900000F02AFD4FF4487000F007F9FFF786FFC8
:101BA00080B2AA2804D14FF400610C4800F01CFD5B
:101BB000002070BD10B5002106E00278084B0C0033
:101BC000E4B21A55401C491C0A00D2B2102AF4DBB8
:101BD00003490020FFF79AFF10BD000000100240EB
:101BE00098700020DFF8D4000068002809D5DFF8DD
:101BF000D000DFF8D0100860DFF8CC00DFF8C410A8
:101C000008607047DFF8B400006850F00040DFF86B
:101C1000AC100860704738B504000D00092000F0D2
:101C200057F80100C9B2092922D1DFF890000068F5
:101C300030F44070DFF884100860DFF8800000683E
:101C400050F40070DFF874100860DFF8700000686E
:101C500050F00100DFF864100860256000F038F8EB
:101C6000DFF85810096849084900DFF85020116072
:101C7000C0B232BD092015480068C00301D501205B
:101C800019E012480068C00601D5062013E00F488D
:101C90000068C00501D502200DE00C48006810F076
:101CA000E00F01D0072006E008480068800701D552
:101CB000082000E00920C0B270470000103C02403C
:101CC00023016745043C0240AB89EFCD0C3C024048
:101CD00080B509208DF80000FFF7CCFF8DF80000DB
:101CE00003E0FFF7C7FF8DF800009DF80000012812
:101CF000F7D09DF8000002BD020052B2002A08D5BC
:101D000009013A4A40B210F00F00104400F8041CD8
:101D100003E00901364A40B21154704780B5411EB4
:101D2000B1F1807F01D301200EE0401E31490860EF
:101D30000F215FF0FF30FFF7DFFF00202E49086022
:101D400007202E490860002002BD80B545F208201A
:101D5000FFF7E4FF7FF0040001F036FE01BD01B59E
:101D6000009800F00FF800F013F80028FBD101BD37
:101D700023480068002804D021480068401E2049FC
:101D80000860704701B400981D49086001B07047B1
:101D90001B480068704780B5684601F0ACFF01BD84
:101DA00080B5684601F0D7FF01BD70B50400A4B24C
:101DB000152044430F4805680F480668FFF7EBFFFE
:101DC0000D480068002801D10B480068B042F7D0E8
:101DD000B04203D2301AA042F2D303E0281A3018DE
:101DE000A042EDD3FFF7DCFF70BD000018ED00E06E
:101DF00000E400E014E000E018E000E010E000E0A3
:101E00006C71002038B58AB004000D00DFF8980628
:101E1000844204D101214FF4807001F074FDDFF899
:101E20008C06844204D101214FF4007001F06BFD57
:101E3000DFF87C06844204D101214FF4806001F078
:101E400062FD002006905FF480300790002008902B
:101E50000020099006A802F0B8FB002000900120A5
:101E60008DF8040001208DF80500002002905FF03D
:101E700070600390002004908DF814506946200093
:101E800002F07EFB0121200002F0AFFB0BB030BD61
:101E900070B48AB00021002313E0DFF818461D005B
:101EA000EDB21C22554304EB05020400E4B202EB40
:101EB000440232F8022C6C461D00EDB224F81520C5
:101EC0005B1C1A00D2B2142AE7DB00202CE06B4620
:101ED0001400E4B203EB44035B886C461500EDB2DA
:101EE00034F81540A34215D26B461400E4B233F81F
:101EF00014306C461500EDB204EB450464886D4661
:101F00001600F6B225F816406C461500EDB204EB4B
:101F100045046380521C1300DBB20400E4B2D4F128
:101F20001304A342D3DB401C0200D2B2142A01DA0C
:101F30000022F0E7022007E06A460300DBB232F835
:101F4000132011FA82F1401C0200D2B2122AF3DBF4
:101F50000909080080B20AB070BC704780B5012042
:101F6000FFF796FF02F0F0FB5FF06632DFF84835CE
:101F700002F0F8FB0022DFF8443502F0C9FCDFF87C
:101F80004025DFF8403502F0C3FCDFF83C25DFF8E0
:101F90003C3502F0E7FB0022DFF8343502F0E2FBCB
:101FA00002F0DAFDDFF82C15A1F848000220FFF757
:101FB0006FFF02F0C9FB5FF06632DFF8FC3402F01D
:101FC000D1FB0022DFF8F43402F0A2FC02000B0087
:101FD0005FF06630DFF8E01402F08EFEDFF8F824E0
:101FE000DFF8F83402F094FCDFF8F424DFF8F4347E
:101FF00002F0B8FB5FF06632DFF8EC3402F0BEFDB1
:102000000022DFF8CC3402F0ADFB02F0A5FDDFF8D2
:10201000C414A1F84A000320FFF73AFF02F094FB32
:102020005FF06632DFF8903402F09CFB0022DFF8AC
:102030008C3402F06DFCDFF88824DFF8883402F07D
:1020400067FCDFF88424DFF8843402F08BFB002285
:10205000DFF87C3402F086FB02F07EFDDFF87414BA
:10206000A1F84C000420FFF713FF02F06DFB5FF0B6
:102070006632DFF8443402F075FB0022DFF83C34AE
:1020800002F046FC02000B005FF06630DFF8281417
:1020900002F032FEDFF84024DFF8403402F038FC72
:1020A000DFF83C24DFF83C3402F05CFB5FF0663282
:1020B000DFF8343402F062FD0022DFF8143402F05D
:1020C00051FB02F049FDDFF80C14A1F84E0001BDF0
:1020D00080B50520FFF7DCFE02F036FB5FF06632CC
:1020E000DFF8D43302F03EFB0022DFF8D03302F0F9
:1020F0000FFC0022DFF8F43302F00AFC5FF0333209
:10210000DFF8EC3302F02EFB0022DFF8C43302F0DC
:1021100029FB02F021FDDFF8BC13A1F85A000620CC
:10212000FFF7B6FE02F010FB5FF06632DFF888338F
:1021300002F018FB0022DFF8843302F0E9FB0022F2
:10214000DFF8A83302F0E4FB5FF03332DFF8A033AE
:1021500002F008FB0022DFF8783302F003FB02F004
:10216000FBFCDFF87013A1F85C000720FFF790FE7E
:1021700002F0EAFA5FF06632DFF83C3302F0F2FA7E
:102180000022DFF8383302F0C3FBDFF86823DFF802
:10219000683302F0BDFBDFF86423DFF8643302F03C
:1021A000E1FA0022DFF8283302F0DCFA02F0D4FC76
:1021B000DFF82013A1F850000820FFF769FE02F0B5
:1021C000C3FA5FF06632BC4B02F0CCFA0022BB4B84
:1021D00002F09EFB02000B005FF06630B64902F091
:1021E0008BFDC44AC44B02F093FBC64AC64B02F0B7
:1021F000B9FA5FF06632BC4B02F0C0FC0022B44B6F
:1022000002F0B0FA02F0A8FCB249A1F8520009208D
:10221000FFF73EFE02F098FA5FF06632A64B02F03E
:10222000A1FA0022A54B02F073FB0022AF4B02F093
:102230006FFB5FF03332AE4B02F094FA0022A44BF6
:1022400002F090FA02F088FCA249A1F854000A209A
:10225000FFF71EFE02F078FA5FF06632964B02F04E
:1022600081FA0022954B02F053FB00229F4B02F0B3
:102270004FFB5FF033329E4B02F074FA0022944B16
:1022800002F070FA02F068FC9249A1F856000B20A7
:10229000FFF7FEFD02F058FA5FF06632864B02F05F
:1022A00061FA0022854B02F033FB02000B005FF065
:1022B0006630814902F020FD8E4A8F4B02F028FBE8
:1022C000904A914B02F04EFA5FF06632864B02F074
:1022D00055FC00227E4B02F045FA02F03DFC7D49A0
:1022E000A1F858000C20FFF7D3FD02F02DFA5FF0A3
:1022F0006632714B02F036FA0022704B02F008FB96
:102300007C4A7D4B02F004FB804A814B02F02AFAA2
:1023100000226F4B02F026FA02F01EFC6D49A1F874
:1023200060000D20FFF7B4FD02F00EFA5FF0663298
:10233000614B02F017FA0022604B02F0E9FA00222A
:10234000744B02F0E5FA0022734B02F00BFA002204
:102350005F4B02F007FA02F0FFFB5E49A1F8620052
:102360000E20FFF795FD02F0EFF95FF06632524B59
:1023700002F0F8F90022514B02F0CAFA0022654B34
:1023800002F0C6FA0022644B02F0ECF90022504B36
:1023900002F0E8F902F0E0FB4E49A1F85E0001BD51
:1023A00070B48AB00021002210E05C4B1400E4B24B
:1023B00003EB84030400E4B203EB440333F8023C70
:1023C0006C461500EDB224F81530521C1300DBB238
:1023D000142BEADB00202CE06B461400E4B203EB84
:1023E00044035B886C461500EDB234F81540A342F7
:1023F00015D26B461400E4B233F814306C46150065
:10240000EDB204EB450464886D461600F6B225F87B
:1024100016406C461500EDB204EB45046380521C77
:102420001300DBB20400E4B2D4F11304A342D3DB03
:10243000401C0200D2B2142A01DA0022F0E7022086
:1024400007E06A460300DBB232F8132011FA82F18A
:10245000401C0200D2B2122AF3DB0909080080B244
:102460000AB070BC704780B50220FFF799FF02F0F8
:102470006BF95FF06632104B02F074F900220F4BDB
:1024800002F046FA264A274B02F078FB144A264B04
:1024900002F03EFA0022254B02F070FB02F09EFC97
:1024A0000C4981F8680001BD002001400021014075
:1024B00000220140CC51002066660A4000FEAF4079
:1024C000E17A14AE47E11040AE47E17A140E5A406B
:1024D00000005940000000205C8FC2F5285C0540D8
:1024E0007B14AE47E1AA594066660AC000002E4040
:1024F00033F34340F6285C8FC2F51340A4703D0AC5
:10250000D7E33D408FC2F5285CBF5C4085EB51B8F6
:102510001EA54C4000002440000034400C6F0020F9
:1025200052B81E85EB51E8BFE17A643F00003940A4
:1025300030B4002200220022002347E001229A400A
:102540000C681440944240D1046803251A00D2B2AA
:1025500052009540AC43046004680D791A00D2B271
:10256000520095402C4304600A79012A02D00A796E
:10257000022A1AD1846803251A00D2B2520095406B
:10258000AC43846084684D791A00D2B25200954001
:102590002C438460426801249C40A243426042680C
:1025A0008C799C40A4B222434260C46803251A007F
:1025B000D2B252009540AC43C460C468CD791A00D1
:1025C000D2B2520095402C43C4605B1C102BB5D393
:1025D00030BC70470022006989B2084201D0012056
:1025E00000E00020C0B2704701837047418370470C
:1025F000426989B251404161704770B400230023A1
:10260000D2B211F00703DBB29B009A400B009BB2E1
:10261000DB1000EB83040B009BB2DB1000EB8303A9
:102620001D6A0F2611F00703DBB29B009E40B543E5
:1026300025620B009BB2DB1000EB83031B6A1A437D
:1026400089B2C91000EB8100026270BC70470A00B9
:1026500080B51320DFF87C1788700820DFF8741726
:10266000C870DFF87407B0F8480080B2000ADFF8DD
:10267000641749680870DFF86007B0F84800DFF8B1
:10268000541749684870DFF85007B0F84A0080B224
:10269000000ADFF8401749688870DFF83C07B0F897
:1026A0004A00DFF830174968C870DFF82C07B0F827
:1026B0004C0080B2000ADFF81C1749680871DFF887
:1026C0001807B0F84C00DFF80C1749684871DFF8BC
:1026D0000807B0F84E0080B2000ADFF8F816496823
:1026E0008871DFF8F406B0F84E00DFF8E8164968A4
:1026F000C871DFF8E40690F8860001280DD1DFF8F4
:10270000DC06FEF722FFDFF8D406C178891DDFF86A
:10271000CC06DFF8CC26D268904701BDDFF8B806BA
:10272000008A6430DFF8B0160884DFF8AC06008A4F
:102730006438DFF8A4164884DFF89C06008A643009
:10274000DFF894168884DFF89006008A6438DFF892
:102750008816C884DFF88006407801281BD1DFF88E
:102760007806808A6430DFF870160885DFF868061E
:10277000808A6438DFF860164885DFF85C06808A56
:102780006430DFF854168885DFF84C06808A643898
:10279000DFF84416C885DFF84006807801281BD191
:1027A000DFF83406808A6430DFF82C160885DFF8FD
:1027B0002806808A6438DFF820164885DFF8180676
:1027C000C08A6430DFF810168885DFF80C06C08AEE
:1027D0006438DFF80416C885704730B4002300233E
:1027E0000023D2B2012A02D11D233A2401E003239F
:1027F00006240A00050092B2ADB2AA420CD21C0017
:10280000A4B20500ADB20A0092B2AD1AAC4202DA2F
:102810000800181813E012E002000B0092B29BB2FD
:102820009A420CD223009BB20D00ADB2020092B2CC
:10283000AD1AAB4202DA2000081A00E0FFE780B2CE
:1028400030BC704780B50178427852EA0122DFF847
:1028500088150A828178C27852EA0122DFF8781559
:102860004A820179427952EA0122DFF86C158A82A4
:102870008179C07950EA0120DFF85C15C882DFF861
:102880005805008AB0F5FA7041F65931884280F057
:102890004781DFF84405408AB0F5FA7041F65931B6
:1028A000884280F03D81DFF83005808AB0F5FA700B
:1028B00041F65931884280F03381DFF81C05C08A27
:1028C000B0F5FA7041F65931884280F02981012033
:1028D000DFF8041548720120DFF8FC148872DFF875
:1028E000F804407A012805D0DFF8EC04807A01284A
:1028F00040F01681DFF8E004008ADFF8DC14098B71
:10290000884207D3DFF8D004408ADFF8CC14498B23
:1029100088420FD2DFF8C004808ADFF8BC14898BAC
:10292000884215D3DFF8B004C08ADFF8AC14C98B35
:1029300088420DD3DFF8A0040078002803D0DFF828
:10294000680C02F067FA6420DFF88C14C8810DE08F
:10295000DFF884040078002803D0DFF8500C02F080
:1029600059FA4FF4FA70DFF87014C881DFF8680480
:10297000008ADFF864140883DFF85C04408ADFF81B
:1029800058144883DFF85004808ADFF84C14888399
:10299000DFF84404C08ADFF84014C883FFF7BEFEA6
:1029A0004FF40041DFF8440CFFF720FE4FF4804164
:1029B000DFF8380CFFF71AFEDFF81C04008A02F07B
:1029C0003DFADFF814140886DFF80C04408A02F0A0
:1029D0005CFADFF804144886DFF8FC03808A02F012
:1029E0002DFADFF8F4138886DFF8EC03C08A02F0D2
:1029F0004CFADFF8E413C8867FE0DFF8DC03407AA6
:102A000001283ED10122DFF8D003818FDFF8C8030F
:102A1000008EFFF7E2FEDFF8C01388870222DFF89E
:102A2000B803C18FDFF8B003408EFFF7D6FEDFF8A2
:102A3000A813C887DFF8A003818F002002F099FB5C
:102A40000121002002F07DFBDFF88C03C18EC9B2AA
:102A5000DFF88403C08FC0B202F0B5FBDFF8780363
:102A6000808FDFF87413098E88420AD1DFF868037B
:102A7000C08FDFF86413498E884202D10020D64906
:102A80004872D548807A012837D10122D248B0F85F
:102A90004010D148808EFFF7A0FECF49A1F840003A
:102AA0000222CD48B0F84210CB48C08EFFF795FE09
:102AB000C949A1F84200C848818E002002F067FB96
:102AC0000121102002F03DFBC348C18EC9B2C248AB
:102AD000C08FC0B202F077FBBF48B0F84000BE49DB
:102AE000898E884209D1BC48B0F84200BA49C98EE3
:102AF000884202D10020B8498872B748407A01283C
:102B00003FF47BAFB448807A01283FF476AF0120D0
:102B1000B14948710020B04908710020AE49C8721F
:102B200001BD80B50178427852EA0122DFF8C01A6F
:102B30000A828178C27852EA0122DFF8B41A4A8206
:102B40000179427952EA0122DFF8A41A8A82817956
:102B5000C07950EA0120DFF8981AC882DFF8900A9D
:102B6000008AB0F5FA7041F65931884280F02F8121
:102B7000DFF87C0A408AB0F5FA7041F65931884294
:102B800080F02581DFF8680A808AFA38FB2880F017
:102B90001E81DFF85C0AC08AFA38FB2880F01781B2
:102BA000DFF84C0A008ADFF8481A098B884207D1FF
:102BB000DFF83C0A408ADFF8381A498B884204D093
:102BC0000120DFF82C1A487203E00020DFF8201AF9
:102BD0004872DFF81C0A808ADFF8141A898B884251
:102BE00007D1DFF80C0AC08ADFF8041AC98B8842C3
:102BF00004D00120DFF8F819887203E00020DFF824
:102C0000F01988720120DFF8E81948720120DFF816
:102C1000E0198872DFF8D809407A012805D0DFF87A
:102C2000D009807A012840F0AE80DFF8C409008B1B
:102C3000DFF8BC19098A884207D2DFF8B409408B53
:102C4000DFF8AC19498A88420FD3DFF8A409808BDA
:102C5000DFF89C19898A884215D2DFF89409C08B65
:102C6000DFF88C19C98A88420DD2DFF88409007810
:102C7000002803D0DFF8300902F0CCF86420DFF838
:102C80007019C88137E0DFF86809008ADFF8601939
:102C9000098B884221D1DFF85809408ADFF85019A2
:102CA000498B884219D1DFF84809808ADFF840193A
:102CB000898B884211D1DFF83809C08ADFF83019D2
:102CC000C98B884209D1DFF828090078002812D082
:102CD000DFF8200902F09EF80DE0DFF81409007813
:102CE000002803D0DFF8C40802F094F84FF4FA701B
:102CF000DFF8FC18C881DFF8F808008ADFF8F01860
:102D00000883DFF8EC08408ADFF8E4184883DFF82E
:102D1000E008808ADFF8D8188883DFF8D408C08AF2
:102D2000DFF8CC18C883FFF7F9FCDFF8C408008A85
:102D300002F084F8DFF8B8180886DFF8B41888873E
:102D4000DFF8AC08408A02F0A0F8DFF8A418488643
:102D5000DFF89C18C887DFF89808808A02F0B8F876
:102D6000DFF88C180887DFF88818A1F84400DFF82E
:102D70008008C08A02F0C3F8DFF874184887DFF8CB
:102D80007018A1F8460002F067F9DFF864080078CF
:102D9000002810D0DFF85808408F0090DFF8500866
:102DA000038FDFF84C08428EDFF84408018EDFF80D
:102DB000480802F02FF80120DFF83418487100208D
:102DC000DFF82C1808710020DFF82418C87201BD44
:102DD000000000005802002000000020AC6F00201E
:102DE000080200201FB578E1DFF804080078002809
:102DF00018D0DFF8FC07B0F84E000190DFF8F007BC
:102E0000B0F84C000090DFF8E807B0F84A30DFF87F
:102E1000E007B0F84820DFF8D8078189DFF8DC0741
:102E200001F0F8FF0020DFF8C81748710120DFF833
:102E3000C017C8710020DFF8B817087143E1DFF848
:102E4000B007007800281CD0DFF8A407B0F84E00C7
:102E50000290DFF89C07B0F84C000190DFF8900773
:102E6000B0F84A000090DFF88807B0F84830DFF883
:102E700080078289DFF87807C17ADFF8840701F0DC
:102E8000C9FFDFF86C070079002800F09A80DFF8AE
:102E90006007408CDFF85817B1F8481088423ED2DE
:102EA000DFF84C07B0F84800DFF84417098C884277
:102EB00035D2DFF83C07C08CDFF83417B1F84A1080
:102EC00088422CD2DFF82807B0F84A00DFF8201734
:102ED000898C884223D2DFF81807408DDFF810175D
:102EE000B1F84C1088421AD2DFF80407B0F84C0051
:102EF000DFF8FC16098D884211D2DFF8F406C08D88
:102F0000DFF8EC16B1F84E10884208D2DFF8E00680
:102F1000B0F84E00DFF8D816898D88421DD3DFF84F
:102F2000D0060078002814D0DFF8C406B0F84E00B0
:102F30000090DFF8BC06B0F84C30DFF8B406B0F80B
:102F40004A20DFF8AC06B0F84810DFF8B80601F008
:102F500061FF0020DFF898160871DFF89406B0F8DA
:102F60004800DFF88C16B1F84C10C83988420ADBEB
:102F7000DFF87C06B0F84A00DFF87416B1F84E109E
:102F8000C83988421DDADFF868060078002814D0B6
:102F9000DFF85C06B0F84E000090DFF85406B0F899
:102FA0004C30DFF84C06B0F84A20DFF84406B0F8A1
:102FB0004810DFF8540601F02DFF0020DFF830162E
:102FC0000871DFF82C06407900287CD0DFF8200655
:102FD000C089DFF81C1689898842FFF405AFDFF845
:102FE0001006B0F84800DFF80816498C88426AD30A
:102FF000DFF8FC05008CDFF8F815B1F848108842BE
:1030000061D3DFF8EC05B0F84A00DFF8E415C98CAD
:10301000884258D3DFF8D805808CDFF8D415B1F892
:103020004A1088424FD3DFF8C805B0F84C00DFF8EB
:10303000C015498D884246D3DFF8B405008DDFF80E
:10304000B015B1F84C1088423DD3DFF8A405B0F8B4
:103050004E00DFF89C15C98D884234D3DFF8900507
:10306000808DDFF88C15B1F84E1088422BD3DFF835
:1030700080050078002818D0DFF87405B0F84E00FD
:103080000190DFF86C05B0F84C000090DFF86005A7
:10309000B0F84A30DFF85805B0F84820DFF850059E
:1030A0008189DFF8680501F0B5FE0020DFF84015E2
:1030B00048710120DFF83815C8710020DFF830159D
:1030C0000871FFF7C5FA03A80190082000900523B6
:1030D00000220021002002F079F9DFF81405C07900
:1030E00000283FF4CEAEDFF80805C07A401CDFF8B8
:1030F0000015C872DFF8F804C07A14283FDBDFF847
:10310000F004007800281CD0DFF8E404B0F84E008A
:103110000290DFF8DC04B0F84C000190DFF8D00436
:10312000B0F84A000090DFF8C804B0F84830DFF883
:10313000C0048289DFF8B804C17ADFF8D40401F052
:1031400069FEDFF8AC040078002803D0DFF8C4047F
:1031500001F060FE0020DFF8981488810020DFF87D
:10316000901408723320DFF88814C8720020DFF84A
:103170008014C8710120DFF87814087181E6DFF847
:103180007004B0F84800DFF86814098A401A02F0A9
:1031900015FA0B2861DBDFF85804B0F94800DFF8B6
:1031A0005014B1F91040041B200000B2012829DBA3
:1031B000DFF83C04808F1430B0F5805F05DB40F60B
:1031C000FF70DFF82C14888712E0200000B21F285F
:1031D00007DBDFF81C04808F0A30DFF814148887BF
:1031E00006E0DFF80C04808F401DDFF804148887A8
:1031F000DFF8FC03818F002001F0BBFF01210020DC
:1032000001F09FFF200000B2002826D5DFF8E00380
:10321000808F142804DA0020DFF8D413888712E0A6
:1032200024B214F11E0F07DADFF8C403808F0A38C6
:10323000DFF8BC13888706E0DFF8B403808F401FF7
:10324000DFF8AC138887DFF8A803818F002001F036
:1032500090FF0121002001F074FFDFF89403B0F823
:103260004A00DFF88C13498A401A02F0A7F90B28AC
:103270005CDBDFF87C03B0F94A00DFF87413B1F9C6
:103280001240041B200000B2012829DBDFF8600394
:10329000C08FC01CB0F5807F04DBFF20DFF8501327
:1032A000C88712E0200000B21F2807DBDFF84003C8
:1032B000C08F801CDFF83813C88706E0DFF83003C2
:1032C000C08F401CDFF82813C887DFF82403B0F84C
:1032D0004210C9B2DFF81803C08FC0B201F073FF0B
:1032E000200000B2002821D5DFF80403C08F032896
:1032F00004DA0020DFF8F812C8870EE024B214F1D7
:103300001E0F05DABA48C08F801EB949C88704E08D
:10331000B748C08F401EB649C887B548B0F84210BC
:10332000C9B2B348C08FC0B201F04DFFB048407879
:10333000002800F0D180AE48B0F84C00AC49898A32
:10334000401A02F03BF90B285FDBA948B0F94C00AA
:10335000A749B1F91440041B200000B2012829DB61
:10336000A348B0F840001430B0F5805F05DB40F6AC
:10337000FF709F49A1F8400012E0200000B21F2812
:1033800007DB9B48B0F840000A309949A1F840009B
:1033900006E09748B0F84000401D9549A1F840006C
:1033A0009348B0F84010002001F0F1FE01211020F8
:1033B00001F0C7FE200000B2002826D58C48B0F8E6
:1033C0004000142804DA00208949A1F8400012E0E6
:1033D00024B214F11E0F07DA8548B0F840000A380D
:1033E0008349A1F8400006E08148B0F84000401F42
:1033F0007F49A1F840007E48B0F84010002001F05D
:10340000C6FE0121102001F09CFE7948B0F84E0064
:103410007749C98A401A02F0D1F80B285CDB74485E
:10342000B0F94E007249B1F91640041B200000B2F9
:10343000012827DB6E48B0F84200C01CB0F5807F41
:1034400004DBFF206A49A1F8420012E0200000B22C
:103450001F2807DB6648B0F84200801C6449A1F8C9
:10346000420006E06248B0F84200401C6049A1F802
:1034700042005F48B0F84210C9B25D48C08FC0B288
:1034800001F0A1FE200000B2002825D55848B0F870
:103490004200032804DA00205549A1F8420012E056
:1034A00024B214F11E0F07DA5148B0F84200801E12
:1034B0004F49A1F8420006E04D48B0F84200401ED6
:1034C0004B49A1F842004A48B0F84210C9B24848F6
:1034D000C08FC0B201F077FE03A8019008200090D1
:1034E000502300220021002001F070FF4048B0F876
:1034F00048003F49498C8842FFF4A1AC3C48008C0D
:103500003B49B1F848108842FFF499AC3848B0F80C
:103510004A003749C98C8842FFF491AC3448808C0A
:103520003349B1F84A108842FFF489AC3048B0F80A
:103530004C002F49498D8842FFF481AC2C48008D06
:103540002B49B1F84C108842FFF479AC2848B0F808
:103550004E002749C98D8842FFF471AC2448808D04
:103560002349B1F84E108842FFF469ACFFF770F8B8
:103570001F48007800283FF484AC1D48B0F84E0086
:1035800002901B48B0F84C0001901948B0F84A006E
:1035900000901748B0F84830154882891448C17A1D
:1035A0001D4801F037FC6CE4CCEF0208D8EF0208AC
:1035B00080B58AB009A808900320079000200690E3
:1035C00000200590002004904FF480600390662056
:1035D000029012480190142000900023104A1149D3
:1035E000114801F0EFFF0BB000BD000000180240D1
:1035F000000000201CEF0208A8EC020864E90208A1
:10360000D8E80208D8E902081CED020828E90208F7
:1036100030E802086CEE020884E8020898020020F4
:10362000E52D02082CEF0208FC620020002203684E
:10363000514A13400A681343CA6813434A69134343
:103640008A691343CA6913430A6A13434A6A1343D4
:103650008A6A13434A6B13438A6B134303604369BB
:10366000DB08DB00CA6A13430A6B134343610A6930
:1036700042604A6882608968C1607047C9B20029A7
:1036800004D0016851F00101016003E001684908BC
:1036900049000160704789B241607047406880B25C
:1036A0007047344A904201D2344A00E0344A8800DC
:1036B00003D534480140D16002E0324801409160B6
:1036C00070470B060CD51300DBB2002B04D0436906
:1036D00053F08003436103E0436933F080034361A7
:1036E00080290ED0D2B2002A05D0026811F01E0146
:1036F0001143016005E0026811F01E0132EA010188
:10370000016070470022002200221A4A904201D232
:103710001A4B00E01A4B1C4A114206D00A00D20A8A
:1037200012F01E020068024002E0426912F08002BC
:10373000880001D55B6800E01B68124803400B421B
:1037400003D0002A01D0012000E00020C0B2704761
:10375000084A904201D2094A00E0094A880003D58C
:1037600008480140D16002E006480140916070477E
:1037700000000000106402403F801CF00060024026
:10378000006402407D0F7D0F3C0F3C0F0021DFF8ED
:10379000A02111700021DFF898211170C0B201281A
:1037A00002D0042805D009E00120DFF88411087058
:1037B00004E00520DFF878110870FFE7704700216A
:1037C00000210021022100210221DFF85C1109689B
:1037D00011F00C01002904D0042906D0082908D0D2
:1037E00033E0DFF85011016032E0DFF84C11016086
:1037F0002EE0DFF838110968C1F38051DFF82C2181
:10380000126812F03F0200290AD0DFF82C11B1FB38
:10381000F2F2DFF818110968C1F388114A4309E090
:10382000DFF81011B1FBF2F2DFF800110968C1F303
:1038300088114A43DFF8F4100968C1F30141491CBB
:103840004900B2FBF1F1016002E0DFF8E81001602D
:10385000DFF8D410096811F0F0010909DFF8DC2065
:10386000515C0268CA404260DFF8BC10096811F47C
:10387000E051890ADFF8C420515C4268CA40826086
:10388000DFF8A410096811F46041490BDFF8AC209F
:10389000515C4268CA40C2607047C9B2002907D073
:1038A000DFF89C1009680843DFF89410086007E00F
:1038B000DFF88C10096831EA0000DFF88410086036
:1038C0007047C9B2002907D0DFF8781009680843AB
:1038D000DFF87010086005E01A49096831EA000055
:1038E000184908607047C9B2002905D0164909680F
:1038F00008431549086005E01349096831EA0000EA
:10390000114908607047C9B2002905D00F490968FC
:1039100008430E49086005E00C49096831EA0000D7
:103920000A49086070470000083802400438024025
:10393000703802400024F40000127A0030020020A7
:1039400030380240343802404038024044380240A7
:1039500025490843254908607047002100210F23AD
:10396000C17800291FD02149096811F4E061D1F51F
:10397000E061090AD1F10402DBB20B41417811FA8E
:1039800002F281780B401A43120119490378CA5494
:103990000121027812F01F029140164A007840116E
:1039A00042F8201009E00121027812F01F02914034
:1039B000114A0078401142F8201070470F4A114018
:1039C00008430F4908607047042806D10D48006875
:1039D00050F004000B49086005E00A48006830F028
:1039E00004000849086070470000FA050CED00E08B
:1039F00000E400E000E100E080E100E080FFFF1F64
:103A000008ED00E010E000E010B5040002F0B7FCA3
:103A10000020DFF8481808700020DFF8441808700C
:103A20000020DFF8681808700020DFF864180860CC
:103A30000020DFF8601808600020DFF85C180870CC
:103A40000020DFF8581808700020DFF89018087080
:103A50000020DFF88C1808600020DFF88818086064
:103A60000020DFF8841808600020DFF88018087054
:103A7000DFF87C0800680A21B0FBF1F0DFF8AC1831
:103A80000860DFF8AC08006800280ED0DFF8A40852
:103A90000168002909D0DFF89808006803E0401E9B
:103AA00000220A60091D0028F9D10020DFF88818DB
:103AB00008600020DFF8841808600020DFF8801814
:103AC00008600020DFF87C1808600020DFF8781814
:103AD00008600020DFF8741808600020DFF8701814
:103AE00008600020DFF88819087002F01DFD00F062
:103AF000A0FB200002F062FD2088002845D12000B4
:103B000002F050FE208800283FD1200002F058FE2D
:103B10002088002839D1200003F076F92088002879
:103B200033D1200003F08CF9208800282DD120000B
:103B300003F008FA2088002827D1200002F0DCF8E2
:103B40002088002821D1200003F0CAFB208800280B
:103B50001BD1200000F0ADF92088002815D12000ED
:103B600003F0BCFC208800280FD1200004F0E4F80A
:103B70002088002809D1200004F050FA208800286D
:103B800003D104F05BFB04F02DFC10BDDFF8D00680
:103B9000007801280BD1DFF8C4060078FA2806DA8D
:103BA000DFF8B8060078401CDFF8B01608707047E0
:103BB00010B50020DFF8A8060078012857D104F0DE
:103BC00085FC0400DFF894060078002803D120006B
:103BD00004F080FC4BE0DFF884060078401EDFF83C
:103BE0007C160870DFF874060078002803D02000E7
:103BF00004F070FC3BE0DFF894060078002803D066
:103C0000200004F067FC32E002F098FCDFF88C162C
:103C10000870DFF86018DFF8840602780C20424351
:103C20008858DFF870160860DFF868060068DFF86B
:103C300060160968884203D1200004F04BFC16E0AE
:103C4000DFF850060068D0F88C00401CDFF84416FE
:103C50000968C1F88C00DFF8D4080068401CDFF860
:103C6000CC18086004F05BFC200004F033FC10BDAD
:103C700010B50020DFF8E405007800283AD1DFF81D
:103C80000C060078002835D104F020FC040002F076
:103C900055FCDFF808160870DFF8D817DFF8FC05C8
:103CA00002780C2042438858DFF8E8150860DFF8F6
:103CB000E4050068DFF8D8150968884203D12000C0
:103CC00004F008FC16E0DFF8CC050068D0F88C00A2
:103CD000401CDFF8C0150968C1F88C00DFF84C08FB
:103CE0000068401CDFF84418086004F014FC200051
:103CF00004F0F0FB10BD38B504000020DFF85C05CF
:103D00000078002803D046F66250208022E0DFF8D9
:103D100050050078012803D045F68960208019E01D
:103D2000DFF80C080078FA2803DB45F20920208030
:103D300010E004F0CBFB0500DFF8F4070078401C2E
:103D4000DFF8EC17087000F072FB280004F0C2FBEB
:103D50000020208031BD38B504000020DFF8FC04CD
:103D60000078002803D046F66550208030E0DFF868
:103D7000F0040078012803D045F68960208027E010
:103D8000DFF8AC070078002803D146F664502080A5
:103D90001EE004F09BFB0500DFF894070078401E4E
:103DA000DFF88C170870DFF888070078002806D045
:103DB000280004F08FFB46F66350208008E000F0F6
:103DC00040FB280004F086FBFFF752FF0020208014
:103DD00031BD70B506000C001500002004F076FB24
:103DE000F6B2012E04D00021DFF80025117003E0A7
:103DF0000121DFF8F8241170002C03D0DFF82C1516
:103E00000C6008E0DFF8E81409680A22B1FBF2F15F
:103E1000DFF81825116004F05DFB0020288070BDDC
:103E200010B50400DFF838040078002825D102F02E
:103E300085FBDFF868140870DFF860040078DFF8AD
:103E400058140870DFF82C16DFF8500402780C20A4
:103E500042438858DFF83C140860DFF838040068F3
:103E6000DFF82C1408600120DFF8F413087004F068
:103E700043FB43F69920208002E045F68A602080CB
:103E800010BD80B50020684604F020FBDFF8A416C2
:103E90000968491CDFF89C261160DFF89C16096848
:103EA000491CDFF89426116004F014FB02F05EFA5E
:103EB000EAE700B589B00021DFF8782611600890A4
:103EC0000B20079000200690002005900020049011
:103ED000DFF8680600680390DFF864060068029067
:103EE000DFF86006006801903F2000900023DFF8B3
:103EF0005826DFF85816DFF8580601F063FB09B0C2
:103F000000BD70B505000C00DFF88403006880F880
:103F100034200020DFF87813096881F83500190093
:103F2000DFF86C03006800F0ECFA002C0ED014F1FE
:103F30000806EC6001222900DFF85403006800F055
:103F400016F82900300000F083F809E00020DFF8BF
:103F500040130968C8870020DFF834130968086334
:103F6000DFF82C030168200000F01DF870BD30B4AC
:103F7000C287016300230EE000244C6000240C6023
:103F800000240C6100244C6100240C830024CC61CB
:103F9000886020315B1C1C001500A4B2ADB2AC429D
:103FA000EAD330BC7047002809D04268C1F8BC2071
:103FB00010F1080109688968096AC16113E091F884
:103FC0003400022802D0072805D009E0DFF8840574
:103FD000C1F8BC0007E0DFF88005C1F8BC0002E0D2
:103FE00009A0C1F8BC00704707A2C1F8BC2010F1BD
:103FF00008010968002903D08968096AC16101E0E4
:1040000001A1C161704700002000000070B580F878
:104010003710056BC48F0FE0E86810F1080630898F
:10402000022807D32900300000F060F82900300092
:1040300000F00EF82035641E200080B20028EBD17D
:1040400070BD0021016000214160002101817047A5
:1040500030B40200886890F837301089002808D101
:10406000012010810020486000200860116051602C
:1040700025E01089401C1081106800E0406800288D
:1040800006D084681D0094F83740EDB2A542F5D201
:10409000002806D1002048605068086041605160E7
:1040A0000DE00368002B05D1016000230B60486020
:1040B000116004E002680A6048605160016030BC31
:1040C000704770B50400266BE58F06E0F068083095
:1040D000310000F00BF820366D1E280080B2002859
:1040E000F4D10020E0870020206370BD0289012AFE
:1040F00004D1002202600022426013E00A68002A14
:1041000004D14A680023136002600BE04A68002A69
:1041100004D10A6800235360426003E00A684B68D8
:1041200053601A600289521E0281002048600020FC
:104130000860704738B504000D00049895F83610F3
:1041400000290BD002290AD008D3042906D006D3AF
:10415000062930D002D307292DD055E054E095F838
:104160003410032906D100909BB22900200000F0F2
:104170004CF803E0AA65A5F85C302864002C06D052
:104180002800FFF79EFF29002000FFF72DFF95F87C
:104190003600032802D1280003F09CFA280000F022
:1041A00061F8002085F83600002085F835000020F1
:1041B00085F8340028E095F83410032906D10090E2
:1041C0009BB22900200000F020F803E0AA65A5F8C2
:1041D0005C302864002C06D02800FFF772FF29000D
:1041E0002000FFF701FF95F83600072802D12800CC
:1041F00003F070FA042085F83600002085F83500B9
:10420000002085F83400FFE731BD30B40D6BCC8F52
:1042100001E02035641E210089B2002907D0E96839
:104220008842F6D1029928616A612B83E96130BC2A
:10423000704700210DE08F4A0B00DBB20C20434396
:1042400002EB030000220281002202600022426091
:10425000491C0800C0B24028EDD37047C17100204E
:10426000C271002010B5040094F8370002F076F90E
:1042700094F8370008490978884203D1200000F0FB
:1042800039F802E0200000F00BF810BDC6710020E4
:104290006471002068710020C3710020C471002087
:1042A000744A90F837300C214B431A441189002985
:1042B00008D1012111810021C1600021016110603C
:1042C000506009E01189491C11811168C160002109
:1042D000016111680861106070470000C57100201D
:1042E000187100201C71002020710020C77100206F
:1042F00060F002085F4A90F837300C214B431A44B3
:104300001189002908D1012111810021C1600021FA
:1043100001611060506008E01189491C1181002181
:10432000C16051680161C86050607047247100200D
:1043300038F0020834F00208DC700020E070002041
:10434000E4700020E8700020EC700020F070002085
:10435000F470002010B40189002902D0022901D094
:104360000BD215E0016842680A610023CB6000238C
:104370001361D160026041600AE001684268CB6865
:1043800000241C610024CC600A61D160036041609C
:1043900010BC704710B50400364994F837200C2043
:1043A00042430A442169E068002913D100280AD158
:1043B00000201081002010600020506094F8370029
:1043C00002F0E2F80FE01189491E1181002101611C
:1043D000106008E013895B1E1381C860002801D1BA
:1043E000516000E00161002020610020E06010BD0C
:1043F00010B5002004F06AF8040000205749087046
:1044000057485849086057480068D0F88C00401C4D
:1044100054490968C1F88C0044480068401C43496D
:10442000086004F078F8200004F054F810BD80B55E
:104430003F480078012803D104F0C4F84A490860D5
:1044400001BD80B53A480078002810D104F0BAF8D0
:1044500045490968411A45480068884201D24348E5
:10446000016043480068884201D24148016001BDB3
:10447000CA710020CC4E002038B5040000203D4811
:10448000007801283CD104F021F8050021680029BA
:1044900003D1280004F01EF832E02D48814203D1F8
:1044A000280004F017F82BE0486D002802D0486D72
:1044B000401E4865486D002803D0280004F00AF823
:1044C0001EE02089022803DA280004F003F817E030
:1044D00017480078002803D0280003F0FBFF0FE006
:1044E0002000FFF737FF2168086D002803D122481C
:1044F0000068486501E0086D4865280003F0EAFFA0
:1045000031BD10B504000A00002A07D021001B4865
:1045100003F044F8032084F8360002E0022084F817
:1045200036002000FFF736FF10BD00003C71002070
:10453000C6710020F87000202C71002014F00208D1
:1045400010F002080CF00208833E0208A8EE0208F0
:10455000BC690020FCEF0208E4EF0208C4710020EF
:104560007C6A002068710020187100201C710020F6
:1045700020710020C771002024710020C470002029
:1045800010B40022002344686B4A14400A7954EAAC
:1045900002240A68144344608468684A14400A6923
:1045A0001443CA6814438A6814434A7954EA42049B
:1045B0008460C26A32F47002097D491E0B43DBB28B
:1045C00052EA0352C26210BC704700215C490A687B
:1045D0005C490A4001680A4341680A4381680A430A
:1045E000C0680243564802607047C9B2002904D02F
:1045F000816851F00101816003E081684908490048
:1046000081607047C0B2002806D04D48006850F461
:1046100000004B49086005E04948006830F400009C
:10462000474908607047F0B4002400240C00E4B24D
:104630000A2C13DBC5680726B1F10A04032714FB13
:1046400007F416FA04F4A543DBB2B1F10A04032619
:1046500014FB06F4A3402B43C3600EE00569072654
:10466000032411FB04F416FA04F4A543DBB203247B
:1046700011FB04F4A3402B4303611300DBB2072BAF
:1046800011DA436B1F25541E052614FB06F415FA98
:1046900004F4A343C9B2521E052412FB04F2914054
:1046A0001943416327E01300DBB20D2B11DA036BD2
:1046B0001F25D41F052614FB06F415FA04F4A343A2
:1046C000C9B2D21F052412FB04F2914019430163C1
:1046D00011E0C36A1F25B2F10D04052614FB06F490
:1046E00015FA04F4A343C9B20D3A052412FB04F2EF
:1046F00091401943C162F0BC7047816851F080411C
:1047000081607047C9B2002904D0816851F480717A
:10471000816003E0816831F4807181607047C9B2C3
:10472000002904D0816851F40071816003E0816840
:1047300031F4007181607047FFFEFFFCFDF7FFC0A0
:1047400004230140E030FCFF50B1B0FA80F1884012
:10475000C91CC1F58461090501EBD02140057047F2
:104760000146704730B540F2FF7C1CEA11541DBF72
:104770001CEA1355644565453FE0641981EA030C62
:104780006FF35F530CF0004C43F48013C90241F007
:10479000004141EA505EC5021100A5FB020200285B
:1047A0004FF00000EEFB01204FF00001E3FB05217C
:1047B00018BF42F00102401800214941E3FB0E01FD
:1047C000A4F580640D0302D292184041494154F18E
:1047D000010470DD450872F1004250F1000051EB18
:1047E0000451A1F5801102D441EA0C0130BD40F220
:1047F000FF7E4CEA0E51002030BD0CEA1355644593
:1048000018BF654581EA030C0CF0004C41D050EA1A
:10481000410E1CBF52EA430E02E06146002030BD4B
:1048200024422C441BD15FEA050EF6D0090302BFD7
:1048300001460020AEF1140EB1FA81F5AEEB05048D
:1048400001FA05FE0C35C5F1200100FA05F5C84056
:104850004EEA000E6FF35F5343F480139CE733F08E
:104860000043B3FA83F504BFB2FA82FE75440B3DF0
:10487000641BB5F1200E2FBF02FA0EF3AB40C5F159
:10488000200E22FA0EFE38BF43EA0E03AA40641C33
:104890007CE750EA410E14BF52EA430E6FF000016C
:1048A0004FF4001515EB430F8EBF194615EB410F62
:1048B0009DE7B4D830BDD4F10104B4F120050FDA7E
:1048C000C4F12005520828BF42F0010210FA05FE8B
:1048D00001FA05F57244E2BFE0402843E1400FE0F1
:1048E000352C9ADCC5F1200452EA400220FA05F288
:1048F00018BF42F0010231FA05F0A1400A4300213D
:1049000072F1004250F1000051EB0C0130BD640027
:10491000F0B540F2FF7581EA030C0CF0004C15EA8B
:1049200011541DBF15EA1357AC42AF42E5E0BC413C
:10493000C1F31301C3F31303801A994143F48013A5
:1049400004D2641E0018494180185941C90241EA45
:104950005051B1FBF3F603FB1611A2FB0675D7EB22
:10496000C020A94102D2761E80185941C90241EAED
:104970005051B1FBF3FE03FB1E11A2FB0E75D7EBEA
:10498000C020A94103D2AEF1010E8018594189021D
:1049900041EA9051760546EA8E2EB1FBF3F603FB11
:1049A0001611A2FB0675D7EB8020A94102D2761E14
:1049B00080185941C90241EA50514EEA060EB1FB36
:1049C000F3F603FB1611A2FB0675D7EBC020A94135
:1049D00002D2761E80185941C90241EA5051B1FBFA
:1049E000F3F703FB1711A2FB0735D3EBC020A94156
:1049F00067F100070CBF004247F0010766F3D527B7
:104A00004FEA1E31B80814F5806412DDBD0775F158
:104A1000004250EB0E5051EB045111F5801F5CBF6A
:104A200041EA0C01F0BD4CF07F6141F0E041002013
:104A3000F0BDBD076D0840EA0E5041F48011D4F17D
:104A40000104B4F120060ADAC4F120060200E040B5
:104A500001FA06F3E1401843B24015430EE0342C4E
:104A600013DCC6F1200445EA40056D0820FA06F281
:104A7000154321FA06F0A1400D43002175F10042D3
:104A800050F1000051EB0C01F0BD00205FEA0C0179
:104A9000F0BDCFB992185B41B3FA83F704BFB2FA05
:104AA00082F6BF190B3FB7F120062FBF02FA06F3BB
:104AB000BB40C7F1200622FA06F638BF3343BA409E
:104AC0001CB1E419641E33E77F4231F00041B1FAB2
:104AD00081F404BFB0FA80F6A4190B3CB4F12006AF
:104AE0002FBF00FA06F1A140C4F1200620FA06F615
:104AF00038BF3143A0403C1B1AE7AC421ABF05EA5D
:104B00001357AF4212E050EA41061CBF52EA430677
:104B1000BFE750EA4107304661461CBF41EA0551F4
:104B2000F0BD52EA430C08BFC143F0BD00204FF472
:104B3000001616EB410F98BF16EB430F08BF16EB9C
:104B4000410F24BFC14305E016EB430F0CBF614684
:104B50004CEA0551F0BD2800400D40F21E4C40EAE1
:104B6000C120BCEB115C40F0004003D48CF3070182
:104B7000C84070476FEAE1707047040070B491EA72
:104B8000030F4FF0004540F1BF806B40841A71EB7A
:104B9000030604D26E40001BB141121973414FF459
:104BA000001C1CEB410F34BF7CEB430683E00C0D73
:104BB000A4EB1356362E00F37C80012E45EAC32366
:104BC00041DC43EA525312BFD20292025B08240531
:104BD00045EAC12141EA5051D2EBC020994125D488
:104BE00007D1B0FA80F610FA06F162D00020203624
:104BF00008E0B1FA81F6B140C6F1200220FA02F2D3
:104C00001143B0404FEAF474B4EB465434F001065B
:104C10004FEA74040AD8D6F50016760D04F0004465
:104C2000F04061FA06F25040F1404840C00A40EAC4
:104C3000415021F0004128BF5FEA500550F10000CB
:104C400044EBD12135E0DB0A45EAC121C90AB6F1BE
:104C500020050EDD42EA0242120CC5F1200603FADD
:104C600006F6EB4042EA06056D42984161F100010B
:104C70000DE062FA06F5F240554063FA06FC82EA5E
:104C80000C02F3405A406D42904161EB030111F474
:104C9000801F05D1641E620502D06D00404149416C
:104CA00021F48011430875F1004350F1000041EBFD
:104CB000045170BC70471CEB410F15D223F0004328
:104CC00052EA43060BD04FEA4C0CBCEB410F04D820
:104CD0000C0D661E342EB7DDEBE7801A994150EAC1
:104CE000410608BF0021E4E708BF1CEB430F28BFC3
:104CF0006FF00001DDE7000070B491EA030F4FF0A0
:104D000000457FF543AF6B40841A71EB030603D275
:104D1000001BB141121973414FF4001C1CEB410FF1
:104D200034BF7CEB430442E00C0DA4EB1356352E4C
:104D30004FDC45EAC323DB0A45EAC121C912B6F1BB
:104D400020050DDD63FA05F6EB4086EA0305124205
:104D500018BF45F00105C01851F100010CD213E055
:104D600062FA06F5F2405540F3415A40B340F34031
:104D70005A408018594107D349085FEA30005FEA7A
:104D8000350528BF45F0010501F58011420875F190
:104D9000004250F1000041EB04514E0016F5001F97
:104DA00070BC38BF70470020090D090570471CEB27
:104DB000410F10D252EA43060BD0BCEB410F05D88D
:104DC0000C0DAB43661E342EB6DD02E0AB438018FB
:104DD000594170BC704770BC70472000C1F30A5342
:104DE00040F21E42D31A0CDDCA0283F3070342EAE3
:104DF000505242F00042DA4002EBE17282EAE17086
:104E000070476FEAE17203F2E13008B182F00040CE
:104E1000704720000EB4C0B5024603A800210190DF
:104E2000009101AB0121044878440C3003F0E0FB11
:104E300006BC5DF810FB00BFFD9F000080B580B28E
:104E4000FFF782FC0022944BFFF762FD934A944BDC
:104E5000FFF75EFD02000B0092489349FFF74CFFFD
:104E600003F056FC03F088FC5FF066328F4BFFF7CF
:104E70004FFD00228E4BFFF775FC00228D4BFFF794
:104E80007DFEFFF7ABFF80B202BD80B580B2FFF7B9
:104E90005BFC894A894BFFF765FC00227E4BFFF7DC
:104EA00037FD02000B0086488649FFF725FF03F017
:104EB0002FFC5FF08B4103F083FC03F05DFC824A22
:104EC000824BFFF725FDFFF789FF001180B202BD7D
:104ED00080B580B2FFF738FC5FF066327C4BFFF79D
:104EE00041FC00226C4BFFF713FD02000B00002079
:104EF0007849FFF701FFFFF771FF80B202BD80B56F
:104F000080B2FFF721FC5FF03332734BFFF72AFCCE
:104F10000022614BFFF7FCFC02000B0000206F49F0
:104F2000FFF7EAFEFFF75AFF80B202BD80B580B2FC
:104F3000FFF784FF6A490886694988876848018EB7
:104F4000002000F016F90121002000F0FAF801BD60
:104F500080B580B2FFF772FF614988866049A1F889
:104F600040005F48818E002000F011F901211020DF
:104F700000F0E7F801BD10B50C0080B2FFF785FF27
:104F8000574948865649C887200080B2FFF77DFF01
:104F90005349C8865249A1F842005148C18EC9B24E
:104FA0004F48408EC0B200F00EF910BD10B50C0095
:104FB00080B2FFF78DFF4A4908874949A1F84400AC
:104FC000200080B2FFF79BFF454948874449A1F87C
:104FD00046004348418FC9B24148008FC0B200F03B
:104FE0003FF910BD80B540F68C21002000F0C1F8DB
:104FF0000121002000F0A5F840F68C21002000F0EF
:10500000C6F80121102000F09CF8FF21FF2000F0DD
:10501000DAF801BD80B5FF21FF2000F021F901BDC4
:1050200080B5FFF7F7FF4FF400412E48FDF7DEFA99
:105030004FF480412B48FDF7D9FA4FF47A70FFF70F
:1050400075FF4FF47A70FFF783FF4FF47A714FF4D6
:105050007A70FFF790FF01BD80B54FF40041214801
:10506000FDF7C4FA4FF480411E48FDF7BDFA1C4815
:10507000008AFFF75BFF40F68C20FFF769FFFF21F6
:105080001748408AFFF777FF1548C18A1448808A7D
:10509000FFF78CFF01BD0000000059409A999999D3
:1050A00099994540F853E3A59BC4004066660A40C1
:1050B00000FEAF400000E03F5A643BDF4F8D973F5A
:1050C00062105839B4C80040FCA9F1D24D620040CA
:1050D00066663C400070714033333D4000E07340F1
:1050E000000000200018024010B4002200222F4AC5
:1050F000136840F6FE72824093430C684A6814437A
:105100008A681443C9680C4314FA00F0184327490D
:10511000086010BC7047C9B2002908D0234909684B
:10512000012212FA00F008432049086008E01F49F4
:105130000968012212FA00F031EA00001B490860F8
:105140007047C9B2002909D019490968012200092C
:1051500012FA00F008431649086009E0144909688A
:105160000122000912FA00F031EA0000104908603B
:10517000704781B0002200920C4A0092009A801879
:105180000830009089B20098016001B0704781B08A
:1051900000220092054A0092009A80181430009074
:1051A00089B20098016001B07047000000740040AF
:1051B0000474004080B5002302224FF400614F4880
:1051C00003F06AFB01BD38B504000D004FF4005137
:1051D0004B48FDF70BFA49F20101484803F0C8FBC0
:1051E0004FF47A6003F07CFD4FF400514448FDF722
:1051F000FBF94FF4FA6003F073FD4FF4005140489F
:10520000FDF7F4F9EDB22D0155F48055290089B26E
:105210003A4803F0ADFB4FF47A6003F061FD4FF4C0
:1052200000513748FDF7E0F94FF4FA6003F058FDFC
:105230004FF400513248FDF7D9F9E4B2240154F497
:105240000044210089B22D4803F092FB4FF47A60AC
:1052500003F046FD4FF400512948FDF7C5F931BD73
:1052600038B504000D004FF480412548FDF7BEF924
:1052700049F20101214803F07BFB4FF47A6003F00F
:105280002FFD4FF480411E48FDF7AEF94FF4FA6050
:1052900003F026FD4FF480411948FDF7A7F9EDB260
:1052A0002D0155F48055290089B2144803F060FBA4
:1052B0004FF47A6003F014FD4FF480411048FDF77D
:1052C00093F94FF4FA6003F00BFD4FF480410C4862
:1052D000FDF78CF9E4B2240154F40044210089B2B2
:1052E000064803F045FB4FF47A6003F0F9FC4FF4F5
:1052F00080410348FDF778F931BD0000003C0040D3
:105300000004024070B504000E0015000020DFF814
:1053100090020078002803D047F27520288054E0DE
:10532000DFF880020078002803D046F6635028801A
:105330004BE0300080B2002805D0022803D00428BA
:105340002AD0082829D1002C03D147F27E202880BA
:105350003BE003F0BBF8DFF84C120978491CDFF89A
:105360004422117003F0B6F82B00320092B22100F3
:10537000DFF83402006802F057F92888002810D0BE
:1053800003F0A4F8DFF81C120978491EDFF8142294
:10539000117003F09FF818E0DBE745F625602880E0
:1053A00013E0DFF804020068FEF7F4FF03F08EF864
:1053B000DFF8F0110978491EDFF8E821117003F0D9
:1053C00089F8FEF755FC0020288070BDF8B50E0066
:1053D000079C0021DFF8C8110978002903D047F2A3
:1053E00075202080C1E0DFF8BC110978002903D0C6
:1053F00046F663502080B8E0069911F00E073D0094
:10540000ADB2002D05D0022D03D0042D19D0082DEA
:1054100018D1002B0FD11500ADB2002D0BD13500E6
:10542000ADB2002D07D10500ADB2002D03D147F27A
:105430007E20208099E04FF6E175294206D10025B3
:1054400005E0F8E745F6256020808EE00125EDB205
:10545000012D03D145F62560208086E0C9B20909F7
:1054600011F00101C9B201291ED0B3F57A7F03D32F
:1054700047F27B20208078E0110089B23C2903DBD1
:1054800047F27A20208070E0310089B23C2903DBAA
:1054900047F27920208068E0010089B2642916DB98
:1054A00047F27820208060E0310089B242F2107526
:1054B000A94203DB47F27920208056E0010089B23F
:1054C000B1F57A7F03DB47F2782020804DE0374941
:1054D0000D6880B24FF4616CB6B23C214E430CFBB8
:1054E000006010FA82F14FF4FA70B0FBF5F0C318C7
:1054F00003FB05F34FF47A70B3FBF0F005FB0105F5
:10550000002D2FD002F0E2FF26490978491C254AD8
:10551000117002F0DFFF23003A0092B22900224806
:10552000006802F081F82088002809D002F0CEFF40
:105530001C490978491E1B4A117002F0CBFF14E088
:1055400019480068FEF726FF02F0C0FF15490978E8
:10555000491E144A117002F0BDFFFEF789FB0020BE
:10556000208002E047F27E202080F1BD18B585B092
:1055700000F0B5FF03F026F804A903910290002083
:105580000190002000900023002209490948047876
:105590000C2044432144084801F03CFD06B010BDF6
:1055A000C1710020C67100206471002060F0020803
:1055B000CC4E0020C37100205449434B002848BF03
:1055C000404270472DE9F34F83B09846DDF858907C
:1055D0000021DFF890150978002904D047F24A101D
:1055E000A9F80000F3E00400002C04D147F2AD104C
:1055F000A9F80000EBE002920298002804D147F2DB
:105600004F10A9F80000E2E00F9D002D04D146F6EE
:105610002F60A9F80000DAE0DDF844B0DFF8F40507
:105620000068834504D246F63060A9F80000CEE059
:10563000DDF840A0DA4504D346F63160A9F8000051
:10564000C5E00E9E3000C0B2402804D346F273205D
:10565000A9F80000BBE03000C0B2002808D1DFF894
:105660000806844204D046F27320A9F80000AEE098
:105670003000C0B23F2808D1DFF8F005844204D0E2
:1056800046F27320A9F80000A1E0159F200000F069
:1056900047FB0020A9F80000F8070AD5B80708D58D
:1056A0002900002003E000220A60091D401C584523
:1056B000F9D3DDF84C9005EB8A0A380080B20190EE
:1056C000CDF800B053462A004146029800F08AFE09
:1056D0000299A162C4F82C800499216284F8376091
:1056E0002060C4F808A0C4F85090B9F1000F04D1AC
:1056F000DFF8B4050068606501E0C4F854901498C0
:1057000060606562C4F838B0A787002006E0002119
:105710000200D2B204EB82029167401C0100C9B2C0
:105720000029F4D0129989B214F1600001F0AFF8A9
:10573000200000F03CFE02F0C9FEDFF830140978CA
:10574000491CDFF82824117002F0C4FE94F83700D9
:1057500000F004FF2000FEF7CDFD200000F088FAE5
:10576000DFF8B0050088401CDFF8A8150880DFF8D6
:10577000A805007801281DD002F0A8FEDFF8EC1380
:105780000978491EDFF8E4231170DFF8E013097887
:1057900000290CD1DFF878140988002904D002F020
:1057A00099FEFEF725FE04E002F094FE01E002F00F
:1057B00091FE0CE002F08AFEDFF8B0130978491E72
:1057C000DFF8A823117002F085FEFEF751FA05B04C
:1057D000BDE8F08F38B504000D000020DFF8840329
:1057E0000078002803D047F24E1028805CE0DFF8F4
:1057F0007C04844203D147F24C10288054E0DFF847
:105800006804844203D147F24D1028804CE0002CFC
:1058100006D102F05BFEDFF850130C6802F05AFE6E
:1058200002F054FEDFF844130978491CDFF83C23EA
:10583000117002F04FFE94F8360000280BD00228B9
:1058400038D033D3042830D034D3062832D02DD3E7
:1058500007282FD044E02000FEF79CFD14F16000E3
:1058600000F0F3FF200000F0ABFD200000F01EFA76
:10587000DFF8A0040088401EDFF89814088020009C
:1058800000F04EFAFF2084F8360002F01FFEDFF829
:10589000DC120978491EDFF8D422117002F01AFEDA
:1058A00000202880FEF7E4F931BDD7E7200001F0A1
:1058B00011FFD3E794F83400002808D0401E07D029
:1058C000401E04D0401E032802D9001F04D103E06B
:1058D0002000FEF7F6FBFFE7200001F0FBFEBDE72E
:1058E00002F0F4FDDFF884120978491EDFF87C220B
:1058F0001170DFF87812097800290CD1DFF81C1438
:105900000988002904D002F0E5FDFEF771FD04E0EE
:1059100002F0E0FD01E002F0DDFD46F62D6028809A
:10592000C2E738B584B004000D00002002F0CEFDBF
:10593000002C03D08C4909688C4205D102F0CAFDC5
:1059400047F25710288018E002F0C4FD854800781F
:1059500000280ED003950020029000200190002026
:105960000090002300222100DFF8E00901F052FB43
:1059700003E02900200000F017FB05B030BD2DE941
:10598000F0410700884614001D000020754800788B
:10599000002804D046F2AE1028800020DEE0404609
:1059A00080B2002802D0B0F5004F49D1002C01D0C0
:1059B0000020206002F08AFD0600DFF88C090068F4
:1059C000406C002841D0DFF880090068406C401E20
:1059D000DFF8741909684864DFF86C090068476CDF
:1059E000002C04D0DFF860090068006C206002F031
:1059F000E9FDDFF854190968096C401ADFF8481905
:105A00000968C1F8A000DFF840090068D0F8A400D8
:105A1000DFF834190968D1F8A010884209D2DFF8FC
:105A200028090068D0F8A000DFF81C190968C1F83F
:105A3000A400300002F04EFD0020288038008DE0E8
:105A400045F625602880002088E05FEA084007D5F9
:105A5000300002F03FFD46F2B010288000207DE0CB
:105A600042480078002807D0300002F033FD46F6A7
:105A700063502880002071E03C480078401C3B497E
:105A80000870300002F026FD3B00072200210020B4
:105A9000FEF737FA02F01AFD34490978491E334AF5
:105AA000117002F017FDFEF7E3F802F00FFD06009B
:105AB000DFF89408006890F83500002804D0012829
:105AC0002ED0032837D03EE0002C26D0DFF878080F
:105AD0000068006C206002F075FDDFF86C18096842
