:020000040802F0
:10000000D0910020ADF1020811E9020813E90208BD
:100010001DE902081FE9020821E9020800000000AA
:1000200000000000000000000000000023E90208BA
:1000300025E9020800000000BB86020827E9020843
:1000400089F202088DF2020891F2020895F2020884
:1000500099F202089DF20208A1F20208A5F2020834
:10006000A9F20208ADF20208B1F20208B5F20208E4
:10007000B9F20208BDF20208C1F2020879E90208E9
:10008000C5F2020889E90208C9F20208CDF20208A5
:10009000D1F20208D5F20208D9F20208DDF2020814
:1000A000E1F20208E5F20208E9F20208EDF20208C4
:1000B00099E90208F1F20208F5F20208F9F20208E1
:1000C000FDF2020801F3020805F3020809F3020831
:1000D0000DF3020811F3020869E9020815F302089A
:1000E00019F302081DF3020821F3020825F30208A0
:1000F00029F302082DF3020831F3020835F3020850
:1001000039F302083DF3020841F3020845F30208FF
:1001100059E9020849F302084DF3020851F30208B5
:1001200055F3020859F302085DF3020861F302086F
:1001300065F3020869F302086DF3020871F302081F
:1001400075F3020879F302087DF3020843E9020817
:1001500081F3020885F3020889F302088DF302088F
:1001600091F3020895F3020899F302089DF302083F
:10017000A1F30208A5F30208A9F30208ADF30208EF
:10018000B1F30208B5F3020800219020DFF8DC2C5F
:1001900050730020DFF8D42C9073DFF8E80A90F851
:1001A0006A00DFF8C82CD073DFF8D80A90F867002F
:1001B000DFF8B82C1074DFF8CC0AB0F86E0080B20B
:1001C000000ADFF8A82C5074DFF8B80AB0F86E0007
:1001D000DFF8982C9074DFF8AC0AB0F8700080B2A9
:1001E000000ADFF8882CD074DFF8980AB0F87000A5
:1001F000DFF8782C1075DFF88C0AB0F8720080B246
:10020000000ADFF8682C5075DFF8780AB0F8720041
:10021000DFF8582C9075DFF86C0AB0F8740080B2E3
:10022000000ADFF8482CD075DFF8580AB0F87400DF
:10023000DFF8382C1076DFF84C0AB0F8760080B280
:10024000000ADFF8282C5076DFF8380AB0F876007C
:10025000DFF8182C9076DFF82C0AB0F85000A0F2E6
:100260004C40C92802D251F4007102E04FF6FF5011
:100270000140DFF8100AB0F85200A0F24C40C92843
:1002800002D251F4807102E04FF6FF600140DFF8C6
:10029000F409B0F85400B0F5FA70652802D251F0B4
:1002A000800102E04FF67F700140DFF8D809B0F816
:1002B0005600B0F5FA70652802D251F0400102E014
:1002C0004FF6BF700140DFF8BC09B0F85800B0F538
:1002D000FA70652802D251F0200102E04FF6DF707B
:1002E0000140DFF8A009B0F85A00B0F596709728E1
:1002F00002D251F0100102E04FF6EF700140DFF83A
:100300008409B0F85C00B4385B2802D251F00801CF
:1003100002E04FF6F7700140DFF86809B0F86000BE
:10032000B0F5966040F22132904202D251F00401C1
:1003300002E04FF6FB700140DFF84809B0F85E00BC
:100340006438562802D251F0020102E04FF6FD70E7
:100350000140DFF83009B0F862004138382802D295
:1003600051F0010102E04FF6FE700140080080B23A
:10037000000ADFF8F82AD076DFF8F00A0177DFF814
:100380000409B0F8500080B2000ADFF8E01A48779C
:10039000DFF8F008B0F85000DFF8D01A8877DFF8FF
:1003A000E408B0F8520080B2000ADFF8C01AC8773B
:1003B000DFF8D008B0F85200DFF8B01A81F820005A
:1003C000DFF8C008B0F8540080B2000ADFF89C1AC9
:1003D00081F82100DFF8AC08B0F85400DFF88C1A7F
:1003E00081F82200DFF89C08B0F8560080B2000ABD
:1003F000DFF8781A81F82300DFF88808B0F8560093
:10040000DFF8681A81F82400DFF87808B0F858009F
:1004100080B2000ADFF8541A81F82500DFF864087A
:10042000B0F85800DFF8441A81F82600DFF85408C5
:10043000B0F85A0080B2000ADFF8301A81F82700BD
:10044000DFF84008B0F85A00DFF8201A81F82800D9
:10045000DFF83008B0F85C0080B2000ADFF80C1A50
:1004600081F82900DFF81C08B0F85C00DFF8FC19FF
:1004700081F82A00DFF80C08B0F8600080B2000AAA
:10048000DFF8E81981F82B00DFF8F807B0F8600012
:10049000DFF8D81981F82C00DFF8E807B0F85E0023
:1004A00080B2000ADFF8C41981F82D00DFF8D40704
:1004B000B0F85E00DFF8B41981F82E00DFF8C40749
:1004C000B0F8620080B2000ADFF8A01981F82F00AE
:1004D000DFF8B007B0F86200DFF8901981F830005B
:1004E000704780B5A020DFF8881988703120DFF8C8
:1004F0008019C870DFF87409DFF874194860DFF8F4
:10050000840790F88800022808D1DFF8680900689D
:1005100001F04CF8DFF8600901F0A2F8DFF8640799
:1005200090F8880001280DD1DFF8F40901F03EF8B9
:10053000DFF8EC09C178891DDFF8E409DFF8E42968
:10054000D2689047DFF83C0790F88800032808D16C
:10055000DFF8D409006801F029F8DFF8540D01F044
:100560007FF801BD80B5DFF8C409406800781B281A
:100570007DD16820DFF8F8180870DFF8F4080078FB
:10058000DFF89C1908700420DFF8E4184870DFF8E1
:10059000E0084078DFF8881948700520DFF8D018A7
:1005A0008870DFF8CC088078DFF874198870042030
:1005B000DFF8BC18C870DFF8B808C078DFF8601939
:1005C000C8701B20DFF8A81849680870DFF8A00879
:1005D00040680078DFF8481908719020DFF890181B
:1005E00049684870DFF8880840684078DFF83019BB
:1005F00048710020DFF8781849688870DFF87008C3
:1006000040688078DFF818198871DFF8140941789C
:10061000DFF80C0980784118DFF80409C078411828
:10062000DFF8FC0800794118DFF8F4084079411838
:10063000DFF8EC0880794118DFF834080172DFF840
:100640003008007ADFF8D818C8711620DFF82018B3
:100650004872DFF81C08407ADFF8C41808720921D4
:10066000DFF8BC08DFF8BC28D268904743E00120DF
:10067000DFF8FC1788700220DFF8F417C8709020AC
:10068000DFF8EC17496808700020DFF8E4174968C4
:100690004870DFF8F00590F88800022808D1DFF8EC
:1006A000D407006800F082FFDFF8CC0700F0D8FF25
:1006B000DFF8D00590F8880001280DD1DFF8600838
:1006C00000F074FFDFF85808C178891DDFF8500882
:1006D000DFF85028D2689047DFF8A80590F8880026
:1006E000032808D1DFF84008006800F05FFFDFF85A
:1006F000C00B00F0B5FF01BD10B50220DFF8701788
:1007000088701320DFF86817C8700B22DFF8001A12
:10071000DFF85C074468200001F018F90822DFF8D0
:10072000F419DFF84C07406810F10B04200001F0C9
:100730000DF9DFF8500590F88800022808D1DFF89D
:100740003407006800F032FFDFF82C0700F088FF64
:10075000DFF8300590F8880001280DD1DFF8C007D8
:1007600000F024FFDFF8B807C178891DDFF8B00773
:10077000DFF8B027D2689047DFF8080590F88800C6
:10078000032808D1DFF8A007006800F00FFFDFF8AA
:10079000200B00F065FF10BD80B5022269460020E5
:1007A00001F0C5FA0320DFF8C81688700220DFF8D0
:1007B000C016C8709DF80000DFF8B41649680870CC
:1007C0009DF80100DFF8A81649684870DFF8B40406
:1007D00090F88800022808D1DFF89806006800F039
:1007E000E5FEDFF8940600F03BFFDFF8980490F890
:1007F000880001280DD1DFF8280700F0D7FEDFF8C8
:100800002007C178891DDFF81807DFF81827D2689C
:100810009047DFF8700490F88800032808D1DFF8CB
:100820000807006800F0C2FEDFF8840A00F018FF35
:1008300001BD10B5A0B0002006E0DFF8F016496851
:10084000095C6A461154401CDFF8E016C9788842FA
:10085000F3DB002406E0684600EB0401002001F011
:1008600060FA0834DFF8C406C0788442F3DB042061
:10087000DFF8FC1588700120DFF8F415C87001203E
:10088000DFF8EC1549680870DFF8F80390F8880085
:10089000022808D1DFF8DC05006800F087FEDFF8E9
:1008A000D80500F0DDFEDFF8DC0390F888000128B1
:1008B0000DD1DFF86C0600F079FEDFF86406C17830
:1008C000891DDFF85C06DFF85C26D2689047DFF808
:1008D000B40390F88800032808D1DFF84C060068BC
:1008E00000F064FEDFF8C00C00F0BAFE20B010BDCE
:1008F00080B50520DFF8781588700120DFF87015C5
:10090000C8700120DFF8681549680870DFF87403C3
:1009100090F88800022808D1DFF85805006800F038
:1009200045FEDFF8540500F09BFEDFF8580390F811
:10093000880001280DD1DFF8E80500F037FEDFF868
:10094000E005C178891DDFF8D805DFF8D825D26821
:100950009047CC4890F88800032808D1DFF8C805F4
:10096000006800F023FEDFF8400C00F079FE01BDC6
:1009700080B50620DFF8F81488700120DFF8F01445
:10098000C8700120DFF8E81449680870BD4890F885
:100990008800022808D1DFF8DC04006800F006FEB9
:1009A000DFF8D40400F05CFEB64890F88800012817
:1009B0000DD1DFF86C0500F0F9FDDFF86405C178B2
:1009C000891DDFF85C05DFF85C25D2689047AD48EB
:1009D00090F88800032808D1DFF84C05006800F083
:1009E000E5FDDFF8C40B00F03BFE01BD80B507203C
:1009F000DFF87C1488700120DFF87414C8700120BF
:100A0000DFF86C14496808709E4890F88800022846
:100A100008D1DFF86004006800F0C8FDDFF8580472
:100A200000F01EFE974890F8880001280DD1DFF8ED
:100A3000F00400F0BBFDDFF8E804C178891DDFF8A1
:100A4000E004DFF8E024D26890478E4890F88800F0
:100A5000032808D1DFF8D004006800F0A7FDDFF814
:100A6000480B00F0FDFD01BDDFF8840ADFF8101C23
:100A70000860704780B5DFF8B404406800781D282E
:100A80005DD16820DFF8E8130870DFF8E403007830
:100A9000DFF88C1408700420DFF8D4134870DFF8F6
:100AA000D0034078DFF8781448700620DFF8C013D0
:100AB0008870DFF8BC038078DFF864148870022047
:100AC000DFF8AC13C870DFF8A803C078DFF8501463
:100AD000C8701E20DFF8981349680870DFF890038B
:100AE00040680078DFF838140871DFF83404417882
:100AF000DFF82C0480784118DFF82404C07841180E
:100B0000DFF81C0400794118DFF864030172DFF894
:100B10006003007ADFF8081448711620DFF85013DC
:100B20004872DFF84C03407ADFF8F413887107212C
:100B3000DFF8EC03DFF8EC23D268904738E00820B8
:100B4000DFF82C1388700120DFF82413C87001200F
:100B5000C749496808704B4890F88800022806D1B8
:100B6000C448006800F022FDC34800F079FD454804
:100B700090F8880001280DD1DFF8A40300F016FDDD
:100B8000DFF89C03C178891DDFF89403DFF8942314
:100B9000D26890473B4890F88800032808D1DFF8D6
:100BA0008803006800F002FDDFF8040700F058FD3C
:100BB00001F0C4F8DFF8A41ADFF8F40B01F0D7F85D
:100BC00001F0CCF8C82001F076F9FFF74DFF01BD28
:100BD00080B50920A64988700720A549C870294812
:100BE00090F88A00A24949680870264890F88C005D
:100BF0009F4949684870234890F88E009C4949688D
:100C00008870204890F8920099494968C8701D483A
:100C100090F88D009649496808711A4890F88F003D
:100C2000934949684871174890F89300904949687A
:100C30008871144890F88800022806D18D48006811
:100C400000F0B4FC8C4800F00BFD0E4890F88800D2
:100C5000012809D1B24800F0A9FCB148C178891D2A
:100C6000AF48B04AD2689047064890F888000328F9
:100C700007D1AD48006800F099FCDFF82C0900F0BE
:100C8000EFFC01BD0000002080B50A207849887083
:100C90000A207749C870DFF81C0BB0F86E0080B2EC
:100CA000000A734949680870DFF8080BB0F86E0055
:100CB0006F4949684870DFF8FC0AB0F8700080B2EC
:100CC000000A6B4949688870DFF8E80AB0F87000DC
:100CD00067494968C870DFF8DC0AB0F8720080B272
:100CE000000A634949680871DFF8C80AB0F8720061
:100CF0005F4949684871DFF8BC0AB0F8740080B2F7
:100D0000000A5B4949688871DFF8A80AB0F87400E6
:100D100057494968C871DFF89C0AB0F8760080B27C
:100D2000000A534949680872DFF8880AB0F876006B
:100D30004F4949684872DFF87C0A90F88800022819
:100D400006D14C48006800F031FC4B4800F088FCAC
:100D5000DFF8600A90F88800012809D1704800F097
:100D600025FC6F48C178891D6D486E4AD26890474E
:100D7000DFF8400A90F88800032807D16A48006825
:100D800000F014FCDFF8200800F06AFC01BD80B51B
:100D90000B203749887002203549C870DFF8140AE3
:100DA00090F89000324949680870DFF8080A90F816
:100DB00091002F4949684870DFF8F80990F88C00D5
:100DC000002808D02A484068007850F08000284960
:100DD0004968087007E026484068007810F07F00F6
:100DE000234949680870DFF8CC0990F88D00002885
:100DF00008D01F484068407850F080001C4949687E
:100E0000487007E01A484068407810F07F001849A1
:100E100049684870DFF89C0990F88800022806D1DC
:100E20001448006800F0C2FB134800F019FCDFF81A
:100E3000840990F88800012809D1394800F0B6FBF0
:100E40003748C178891D3648364AD2689047DFF85E
:100E5000640990F88800032807D13348006800F03F
:100E6000A5FBDFF8440700F0FBFB01BD2C010020CF
:100E70005C02002088020020A060024080B52B4860
:100E800040680078DFF82C1981F86700274840682F
:100E90004078DFF8201981F868002448406880789D
:100EA000DFF8101981F869000C20DFF8841A8870C7
:100EB0000120DFF87C1AC8700120DFF8741A496835
:100EC0000870DFF8F00890F88800022808D1DFF8F1
:100ED000580A006800F06AFBDFF8500A00F0C0FB17
:100EE000DFF8D00890F88800012809D10C4800F0FC
:100EF0005DFB0B48C178891D09480A4AD2689047B2
:100F0000DFF8B00890F88800032807D10648006889
:100F100000F04CFBDFF8900600F0A2FB01BD0000E2
:100F2000B06F00200C020020780200205002002048
:100F300080B50D20DFF8F81988701420DFF8F0195B
:100F4000C870DFF87008B0F8500080B2000ADFF80F
:100F5000E01949680870DFF85C08B0F85000DFF865
:100F6000D01949684870DFF84C08B0F8520080B2D8
:100F7000000ADFF8BC1949688870DFF83808B0F853
:100F80005200DFF8AC194968C870DFF82808B0F8DB
:100F9000540080B2000ADFF8981949680871DFF838
:100FA0001408B0F85400DFF8881949684871DFF870
:100FB0000408B0F8560080B2000ADFF874194968D6
:100FC0008871DFF8F007B0F85600DFF86419496857
:100FD000C871DFF8E007B0F8580080B2000ADFF807
:100FE000501949680872DFF8CC07B0F85800DFF8EC
:100FF000401949684872DFF8BC07B0F85A0080B25F
:10100000000ADFF82C1949688872DFF8A807B0F8E1
:101010005A00DFF81C194968C872DFF89807B0F861
:101020005C0080B2000ADFF8081949680873DFF82D
:101030008407B0F85C00DFF8F81849684873DFF8F7
:101040007407B0F8600080B2000ADFF8E41849685D
:101050008873DFF86007B0F86000DFF8D4184968DB
:10106000C873DFF85007B0F85E0080B2000ADFF8FE
:10107000C01849680874DFF83C07B0F85E00DFF874
:10108000B01849684874DFF82C07B0F8620080B2E5
:10109000000ADFF89C1849688874DFF81807B0F870
:1010A0006200DFF88C184968C874DFF8080790F808
:1010B0008800022808D1DFF87008006800F076FA8E
:1010C000DFF8680800F0CCFADFF8E80690F888004E
:1010D00001280DD1DFF85C0800F068FADFF8540849
:1010E000C178891DDFF84C08DFF84C28D26890479A
:1010F000DFF8C00690F88800032808D1DFF83C0824
:10110000006800F053FADFF8A00400F0A9FA01BD6E
:10111000440200206802002080B500F0CBFF0E20C2
:10112000DFF80C1888700820DFF80418C870DFF8A2
:101130008406B0F8480080B2000ADFF8F417496866
:101140000870DFF87006B0F84800DFF8E417496867
:101150004870DFF86006B0F84A0080B2000ADFF895
:10116000D01749688870DFF84C06B0F84A00DFF8FD
:10117000C0174968C870DFF83C06B0F84C0080B270
:10118000000ADFF8AC1749680871DFF82806B0F8E4
:101190004C00DFF89C1749684871DFF81806B0F872
:1011A0004E0080B2000ADFF8881749688871DFF8BE
:1011B0000406B0F84E00DFF878174968C871DFF808
:1011C000F40590F8880001280DD1DFF8680700F0D9
:1011D000EDF9DFF86007C178891DDFF85807DFF8FF
:1011E0005827D2689047DFF8CC0590F8880002288D
:1011F00008D1DFF83407006800F0D8F9DFF82C07D1
:1012000000F02EFADFF8AC0590F88800032808D12A
:10121000DFF82807006800F0C9F9DFF88C0300F058
:101220001FFA01BD80B54FF40041DFF8140701F04B
:1012300089FA0F20DFF8F81688700120DFF8F01621
:10124000C8700120DFF8E81649680870DFF8640507
:1012500090F88800022808D1DFF8CC06006800F07A
:10126000A5F9DFF8C80600F0FBF9DFF8480590F8AB
:10127000880001280DD1DFF8BC0600F097F9DFF8EF
:10128000B406C178891DDFF8AC06DFF8AC26D26859
:101290009047DFF8200590F88800032807D1DFF891
:1012A0009C06006800F082F9BF4800F0D9F901BD42
:1012B0007060024080B54FF40041DFF8840601F011
:1012C0003FFA1020DFF8681688700120DFF86016FA
:1012D000C8700120DFF8581649680870DFF8D40498
:1012E00090F88800022808D1DFF83C06006800F07A
:1012F0005DF9DFF8380600F0B3F9DFF8B80490F8CC
:10130000880001280DD1DFF82C0600F04FF9DFF836
:101310002406C178891DDFF81C06DFF81C26D26878
:101320009047DFF8900490F88800032807D1DFF891
:101330000C06006800F03AF99B4800F091F901BDF5
:1013400080B54FF48041DFF8F80501F0FBF911207A
:10135000DFF8DC1588700120DFF8D415C870012093
:10136000DFF8CC1549680870DFF8480490F8880069
:10137000022808D1DFF8B005006800F017F9DFF89F
:10138000AC0500F06DF9DFF82C0490F88800012816
:101390000DD1DFF8A00500F009F9DFF89805C17854
:1013A000891DDFF89005DFF89025D2689047DFF8B7
:1013B000040490F88800032807D1DFF8800500684E
:1013C00000F0F4F8784800F04BF901BD80B54FF417
:1013D0008041DFF86C0501F0B3F91220DFF85015F9
:1013E00088700120DFF84815C8700120DFF840152B
:1013F00049680870DFF8BC0390F88800022808D11B
:10140000DFF82405006800F0D1F8DFF8200500F0CF
:1014100027F9DFF8A00390F8880001280DD1DFF844
:10142000140500F0C3F8DFF80C05C178891DDFF85A
:101430000405DFF80425D2689047DFF8780390F8B8
:101440008800032807D1DFF8F404006800F0AEF844
:10145000554800F005F901BD80B5DFF8E8044068A3
:1014600001F09CFA01BD80B5DFF8D804406801F0B6
:1014700007FC01BD80B5F020DFF8B41488700120AE
:10148000DFF8AC14C870F020DFF8A41449680870C5
:10149000C84890F88800022808D1DFF88C0400685A
:1014A00000F084F8DFF8840400F0DAF8C14890F81E
:1014B000880001280DD1DFF87C0400F077F8DFF810
:1014C0007404C178891DDFF86C04DFF86C24D268DD
:1014D0009047B84890F88800032807D1DFF85C04EB
:1014E000006800F063F8304800F0BAF801BD000071
:1014F0000400FA05DFF84C0440680078C00703D503
:101500000120AC49087002E00020AA490870DFF809
:10151000340440680078800704D50120A54981F88B
:10152000890003E00020A34981F88900DFF8140452
:1015300040680078400704D501209E4981F8660084
:1015400003E000209B4981F86600DFF8F80340685B
:101550000078000704D50120964981F86C0003E06B
:101560000020944981F86C00DFF8D80340680078C7
:10157000C00604D501208F4981F8780003E00020DF
:101580008C4981F87800DFF8BC0340680078800659
:1015900004D50120874981F89C0003E0002085499B
:1015A00081F89C00704700007060024010B4002178
:1015B000DFF87C134A78DFF8781389788A18DFF827
:1015C0007013C9788A18DFF868130A7200220DE0D8
:1015D000DFF85C130B7ADFF8581349681400E4B2A3
:1015E000095DCB18DFF848130B72521C1100DFF8AD
:1015F0004033DB78C9B29942EAD3DFF83413097873
:101600000170DFF82C1349784170DFF824138978D2
:101610008170DFF81C13C978C170002107E0DFF882
:1016200010235268525C00EB01031A71491CDFF869
:101630000023D2789142F2DBDFF8F412097ADFF866
:10164000F022D27802441171DFF8E412497ADFF80F
:10165000E022D2781044417110BC7047BBBBAAAAEB
:1016600010B50400DFF8C802C178891D89B22000D6
:1016700002F0BFF80121200002F0AEF810BD00001A
:101680000CED00E030B400220378DFF8B84223709C
:10169000401C0378DFF8AC426370401C0378DFF82D
:1016A000A442A370401C0378DFF89842E370401C0A
:1016B000002306E00478DFF88C526D68EC54401C7F
:1016C0005B1C0C00E4B2A41FA342F3DB0178DFF83B
:1016D00074321972401C0078DFF868124872DFF823
:1016E000640240788218DFF85C0280788218DFF8A4
:1016F0005402C0788218002105E0DFF848024068F3
:10170000405C8218491CDFF83C02C0788142F4DB5F
:10171000DFF83002007868281ED1DFF82802407810
:10172000042819D1DFF81C028078032814D1DFF8CF
:101730001402C07802280FD1DFF808024068007850
:101740001B2801D1012031E0DFF8F8014068007862
:101750001D2801D1012029E0DFF8E8010078682880
:1017600023D1DFF8E001407804281ED1DFF8D4014E
:10177000407A162819D1DFF8CC01007AD2B2824221
:1017800013D1DFF8C0018078132804D0DFF8B4014A
:101790008078142807D1002000E0401CDFF8A41155
:1017A000C9788842F9DB012000E0002030BC704796
:1017B00000000C080000002080B5DFF88801807868
:1017C00003280FD15F48406800781B2802D1012010
:1017D0005C4988705B48406800781D2802D1082069
:1017E000584988705748807801282DD002282ED07B
:1017F00003282FD0042830D0052831D0062832D035
:10180000072833D0082834D0092835D00A2836D004
:101810000B2837D00C2838D00D2839D00E283AD0D4
:101820000F283BD010283CD011283DD012283ED0A4
:1018300013283FD0142858D0A02802D0FF286CD0FD
:101840006EE0FEF74EFE6DE0FEF78CFE6AE0FEF7FE
:1018500053FF67E0FEF7A0FF64E0FEF7EAFF61E0F8
:10186000FFF746F85EE0FFF783F85BE0FFF7BEF8AE
:1018700058E0FFF7FFF855E0FFF7AAF952E0FFF74D
:1018800003FA4FE0FFF783FA4CE0FFF7F7FA49E07D
:10189000FFF74EFB46E0FFF73FFC43E0FFF7C2FCDB
:1018A00040E0FFF707FD3DE0FFF74AFD3AE0FFF7B4
:1018B0008DFD37E0012024494870002022498870BE
:1018C00000202149487100201F49087100201E494D
:1018D000C87100201C49C87201201B4908720020F1
:1018E00019498881FFF7B8FD1CE0002016494870AF
:1018F00001201549887000201349487100201249C1
:10190000087100201049C87101200F490872002099
:101910000D498881FFF7A7FD04E0FFF7EBFD01E02B
:10192000FFF7A8FD01BD000088020020A060024072
:101930005C020020B06F00200C0200207802002022
:1019400000180240500200200000002062B38B0704
:1019500008D0521E11F8013B00F8013B00F0248032
:101960008B07F6D1830740F0208000BF103A07D3E1
:1019700030B4B1E83810103AA0E83810F9D230BCD1
:10198000530724BFB1E80810A0E8081044BF51F87D
:10199000043B40F8043BD20724BF31F8022B20F867
:1019A000022B44BF0B7803707047121F17D35B00E4
:1019B00009D151F8043B20F8023B1B0C121F20F800
:1019C000023BF6D20BE051F8043B00F8013B1B0A46
:1019D00020F8023B1B0C121F00F8013BF3D238BF6A
:1019E000121D521E24BF11F8013B00F8013BF8D82C
:1019F000704770477047704770477047704770472F
:101A0000E0B50121102001F0F6FF4FF400600090D6
:101A100001208DF8040003208DF8050000208DF8CA
:101A2000060001208DF807006946A34800F02CFE4F
:101A300007BDE0B50121102001F0DDFF4FF400608B
:101A4000009000208DF8040003208DF8050001208F
:101A50008DF8060000208DF807006946964800F0D2
:101A600013FE4FF40061944800F06AFE07BD10B504
:101A7000FFF7C6FF4FF400618F4800F061FEC820F9
:101A800000F03FFA4FF400618B4800F05BFE4FF42A
:101A9000167000F036FAFFF7CCFF3C2000F031FA68
:101AA0004FF40061844800F041FE04004FF496704A
:101AB00000F027FA2000C0B210BD38B50400FFF7CF
:101AC0009FFF002522E04FF400617B4800F03AFEC2
:101AD00016E04FF40061784800F032FE022000F07A
:101AE00010FA4FF40061744800F02CFE0A2000F058
:101AF00008FAE007E7D54FF400616F4800F020FED8
:101B00003C2000F0FEF9E4B264086D1C082DE0DB17
:101B100031BD70B500240125002625E0AC431EE050
:101B2000FFF76EFF4FF40061634800F009FE0220EA
:101B300000F0E7F94FF400615F4800F003FE022077
:101B400000F0DFF9FFF775FF052000F0DAF94FF438
:101B50000061594800F0EAFD0028DFD02C433C200A
:101B600000F0CFF96D00761C082ED9DB2000C0B242
:101B700070BD70B504000D00FFF779FF002801D09B
:101B8000012097E0CC20FFF798FF0F20FFF795FF8B
:101B90002000C0B2FFF791FF200080B2000AC0B25F
:101BA000FFF78BFF002603E0A85DFFF786FF761C9A
:101BB000082EF9DBFFF7ADFF40490870FFF7A9FFDA
:101BC0003F490870FFF753FF002801D0012071E062
:101BD000CC20FFF772FFAA20FFF76FFFFFF799FFF6
:101BE0003849087037480078210080B289B28842AD
:101BF00001D0012000E00020C0B2002801D0012067
:101C000058E0FFF786FF2F4908702E480078210022
:101C100089B2090A89B2884201D001204AE0FFF75F
:101C200078FF2849087027480078072801D001204C
:101C300040E0002600E0761C082E0ADAFFF769FF74
:101C4000204908701F480078A95D8842F3D0012020
:101C500030E0FFF75EFF19490870FFF75AFF184997
:101C60000870FFF704FF002801D0012022E0CC20FB
:101C7000FFF723FF5520FFF720FF2000C0B2FFF73A
:101C80001CFFA4B2240A2000C0B2FFF716FF0720F1
:101C9000FFF713FFFFF7CDFE0A2000F00CF9FFF766
:101CA00038FF0849087007480078AA2801D00120A9
:101CB00000E0002070BD000000100240B471002060
:101CC000B5710020B371002070B504000D0016003E
:101CD000FFF7CDFE002801D0012021E0CC20FFF746
:101CE000ECFEF020FFF7E9FE2000C0B2FFF7E5FEB2
:101CF0000020FFF7E2FE002405E0FFF70AFF2100C5
:101D0000C9B26854641C20003100C0B2C9B2884214
:101D1000F3D3FFF7ACFE002801D0012000E0002043
:101D200070BD80B5C0B280B2FFF723FF01BD80B5A2
:101D3000D2B2C0B2FFF7C8FF01BD0A00DFF8D4007D
:101D40000068002809D5DFF8D000DFF8D01008605F
:101D5000DFF8CC00DFF8C41008607047DFF8B4008B
:101D6000006850F00040DFF8AC100860704738B5EC
:101D700004000D00092000F057F80100C9B209293C
:101D800022D1DFF89000006830F44070DFF8841052
:101D90000860DFF88000006850F40070DFF874100D
:101DA0000860DFF87000006850F00100DFF8641090
:101DB0000860256000F038F8DFF858100968490815
:101DC0004900DFF850201160C0B232BD092015482B
:101DD0000068C00301D5012019E012480068C00660
:101DE00001D5062013E00F480068C00501D5022088
:101DF0000DE00C48006810F0E00F01D0072006E06D
:101E000008480068800701D5082000E00920C0B21A
:101E100070470000103C024023016745043C02402B
:101E2000AB89EFCD0C3C024080B509208DF8000055
:101E3000FFF7CCFF8DF8000003E0FFF7C7FF8DF838
:101E400000009DF800000128F7D09DF8000002BDB9
:101E5000020052B2002A08D509013A4A40B210F0F5
:101E60000F00104400F8041C03E00901364A40B298
:101E70001154704780B5411EB1F1807F01D301201C
:101E80000EE0401E314908600F215FF0FF30FFF780
:101E9000DFFF00202E49086007202E49086000203F
:101EA00002BD80B545F20820FFF7E4FF7FF0040093
:101EB00001F038FE01BD01B5009800F00FF800F008
:101EC00013F80028FBD101BD23480068002804D086
:101ED00021480068401E20490860704701B40098FE
:101EE0001D49086001B070471B480068704780B505
:101EF000684601F0AEFF01BD80B5684601F0D9FF2C
:101F000001BD70B50400A4B2152044430F48056814
:101F10000F480668FFF7EBFF0D480068002801D165
:101F20000B480068B042F7D0B04203D2301AA0424A
:101F3000F2D303E0281A3018A042EDD3FFF7DCFFFC
:101F400070BD000018ED00E000E400E014E000E0E7
:101F500018E000E010E000E06071002038B58AB0C1
:101F600004000D00DFF89806844204D101214FF4EB
:101F7000807001F076FDDFF88C06844204D10121E7
:101F80004FF4007001F06DFDDFF87C06844204D14F
:101F900001214FF4806001F064FD002006905FF4A1
:101FA00080300790002008900020099006A802F0D9
:101FB000BAFB0020009001208DF8040001208DF86C
:101FC0000500002002905FF07060039000200490F4
:101FD0008DF814506946200002F080FB012120009A
:101FE00002F0B1FB0BB030BD70B48AB00021002309
:101FF00013E0DFF818461D00EDB21C22554304EB38
:1020000005020400E4B202EB440232F8022C6C46F2
:102010001D00EDB224F815205B1C1A00D2B2142A60
:10202000E7DB00202CE06B461400E4B203EB440332
:102030005B886C461500EDB234F81540A34215D20A
:102040006B461400E4B233F814306C461500EDB260
:1020500004EB450464886D461600F6B225F8164078
:102060006C461500EDB204EB45046380521C13006E
:10207000DBB20400E4B2D4F11304A342D3DB401C6E
:102080000200D2B2142A01DA0022F0E7022007E0AF
:102090006A460300DBB232F8132011FA82F1401CC9
:1020A0000200D2B2122AF3DB0909080080B20AB09A
:1020B00070BC704780B50120FFF796FF02F0F2FB7D
:1020C0005FF06632DFF8483502F0FAFB0022DFF8F5
:1020D000443502F0CBFCDFF84025DFF8403502F054
:1020E000C5FCDFF83C25DFF83C3502F0E9FB0022B7
:1020F000DFF8343502F0E4FB02F0DCFDDFF82C15EC
:10210000A1F848000220FFF76FFF02F0CBFB5FF061
:102110006632DFF8FC3402F0D3FB0022DFF8F4343F
:1021200002F0A4FC02000B005FF06630DFF8E01460
:1021300002F090FEDFF8F824DFF8F83402F096FCA5
:10214000DFF8F424DFF8F43402F0BAFB5FF0663213
:10215000DFF8EC3402F0C0FD0022DFF8CC3402F0EE
:10216000AFFB02F0A7FDDFF8C414A1F84A0003207A
:10217000FFF73AFF02F096FB5FF06632DFF890342B
:1021800002F09EFB0022DFF88C3402F06FFCDFF8D7
:102190008824DFF8883402F069FCDFF88424DFF853
:1021A000843402F08DFB0022DFF87C3402F088FBDF
:1021B00002F080FDDFF87414A1F84C000420FFF752
:1021C00013FF02F06FFB5FF06632DFF8443402F079
:1021D00077FB0022DFF83C3402F048FC02000B00E1
:1021E0005FF06630DFF8281402F034FEDFF8402498
:1021F000DFF8403402F03AFCDFF83C24DFF83C34EE
:1022000002F05EFB5FF06632DFF8343402F064FD0A
:102210000022DFF8143402F053FB02F04BFDDFF82C
:102220000C14A1F84E0001BD80B50520FFF7DCFEBF
:1022300002F038FB5FF06632DFF8D43302F040FB87
:102240000022DFF8D03302F011FC0022DFF8F43373
:1022500002F00CFC5FF03332DFF8EC3302F030FBBD
:102260000022DFF8C43302F02BFB02F023FDDFF87D
:10227000BC13A1F85A000620FFF7B6FE02F012FBCD
:102280005FF06632DFF8883302F01AFB0022DFF8D5
:10229000843302F0EBFB0022DFF8A83302F0E6FB08
:1022A0005FF03332DFF8A03302F00AFB0022DFF8E0
:1022B000783302F005FB02F0FDFCDFF87013A1F8A3
:1022C0005C000720FFF790FE02F0ECFA5FF0663248
:1022D000DFF83C3302F0F4FA0022DFF8383302F082
:1022E000C5FBDFF86823DFF8683302F0BFFBDFF8D7
:1022F0006423DFF8643302F0E3FA0022DFF82833C6
:1023000002F0DEFA02F0D6FCDFF82013A1F850004C
:102310000820FFF769FE02F0C5FA5FF06632BC4B99
:1023200002F0CEFA0022BB4B02F0A0FB02000B0031
:102330005FF06630B64902F08DFDC44AC44B02F02E
:1023400095FBC64AC64B02F0BBFA5FF06632BC4B47
:1023500002F0C2FC0022B44B02F0B2FA02F0AAFC76
:10236000B249A1F852000920FFF73EFE02F09AFAA6
:102370005FF06632A64B02F0A3FA0022A54B02F0F2
:1023800075FB0022AF4B02F071FB5FF03332AE4BB6
:1023900002F096FA0022A44B02F092FA02F08AFCB4
:1023A000A249A1F854000A20FFF71EFE02F07AFAB3
:1023B0005FF06632964B02F083FA0022954B02F0F2
:1023C00055FB00229F4B02F051FB5FF033329E4BD6
:1023D00002F076FA0022944B02F072FA02F06AFCE4
:1023E0009249A1F856000B20FFF7FEFD02F05AFAC1
:1023F0005FF06632864B02F063FA0022854B02F0F2
:1024000035FB02000B005FF06630814902F022FDCF
:102410008E4A8F4B02F02AFB904A914B02F050FA01
:102420005FF06632864B02F057FC00227E4B02F0D2
:1024300047FA02F03FFC7D49A1F858000C20FFF755
:10244000D3FD02F02FFA5FF06632714B02F038FADA
:102450000022704B02F00AFB7C4A7D4B02F006FB27
:10246000804A814B02F02CFA00226F4B02F028FACE
:1024700002F020FC6D49A1F860000D20FFF7B4FDCB
:1024800002F010FA5FF06632614B02F019FA002296
:10249000604B02F0EBFA0022744B02F0E7FA0022E4
:1024A000734B02F00DFA00225F4B02F009FA02F0C2
:1024B00001FC5E49A1F862000E20FFF795FD02F0D5
:1024C000F1F95FF06632524B02F0FAF90022514BFB
:1024D00002F0CCFA0022654B02F0C8FA0022644BED
:1024E00002F0EEF90022504B02F0EAF902F0E2FBB2
:1024F0004E49A1F85E0001BD70B48AB000210022EF
:1025000010E05C4B1400E4B203EB84030400E4B27B
:1025100003EB440333F8023C6C461500EDB224F89B
:102520001530521C1300DBB2142BEADB00202CE028
:102530006B461400E4B203EB44035B886C46150061
:10254000EDB234F81540A34215D26B461400E4B244
:1025500033F814306C461500EDB204EB4504648882
:102560006D461600F6B225F816406C461500EDB221
:1025700004EB45046380521C1300DBB20400E4B298
:10258000D4F11304A342D3DB401C0200D2B2142ABC
:1025900001DA0022F0E7022007E06A460300DBB21E
:1025A00032F8132011FA82F1401C0200D2B2122A32
:1025B000F3DB0909080080B20AB070BC704780B52F
:1025C0000220FFF799FF02F06DF95FF06632104BC1
:1025D00002F076F900220F4B02F048FA264A274B08
:1025E00002F07AFB144A264B02F040FA0022254BF7
:1025F00002F072FB02F0A0FC0C4981F86A0001BDF8
:10260000002001400021014000220140D051002063
:1026100066660A4000FEAF40E17A14AE47E1104022
:10262000AE47E17A140E5A400000594000000020E5
:102630005C8FC2F5285C05407B14AE47E1AA594087
:1026400066660AC000002E4033F34340F6285C8FD4
:10265000C2F51340A4703D0AD7E33D408FC2F52870
:102660005CBF5C4085EB51B81EA54C400000244087
:1026700000003440106F002052B81E85EB51E8BFB7
:10268000E17A643F0000394030B400220022002289
:10269000002347E001229A400C681440944240D144
:1026A000046803251A00D2B252009540AC4304607E
:1026B00004680D791A00D2B2520095402C43046090
:1026C0000A79012A02D00A79022A1AD184680325DC
:1026D0001A00D2B252009540AC43846084684D79B0
:1026E0001A00D2B2520095402C4384604268012403
:1026F0009C40A243426042688C799C40A4B2224331
:102700004260C46803251A00D2B252009540AC431F
:10271000C460C468CD791A00D2B2520095402C43EF
:10272000C4605B1C102BB5D330BC7047002200691D
:1027300089B2084201D0012000E00020C0B27047F9
:102740000183704741837047426989B251404161BA
:10275000704770B400230023D2B211F00703DBB23C
:102760009B009A400B009BB2DB1000EB83040B0034
:102770009BB2DB1000EB83031D6A0F2611F00703E9
:10278000DBB29B009E40B54325620B009BB2DB1081
:1027900000EB83031B6A1A4389B2C91000EB810066
:1027A000026270BC7047640080B51320DFF88017A8
:1027B00088700820DFF87817C870DFF87807B0F85D
:1027C000480080B2000ADFF8681749680870DFF82F
:1027D0006407B0F84800DFF8581749684870DFF818
:1027E0005407B0F84A0080B2000ADFF8441749687D
:1027F0008870DFF84007B0F84A00DFF834174968FE
:10280000C870DFF83007B0F84C0080B2000ADFF87B
:10281000201749680871DFF81C07B0F84C00DFF892
:10282000101749684871DFF80C07B0F84E0080B205
:10283000000ADFF8FC1649688871DFF8F806B0F87E
:102840004E00DFF8EC164968C871DFF8E80690F82A
:10285000880001280DD1DFF8E006FEF7A7FEDFF8BB
:10286000D806C178891DDFF8D006DFF8D026D268F7
:10287000904701BDDFF8BC06008A6430DFF8B4166B
:102880000884DFF8B006008A6438DFF8A8164884A8
:10289000DFF8A006008A6430DFF898168884DFF835
:1028A0009406008A6438DFF88C16C884DFF8840642
:1028B000407801281BD1DFF87C06808A6430DFF87D
:1028C00074160885DFF86C06808A6438DFF86416B1
:1028D0004885DFF86006808A6430DFF858168885FE
:1028E000DFF85006808A6438DFF84816C885DFF8BC
:1028F0004406807801281BD1DFF83806808A6430CE
:10290000DFF830160885DFF82C06808A6438DFF897
:1029100024164885DFF81C06C08A6430DFF81416D8
:102920008885DFF81006C08A6438DFF80816C88585
:10293000704730B4002300230023D2B2012A02D111
:102940001D233A2401E0032306240A00050092B265
:10295000ADB2AA420CD21C00A4B20500ADB20A006E
:1029600092B2AD1AAC4202DA0800181813E012E075
:1029700002000B0092B29BB29A420CD223009BB28F
:102980000D00ADB2020092B2AD1AAB4202DA2000E5
:10299000081A00E0FFE780B230BC704780B50178CC
:1029A000427852EA0122DFF88C150A828178C278D7
:1029B00052EA0122DFF87C154A820179427952EA13
:1029C0000122DFF870158A828179C07950EA0120EE
:1029D000DFF86015C882DFF85C05008AB0F5FA7090
:1029E00041F65931884280F04A81DFF84805408A33
:1029F000B0F5FA7041F65931884280F04081DFF835
:102A00003405808AB0F5FA7041F65931884280F079
:102A10003681DFF82005C08AB0F5FA7041F65931E9
:102A2000884280F02C810120DFF8081548720120CF
:102A3000DFF800158872DFF8FC04407A012805D021
:102A4000DFF8F004807A012840F01981DFF8E4040F
:102A5000008ADFF8E014098B884207D3DFF8D4043A
:102A6000408ADFF8D014498B88420FD2DFF8C404C3
:102A7000808ADFF8C014898B884215D3DFF8B4044C
:102A8000C08ADFF8B014C98B88420DD3DFF8A404E4
:102A90000078002803D0DFF86C0C02F069FA64209B
:102AA000DFF89014C8810DE0DFF888040078002872
:102AB00003D0DFF8540C02F05BFA4FF4FA70DFF841
:102AC0007414C881DFF86C04008ADFF86814088386
:102AD000DFF86004408ADFF85C144883DFF85404B0
:102AE000808ADFF850148883DFF84804C08ADFF852
:102AF0004414C883FFF7BEFE4FF40041DFF8480CD2
:102B0000FFF720FE4FF48041DFF83C0CFFF71AFE80
:102B1000DFF82004008A02F03FFADFF81814088674
:102B2000DFF81004408A02F05EFADFF808144886E5
:102B3000DFF80004808A02F02FFADFF8F8138886A5
:102B4000DFF8F003C08A02F04EFADFF8E813C88617
:102B500082E0DFF8E003407A01283FD10122DFF86C
:102B6000D403818FDFF8CC03008EFFF7E2FEDFF89D
:102B7000C41388870222DFF8BC03C18FDFF8B403D7
:102B8000408EFFF7D6FEDFF8AC13C887DFF8A4034A
:102B9000818F002002F0B7FB0121002002F09BFB97
:102BA000DFF89003B0F84210C9B2DFF88803C08F95
:102BB000C0B202F0D2FBDFF87C03808FDFF8741321
:102BC000098E88420AD1DFF86C03C08FDFF86413E6
:102BD000498E884202D10020D6494872D548807A71
:102BE000012839D10122D348B0F84010D148808E55
:102BF000FFF79FFECF49A1F840000222CD48B0F870
:102C00004210CC48C08EFFF794FECA49A1F842009A
:102C1000C848B0F84010002002F083FB01211020CA
:102C200002F059FBC348B0F84210C9B2C148C08F86
:102C3000C0B202F092FBBF48B0F84000BD49898E97
:102C4000884209D1BB48B0F84200BA49C98E8842CF
:102C500002D10020B7498872B648407A01283FF473
:102C600078AFB448807A01283FF473AF0120B149AE
:102C700048710020AF4908710020AE49C87201BDFB
:102C800080B50178427852EA0122DFF8C01A0A8240
:102C90008178C27852EA0122DFF8B01A4A820179BB
:102CA000427952EA0122DFF8A41A8A828179C07936
:102CB00050EA0120DFF8941AC882DFF8900A008AEF
:102CC000B0F5FA7041F65931884280F02F81DFF873
:102CD0007C0A408AB0F5FA7041F65931884280F09A
:102CE0002581DFF8680A808AFA38FB2880F01E8187
:102CF000DFF8580AC08AFA38FB2880F01781DFF81D
:102D00004C0A008ADFF8441A098B884207D1DFF8A1
:102D10003C0A408ADFF8341A498B884204D00120EB
:102D2000DFF8281A487203E00020DFF8201A487202
:102D3000DFF8180A808ADFF8141A898B884207D1D5
:102D4000DFF8080AC08ADFF8041AC98B884204D069
:102D50000120DFF8F819887203E00020DFF8EC1991
:102D600088720120DFF8E41948720120DFF8DC19CD
:102D70008872DFF8D809407A012805D0DFF8CC093D
:102D8000807A012840F0AE80DFF8C009008BDFF8C0
:102D9000BC19098A884207D2DFF8B009408BDFF8F6
:102DA000AC19498A88420FD3DFF8A009808BDFF87D
:102DB0009C19898A884215D2DFF89009C08BDFF808
:102DC0008C19C98A88420DD2DFF880090078002862
:102DD00003D0DFF8300902F0CBF86420DFF86C197B
:102DE000C88137E0DFF86409008ADFF86019098BD1
:102DF000884221D1DFF85409408ADFF85019498B05
:102E0000884219D1DFF84409808ADFF84019898B9C
:102E1000884211D1DFF83409C08ADFF83019C98B34
:102E2000884209D1DFF824090078002812D0DFF8A1
:102E3000200902F09DF80DE0DFF810090078002865
:102E400003D0DFF8C40802F093F84FF4FA70DFF80B
:102E5000FC18C881DFF8F408008ADFF8F01808834E
:102E6000DFF8E808408ADFF8E4184883DFF8DC0878
:102E7000808ADFF8D8188883DFF8D008C08ADFF8A6
:102E8000CC18C883FFF7F6FCDFF8C008008A02F010
:102E900083F8DFF8B8180886DFF8B0188887DFF8FD
:102EA000AC08408A02F09FF8DFF8A0184886DFF8E7
:102EB0009C18C887DFF89408808A02F0B7F8DFF81A
:102EC0008C180887DFF88418A1F84400DFF87C0824
:102ED000C08A02F0C2F8DFF874184887DFF86C186F
:102EE000A1F8460002F082F9DFF8600800780028B7
:102EF00010D0DFF85808408F0090DFF85008038F9B
:102F0000DFF84808428EDFF84408018EDFF84408F5
:102F100002F02EF80120DFF8341848710020DFF8A5
:102F20002C1808710020DFF82418C87201BD0000B9
:102F30005C02002000000020B06F00200C02002086
:102F40001FB578E1DFF804080078002818D0DFF812
:102F5000FC07B0F84E000190DFF8F007B0F84C0025
:102F60000090DFF8E807B0F84A30DFF8E007B0F883
:102F70004820DFF8D8078189DFF8DC0701F0F8FF87
:102F80000020DFF8C81748710120DFF8C017C871AA
:102F90000020DFF8B817087143E1DFF8B0070078C8
:102FA00000281CD0DFF8A407B0F84E000290DFF82C
:102FB0009C07B0F84C000190DFF89007B0F84A0089
:102FC0000090DFF88807B0F84830DFF88007828982
:102FD000DFF87807C17ADFF8840701F0C9FFDFF86E
:102FE0006C070079002800F09A80DFF86007408CB9
:102FF000DFF85817B1F8481088423ED2DFF84C0786
:10300000B0F84800DFF84417098C884235D2DFF861
:103010003C07C08CDFF83417B1F84A1088422CD234
:10302000DFF82807B0F84A00DFF82017898C8842BB
:1030300023D2DFF81807408DDFF81017B1F84C10D5
:1030400088421AD2DFF80407B0F84C00DFF8FC160B
:10305000098D884211D2DFF8F406C08DDFF8EC1636
:10306000B1F84E10884208D2DFF8E006B0F84E0002
:10307000DFF8D816898D88421DD3DFF8D006007896
:10308000002814D0DFF8C406B0F84E000090DFF836
:10309000BC06B0F84C30DFF8B406B0F84A20DFF8D0
:1030A000AC06B0F84810DFF8B80601F061FF002068
:1030B000DFF898160871DFF89406B0F84800DFF8DA
:1030C0008C16B1F84C10643988420ADBDFF87C06B4
:1030D000B0F84A00DFF87416B1F84E10643988422F
:1030E0001DDADFF868060078002814D0DFF85C06E7
:1030F000B0F84E000090DFF85406B0F84C30DFF81E
:103100004C06B0F84A20DFF84406B0F84810DFF863
:10311000540601F02DFF0020DFF830160871DFF8AB
:103120002C06407900287CD0DFF82006C089DFF823
:103130001C1689898842FFF405AFDFF81006B0F845
:103140004800DFF80816498C88426AD3DFF8FC058E
:10315000008CDFF8F815B1F84810884261D3DFF829
:10316000EC05B0F84A00DFF8E415C98C884258D362
:10317000DFF8D805808CDFF8D415B1F84A10884202
:103180004FD3DFF8C805B0F84C00DFF8C015498D03
:10319000884246D3DFF8B405008DDFF8B015B1F8EA
:1031A0004C1088423DD3DFF8A405B0F84E00DFF89C
:1031B0009C15C98D884234D3DFF89005808DDFF8E7
:1031C0008C15B1F84E1088422BD3DFF880050078BB
:1031D000002818D0DFF87405B0F84E000190DFF831
:1031E0006C05B0F84C000090DFF86005B0F84A308C
:1031F000DFF85805B0F84820DFF850058189DFF87E
:10320000680501F0B5FE0020DFF840154871012087
:10321000DFF83815C8710020DFF830150871FFF7A6
:10322000C3FA03A801900820009005230022002182
:10323000002002F095F9DFF81405C07900283FF46A
:10324000CEAEDFF80805C07A401CDFF80015C87262
:10325000DFF8F804C07A14283FDBDFF8F0040078C8
:1032600000281CD0DFF8E404B0F84E000290DFF82C
:10327000DC04B0F84C000190DFF8D004B0F84A004C
:103280000090DFF8C804B0F84830DFF8C004828945
:10329000DFF8B804C17ADFF8D40401F069FEDFF882
:1032A000AC040078002803D0DFF8C40401F060FE0D
:1032B0000020DFF8981488810020DFF8901408724D
:1032C0003320DFF88814C8720020DFF88014C8713A
:1032D0000120DFF87814087181E6DFF87004B0F897
:1032E0004800DFF86814098A401A02F031FA0B2806
:1032F00061DBDFF85804B0F94800DFF85014B1F989
:103300001040041B200000B2012829DBDFF83C0438
:10331000808F1430B0F5805F05DB40F6FF70DFF87A
:103320002C14888712E0200000B21F2807DBDFF88A
:103330001C04808F0A30DFF81414888706E0DFF859
:103340000C04808F401DDFF804148887DFF8FC032D
:10335000818F002001F0D7FF0121002001F0BBFF89
:10336000200000B2002826D5DFF8E003808F142863
:1033700004DA0020DFF8D413888712E024B214F1B5
:103380001E0F07DADFF8C403808F0A38DFF8BC139A
:10339000888706E0DFF8B403808F401FDFF8AC13A6
:1033A0008887DFF8A803818F002001F0ACFF01219E
:1033B000002001F090FFDFF89403B0F84A00DFF836
:1033C0008C13498A401A02F0C3F90B285CDBDFF842
:1033D0007C03B0F94A00DFF87413B1F91240041B02
:1033E000200000B2012829DBDFF86003C08FC01C79
:1033F000B0F5807F04DBFF20DFF85013C88712E0B0
:10340000200000B21F2807DBDFF84003C08F801CBC
:10341000DFF83813C88706E0DFF83003C08F401CA0
:10342000DFF82813C887DFF82403B0F84210C9B2C8
:10343000DFF81803C08FC0B201F08FFF200000B288
:10344000002821D5DFF80403C08F032804DA002008
:10345000DFF8F812C8870EE024B214F11E0F05DA67
:10346000BA48C08F801EB949C88704E0B748C08FEA
:10347000401EB649C887B548B0F84210C9B2B34833
:10348000C08FC0B201F069FFB0484078002800F05A
:10349000D180AE48B0F84C00AC49898A401A02F09D
:1034A00057F90B285FDBA948B0F94C00A749B1F9DF
:1034B0001440041B200000B2012829DBA348B0F807
:1034C00040001430B0F5805F05DB40F6FF709F4987
:1034D000A1F8400012E0200000B21F2807DB9B4843
:1034E000B0F840000A309949A1F8400006E097483A
:1034F000B0F84000401D9549A1F840009348B0F84D
:103500004010002001F00DFF0121102001F0E3FE2A
:10351000200000B2002826D58C48B0F840001428BE
:1035200004DA00208949A1F8400012E024B214F125
:103530001E0F07DA8548B0F840000A388349A1F821
:10354000400006E08148B0F84000401F7F49A1F8E4
:1035500040007E48B0F84010002001F0E2FE01215A
:10356000102001F0B8FE7948B0F84E007749C98ABA
:10357000401A02F0EDF80B285CDB7448B0F94E00FD
:103580007249B1F91640041B200000B2012827DB64
:103590006E48B0F84200C01CB0F5807F04DBFF200D
:1035A0006A49A1F8420012E0200000B21F2807DBA0
:1035B0006648B0F84200801C6449A1F8420006E069
:1035C0006248B0F84200401C6049A1F842005F48E0
:1035D000B0F84210C9B25D48C08FC0B201F0BDFE64
:1035E000200000B2002825D55848B0F84200032832
:1035F00004DA00205549A1F8420012E024B214F187
:103600001E0F07DA5148B0F84200801E4F49A1F85A
:10361000420006E04D48B0F84200401E4B49A1F878
:1036200042004A48B0F84210C9B24848C08FC0B200
:1036300001F093FE03A8019008200090502300227F
:103640000021002001F08CFF4048B0F848003F49BD
:10365000498C8842FFF4A1AC3C48008C3B49B1F84E
:1036600048108842FFF499AC3848B0F84A0037490E
:10367000C98C8842FFF491AC3448808C3349B1F84E
:103680004A108842FFF489AC3048B0F84C002F490A
:10369000498D8842FFF481AC2C48008D2B49B1F84C
:1036A0004C108842FFF479AC2848B0F84E00274906
:1036B000C98D8842FFF471AC2448808D2349B1F84C
:1036C0004E108842FFF469ACFFF76EF81F4800788F
:1036D00000283FF484AC1D48B0F84E0002901B480F
:1036E000B0F84C0001901948B0F84A000090174813
:1036F000B0F84830154882891448C17A1D4801F055
:1037000037FC6CE4BCF10208C8F1020880B58AB04D
:1037100009A808900320079000200690002005903B
:10372000002004904FF480600390662002901248BD
:103730000190142000900023104A1149114802F012
:103740000BF80BB000BD0000001802400000002084
:103750000CF1020898EE020854EB0208C8EA0208CD
:10376000C8EB02080CEF020818EB020820EA020876
:103770005CF0020874EA02089C020020412F020853
:103780001CF102080063002000220368514A134024
:103790000A681343CA6813434A6913438A69134387
:1037A000CA6913430A6A13434A6A13438A6A134372
:1037B0004A6B13438A6B134303604369DB08DB00E6
:1037C000CA6A13430A6B134343610A6942604A6839
:1037D00082608968C1607047C9B2002904D001685D
:1037E00051F00101016003E00168490849000160EE
:1037F000704789B241607047406880B27047344A70
:10380000904201D2344A00E0344A880003D534485B
:103810000140D16002E032480140916070470B06E0
:103820000CD51300DBB2002B04D0436953F08003A6
:10383000436103E0436933F08003436180290ED084
:10384000D2B2002A05D0026811F01E0111430160B6
:1038500005E0026811F01E0132EA010101607047C3
:103860000022002200221A4A904201D21A4B00E0A4
:103870001A4B1C4A114206D00A00D20A12F01E024C
:103880000068024002E0426912F08002880001D51F
:103890005B6800E01B68124803400B4203D0002A1B
:1038A00001D0012000E00020C0B27047084A9042D9
:1038B00001D2094A00E0094A880003D508480140BE
:1038C000D16002E0064801409160704700000000AE
:1038D000106402403F801CF000600240006402401F
:1038E0007D0F7D0F3C0F3C0F0021DFF8A0211170F0
:1038F0000021DFF898211170C0B2012802D00428FD
:1039000005D009E00120DFF88411087004E00520EB
:10391000DFF878110870FFE77047002100210021CF
:10392000022100210221DFF85C11096811F00C016D
:10393000002904D0042906D0082908D033E0DFF894
:103940005011016032E0DFF84C1101602EE0DFF829
:1039500038110968C1F38051DFF82C21126812F088
:103960003F0200290AD0DFF82C11B1FBF2F2DFF898
:1039700018110968C1F388114A4309E0DFF81011F2
:10398000B1FBF2F2DFF800110968C1F388114A4374
:10399000DFF8F4100968C1F30141491C4900B2FB8A
:1039A000F1F1016002E0DFF8E8100160DFF8D41007
:1039B000096811F0F0010909DFF8DC20515C0268A8
:1039C000CA404260DFF8BC10096811F4E051890A6E
:1039D000DFF8C420515C4268CA408260DFF8A4105E
:1039E000096811F46041490BDFF8AC20515C426872
:1039F000CA40C2607047C9B2002907D0DFF89C10E6
:103A000009680843DFF89410086007E0DFF88C10BD
:103A1000096831EA0000DFF8841008607047C9B215
:103A2000002907D0DFF8781009680843DFF8701024
:103A3000086005E01A49096831EA00001849086081
:103A40007047C9B2002905D01649096808431549CD
:103A5000086005E01349096831EA0000114908606F
:103A60007047C9B2002905D00F49096808430E49BB
:103A7000086005E00C49096831EA00000A4908605D
:103A80007047000008380240043802407038024095
:103A90000024F40000127A00340200203038024082
:103AA0003438024040380240443802402549084337
:103AB000254908607047002100210F23C1780029A3
:103AC0001FD02149096811F4E061D1F5E061090ACC
:103AD000D1F10402DBB20B41417811FA02F2817894
:103AE0000B401A43120119490378CA540121027884
:103AF00012F01F029140164A0078401142F820103F
:103B000009E00121027812F01F029140114A007869
:103B1000401142F8201070470F4A114008430F49E6
:103B200008607047042806D10D48006850F0040072
:103B30000B49086005E00A48006830F004000849B5
:103B4000086070470000FA050CED00E000E400E0BA
:103B500000E100E080E100E080FFFF1F08ED00E0F1
:103B600010E000E010B5040002F0D3FC0020DFF804
:103B7000481808700020DFF8441808700020DFF8AB
:103B8000681808700020DFF8641808600020DFF86B
:103B9000601808600020DFF85C1808700020DFF86B
:103BA000581808700020DFF8901808700020DFF81F
:103BB0008C1808600020DFF8881808600020DFF803
:103BC000841808600020DFF880180870DFF87C088F
:103BD00000680A21B0FBF1F0DFF8AC180860DFF8EC
:103BE000AC08006800280ED0DFF8A408016800299E
:103BF00009D0DFF89808006803E0401E00220A6040
:103C0000091D0028F9D10020DFF88818086000207D
:103C1000DFF8841808600020DFF8801808600020B2
:103C2000DFF87C1808600020DFF8781808600020B2
:103C3000DFF8741808600020DFF8701808600020B2
:103C4000DFF88819087002F039FD00F0A0FB2000B1
:103C500002F07EFD2088002845D1200002F06CFE95
:103C6000208800283FD1200002F074FE2088002820
:103C700039D1200003F092F92088002833D12000A8
:103C800003F0A8F9208800282DD1200003F024FAA1
:103C90002088002827D1200002F0F8F8208800288A
:103CA00021D1200003F0E6FB208800281BD1200052
:103CB00000F0ADF92088002815D1200003F0D8FCD1
:103CC000208800280FD1200004F000F92088002867
:103CD00009D1200004F06CFA2088002803D104F0F8
:103CE00077FB04F049FC10BDDFF8D006007801280E
:103CF0000BD1DFF8C4060078FA2806DADFF8B80638
:103D00000078401CDFF8B0160870704710B500202E
:103D1000DFF8A8060078012857D104F0A1FC0400C0
:103D2000DFF894060078002803D1200004F09CFC02
:103D30004BE0DFF884060078401EDFF87C16087040
:103D4000DFF874060078002803D0200004F08CFC13
:103D50003BE0DFF894060078002803D0200004F050
:103D600083FC32E002F0B4FCDFF88C160870DFF858
:103D70006018DFF8840602780C2042438858DFF888
:103D800070160860DFF868060068DFF860160968DA
:103D9000884203D1200004F067FC16E0DFF85006EB
:103DA0000068D0F88C00401CDFF844160968C1F8A0
:103DB0008C00DFF8D4080068401CDFF8CC180860DD
:103DC00004F077FC200004F04FFC10BD10B500207B
:103DD000DFF8E405007800283AD1DFF80C06007817
:103DE000002835D104F03CFC040002F071FCDFF83F
:103DF00008160870DFF8D817DFF8FC0502780C20E9
:103E000042438858DFF8E8150860DFF8E4050068E9
:103E1000DFF8D8150968884203D1200004F024FC9B
:103E200016E0DFF8CC050068D0F88C00401CDFF805
:103E3000C0150968C1F88C00DFF84C080068401C08
:103E4000DFF84418086004F030FC200004F00CFC9B
:103E500010BD38B504000020DFF85C0500780028AC
:103E600003D046F66250208022E0DFF8500500784B
:103E7000012803D045F68960208019E0DFF80C089E
:103E80000078FA2803DB45F20920208010E004F0D6
:103E9000E7FB0500DFF8F4070078401CDFF8EC17BB
:103EA000087000F072FB280004F0DEFB0020208088
:103EB00031BD38B504000020DFF8FC04007800288C
:103EC00003D046F66550208030E0DFF8F00400783B
:103ED000012803D045F68960208027E0DFF8AC0791
:103EE0000078002803D146F6645020801EE004F0DC
:103EF000B7FB0500DFF894070078401EDFF88C1749
:103F00000870DFF888070078002806D0280004F041
:103F1000ABFB46F66350208008E000F040FB280031
:103F200004F0A2FBFFF752FF0020208031BD70B5E6
:103F300006000C001500002004F092FBF6B2012EE2
:103F400004D00021DFF80025117003E00121DFF823
:103F5000F8241170002C03D0DFF82C150C6008E059
:103F6000DFF8E81409680A22B1FBF2F1DFF818253E
:103F7000116004F079FB0020288070BD10B50400AA
:103F8000DFF838040078002825D102F0A1FBDFF823
:103F900068140870DFF860040078DFF858140870BF
:103FA000DFF82C16DFF8500402780C2042438858C2
:103FB000DFF83C140860DFF838040068DFF82C14E0
:103FC00008600120DFF8F413087004F05FFB43F68B
:103FD0009920208002E045F68A60208010BD80B5DF
:103FE0000020684604F03CFBDFF8A4160968491C71
:103FF000DFF89C261160DFF89C160968491CDFF881
:104000009426116004F030FB02F07AFAEAE700B57A
:1040100089B00021DFF87826116008900B20079006
:10402000002006900020059000200490DFF868062C
:1040300000680390DFF8640600680290DFF860060D
:10404000006801903F2000900023DFF85826DFF839
:104050005816DFF8580601F07FFB09B000BD70B5B7
:1040600005000C00DFF88403006880F8342000208D
:10407000DFF87813096881F835001900DFF86C0360
:10408000006800F0ECFA002C0ED014F10806EC6089
:1040900001222900DFF85403006800F016F8290017
:1040A000300000F083F809E00020DFF840130968D1
:1040B000C8870020DFF8341309680863DFF82C0391
:1040C0000168200000F01DF870BD30B4C2870163A4
:1040D00000230EE000244C6000240C6000240C61DE
:1040E00000244C6100240C830024CC6188602031C2
:1040F0005B1C1C001500A4B2ADB2AC42EAD330BCCC
:104100007047002809D04268C1F8BC2010F10801AE
:1041100009688968096AC16113E091F834000228CE
:1041200002D0072805D009E0DFF88405C1F8BC00FB
:1041300007E0DFF88005C1F8BC0002E009A0C1F883
:10414000BC00704707A2C1F8BC2010F10801096843
:10415000002903D08968096AC16101E001A1C16138
:10416000704700002000000070B580F83710056B24
:10417000C48F0FE0E86810F108063089022807D3E1
:104180002900300000F060F82900300000F00EF83F
:104190002035641E200080B20028EBD170BD0021C4
:1041A00001600021416000210181704730B40200AC
:1041B000886890F837301089002808D101201081D4
:1041C00000204860002008601160516025E01089DF
:1041D000401C1081106800E04068002806D0846808
:1041E0001D0094F83740EDB2A542F5D2002806D163
:1041F0000020486050680860416051600DE003682D
:10420000002B05D1016000230B604860116004E0C1
:1042100002680A6048605160016030BC704770B548
:104220000400266BE58F06E0F0680830310000F0EE
:104230000BF820366D1E280080B20028F4D1002033
:10424000E0870020206370BD0289012A04D100228A
:1042500002600022426013E00A68002A04D14A6822
:104260000023136002600BE04A68002A04D10A6848
:1042700000235360426003E00A684B6853601A6091
:104280000289521E028100204860002008607047A9
:1042900038B504000D00049895F8361000290BD0AD
:1042A00002290AD008D3042906D006D3062930D023
:1042B00002D307292DD055E054E095F83410032996
:1042C00006D100909BB22900200000F04CF803E0DA
:1042D000AA65A5F85C302864002C06D02800FFF7FA
:1042E0009EFF29002000FFF72DFF95F836000328D8
:1042F00002D1280003F0B8FA280000F061F800208D
:1043000085F83600002085F83500002085F8340057
:1043100028E095F83410032906D100909BB22900BB
:10432000200000F020F803E0AA65A5F85C302864BE
:10433000002C06D02800FFF772FF29002000FFF7AD
:1043400001FF95F83600072802D1280003F08CFA07
:10435000042085F83600002085F83500002085F817
:104360003400FFE731BD30B40D6BCC8F01E0203558
:10437000641E210089B2002907D0E9688842F6D17D
:10438000029928616A612B83E96130BC7047002182
:104390000DE08F4A0B00DBB20C20434302EB03001D
:1043A000002202810022026000224260491C0800B3
:1043B000C0B24028EDD37047B8710020B971002019
:1043C00010B5040094F8370002F092F994F8370021
:1043D00008490978884203D1200000F039F802E04A
:1043E000200000F00BF810BDBD71002058710020B6
:1043F0005C710020BA710020BB710020744A90F8F3
:1044000037300C214B431A441189002908D101216E
:1044100011810021C160002101611060506009E03C
:104420001189491C11811168C16000210161116865
:104430000861106070470000BC7100200C71002002
:104440001071002014710020BE71002050F202088B
:104450005F4A90F837300C214B431A4411890029E8
:1044600008D1012111810021C1600021016110608A
:10447000506008E01189491C11810021C160516818
:104480000161C860506070471871002028F202086E
:1044900024F20208D0700020D4700020D8700020D0
:1044A000DC700020E0700020E4700020E870002044
:1044B00010B40189002902D0022901D00BD215E0E5
:1044C000016842680A610023CB6000231361D16058
:1044D000026041600AE001684268CB6800241C6108
:1044E0000024CC600A61D1600360416010BC704759
:1044F00010B50400364994F837200C2042430A4492
:104500002169E068002913D100280AD10020108118
:10451000002010600020506094F8370002F0FEF890
:104520000FE01189491E118100210161106008E02E
:1045300013895B1E1381C860002801D1516000E01F
:104540000161002020610020E06010BD10B5002056
:1045500004F086F80400002057490870574858496D
:10456000086057480068D0F88C00401C544909681E
:10457000C1F88C0044480068401C4349086004F0BE
:1045800094F8200004F070F810BD80B53F48007822
:10459000012803D104F0E0F84A49086001BD80B564
:1045A0003A480078002810D104F0D6F84549096847
:1045B000411A45480068884201D243480160434897
:1045C0000068884201D24148016001BDC1710020EC
:1045D000D04E002038B5040000203D480078012866
:1045E0003CD104F03DF805002168002903D12800E2
:1045F00004F03AF832E02D48814203D1280004F05B
:1046000033F82BE0486D002802D0486D401E486505
:10461000486D002803D0280004F026F81EE0208909
:10462000022803DA280004F01FF817E01748007882
:10463000002803D0280004F017F80FE02000FFF74F
:1046400037FF2168086D002803D1224800684865BB
:1046500001E0086D4865280004F006F831BD10B58A
:1046600004000A00002A07D021001B4803F060F86C
:10467000032084F8360002E0022084F8360020008F
:10468000FFF736FF10BD000030710020BD71002023
:10469000EC7000202071002004F2020800F20208F1
:1046A000FCF10208DF3F020898F00208C069002010
:1046B000ECF10208D4F10208BB710020806A0020EE
:1046C0005C7100200C71002010710020147100201A
:1046D000BE71002018710020B870002010B40022B4
:1046E000002344686B4A14400A7954EA02240A6899
:1046F000144344608468684A14400A691443CA68D1
:1047000014438A6814434A7954EA42048460C26AB2
:1047100032F47002097D491E0B43DBB252EA0352A8
:10472000C26210BC704700215C490A685C490A40BB
:1047300001680A4341680A4381680A43C06802432A
:10474000564802607047C9B2002904D0816851F010
:104750000101816003E08168490849008160704778
:10476000C0B2002806D04D48006850F400004B4904
:10477000086005E04948006830F4000047490860D7
:104780007047F0B4002400240C00E4B20A2C13DBC0
:10479000C5680726B1F10A04032714FB07F416FACB
:1047A00004F4A543DBB2B1F10A04032614FB06F4BA
:1047B000A3402B43C3600EE005690726032411FBC9
:1047C00004F416FA04F4A543DBB2032411FB04F449
:1047D000A3402B4303611300DBB2072B11DA436BB9
:1047E0001F25541E052614FB06F415FA04F4A343F2
:1047F000C9B2521E052412FB04F2914019434163D1
:1048000027E01300DBB20D2B11DA036B1F25D41F39
:10481000052614FB06F415FA04F4A343C9B2D21F0B
:10482000052412FB04F291401943016311E0C36AAD
:104830001F25B2F10D04052614FB06F415FA04F445
:10484000A343C9B20D3A052412FB04F29140194367
:10485000C162F0BC7047816851F08041816070474F
:10486000C9B2002904D0816851F48071816003E0ED
:10487000816831F4807181607047C9B2002904D029
:10488000816851F40071816003E0816831F4007146
:1048900081607047FFFEFFFCFDF7FFC0042301406D
:1048A000E030FCFF50B1B0FA80F18840C91CC1F57E
:1048B0008461090501EBD02140057047014670472E
:1048C00030B540F2FF7C1CEA11541DBF1CEA1355A1
:1048D000644565453FE0641981EA030C6FF35F535B
:1048E0000CF0004C43F48013C90241F0004141EA4E
:1048F000505EC5021100A5FB020200284FF0000027
:10490000EEFB01204FF00001E3FB052118BF42F050
:104910000102401800214941E3FB0E01A4F5806427
:104920000D0302D292184041494154F1010470DD57
:10493000450872F1004250F1000051EB0451A1F51D
:10494000801102D441EA0C0130BD40F2FF7E4CEAF6
:104950000E51002030BD0CEA1355644518BF654563
:1049600081EA030C0CF0004C41D050EA410E1CBF10
:1049700052EA430E02E06146002030BD24422C443E
:104980001BD15FEA050EF6D0090302BF01460020E5
:10499000AEF1140EB1FA81F5AEEB050401FA05FE95
:1049A0000C35C5F1200100FA05F5C8404EEA000EAD
:1049B0006FF35F5343F480139CE733F00043B3FA83
:1049C00083F504BFB2FA82FE75440B3D641BB5F15A
:1049D000200E2FBF02FA0EF3AB40C5F1200E22FAD3
:1049E0000EFE38BF43EA0E03AA40641C7CE750EA7F
:1049F000410E14BF52EA430E6FF000014FF4001550
:104A000015EB430F8EBF194615EB410F9DE7B4D848
:104A100030BDD4F10104B4F120050FDAC4F1200552
:104A2000520828BF42F0010210FA05FE01FA05F50E
:104A30007244E2BFE0402843E1400FE0352C9ADCAD
:104A4000C5F1200452EA400220FA05F218BF42F0F4
:104A5000010231FA05F0A1400A43002172F100423F
:104A600050F1000051EB0C0130BD2800F0B540F2D0
:104A7000FF7581EA030C0CF0004C15EA11541DBFC0
:104A800015EA1357AC42AF42E5E0BC41C1F3130154
:104A9000C3F31303801A994143F4801304D2641EB4
:104AA0000018494180185941C90241EA5051B1FBEF
:104AB000F3F603FB1611A2FB0675D7EBC020A94144
:104AC00002D2761E80185941C90241EA5051B1FB09
:104AD000F3FE03FB1E11A2FB0E75D7EBC020A9410C
:104AE00003D2AEF1010E80185941890241EA90517A
:104AF000760546EA8E2EB1FBF3F603FB1611A2FBF8
:104B00000675D7EB8020A94102D2761E8018594144
:104B1000C90241EA50514EEA060EB1FBF3F603FB1F
:104B20001611A2FB0675D7EBC020A94102D2761E52
:104B300080185941C90241EA5051B1FBF3F703FB18
:104B40001711A2FB0735D3EBC020A94167F100077D
:104B50000CBF004247F0010766F3D5274FEA1E312C
:104B6000B80814F5806412DDBD0775F1004250EB02
:104B70000E5051EB045111F5801F5CBF41EA0C014E
:104B8000F0BD4CF07F6141F0E0410020F0BDBD0779
:104B90006D0840EA0E5041F48011D4F10104B4F1E3
:104BA00020060ADAC4F120060200E04001FA06F30A
:104BB000E1401843B24015430EE0342C13DCC6F13B
:104BC000200445EA40056D0820FA06F2154321FA53
:104BD00006F0A1400D43002175F1004250F10000A4
:104BE00051EB0C01F0BD00205FEA0C01F0BDCFB924
:104BF00092185B41B3FA83F704BFB2FA82F6BF1989
:104C00000B3FB7F120062FBF02FA06F3BB40C7F1F6
:104C1000200622FA06F638BF3343BA401CB1E41925
:104C2000641E33E77F4231F00041B1FA81F404BFE2
:104C3000B0FA80F6A4190B3CB4F120062FBF00FA9D
:104C400006F1A140C4F1200620FA06F638BF314330
:104C5000A0403C1B1AE7AC421ABF05EA1357AF420B
:104C600012E050EA41061CBF52EA4306BFE750EA91
:104C70004107304661461CBF41EA0551F0BD52EA8A
:104C8000430C08BFC143F0BD00204FF4001616EBE3
:104C9000410F98BF16EB430F08BF16EB410F24BF1F
:104CA000C14305E016EB430F0CBF61464CEA0551CA
:104CB000F0BD0400400D40F21E4C40EAC120BCEBA8
:104CC000115C40F0004003D48CF30701C8407047EA
:104CD0006FEAE1707047200070B491EA030F4FF063
:104CE000004540F1BF806B40841A71EB030604D28B
:104CF0006E40001BB141121973414FF4001C1CEBB4
:104D0000410F34BF7CEB430683E00C0DA4EB13563C
:104D1000362E00F37C80012E45EAC32341DC43EAB2
:104D2000525312BFD20292025B08240545EAC12108
:104D300041EA5051D2EBC020994125D407D1B0FAB5
:104D400080F610FA06F162D00020203608E0B1FAB1
:104D500081F6B140C6F1200220FA02F21143B040C0
:104D60004FEAF474B4EB465434F001064FEA74048D
:104D70000AD8D6F50016760D04F00044F04061FA2A
:104D800006F25040F1404840C00A40EA415021F04C
:104D9000004128BF5FEA500550F1000044EBD121EB
:104DA00035E0DB0A45EAC121C90AB6F120050EDD6E
:104DB00042EA0242120CC5F1200603FA06F6EB4065
:104DC00042EA06056D42984161F100010DE062FA88
:104DD00006F5F240554063FA06FC82EA0C02F34005
:104DE0005A406D42904161EB030111F4801F05D1DF
:104DF000641E620502D06D004041494121F48011DA
:104E0000430875F1004350F1000041EB045170BCC0
:104E100070471CEB410F15D223F0004352EA4306C2
:104E20000BD04FEA4C0CBCEB410F04D80C0D661EA6
:104E3000342EB7DDEBE7801A994150EA410608BFEE
:104E40000021E4E708BF1CEB430F28BF6FF000010F
:104E5000DDE7000070B491EA030F4FF000457FF5E5
:104E600043AF6B40841A71EB030603D2001BB141C0
:104E7000121973414FF4001C1CEB410F34BF7CEB43
:104E8000430442E00C0DA4EB1356352E4FDC45EAEB
:104E9000C323DB0A45EAC121C912B6F120050DDDA5
:104EA00063FA05F6EB4086EA0305124218BF45F0A7
:104EB0000105C01851F100010CD213E062FA06F5A9
:104EC000F2405540F3415A40B340F3405A408018F5
:104ED000594107D349085FEA30005FEA350528BF2A
:104EE00045F0010501F58011420875F1004250F1CD
:104EF000000041EB04514E0016F5001F70BC38BF96
:104F000070470020090D090570471CEB410F10D2B6
:104F100052EA43060BD0BCEB410F05D80C0DAB4356
:104F2000661E342EB6DD02E0AB438018594170BCDA
:104F3000704770BC70472000C1F30A5340F21E4214
:104F4000D31A0CDDCA0283F3070342EA505242F03F
:104F50000042DA4002EBE17282EAE17070476FEAE8
:104F6000E17203F2E13008B182F0004070471000B6
:104F70000EB4C0B5024603A800210190009101AB18
:104F80000121044878440C3003F0FCFB06BC5DF8BA
:104F900010FB00BF91A0000080B580B2FFF782FC3B
:104FA0000022A24BFFF762FDA14AA24BFFF75EFD74
:104FB00002000B00A048A149FFF74CFF03F072FC70
:104FC00003F0A4FC5FF066329D4BFFF74FFD00221B
:104FD0009C4BFFF775FC00229B4BFFF77DFEFFF714
:104FE000ABFF80B202BD80B580B2FFF75BFC974A91
:104FF000974BFFF765FC00228C4BFFF737FD020053
:105000000B0094489449FFF725FF03F04BFC5FF039
:105010008B4103F09FFC03F079FC904A904BFFF723
:1050200025FDFFF789FF001180B202BD80B580B277
:10503000FFF738FC5FF066328A4BFFF741FC002235
:105040007A4BFFF713FD02000B0000208649FFF7A3
:1050500001FFFFF771FF80B202BD80B580B2FFF79C
:1050600021FC5FF03332814BFFF72AFC00226F4BAB
:10507000FFF7FCFC02000B0000207D49FFF7EAFE71
:10508000FFF75AFF80B202BD80B5010089B2002946
:1050900007D080B2FFF780FF764908867549888778
:1050A00003E040F68C20734988877248818F002086
:1050B00000F029F90121002000F00DF901BD80B5B3
:1050C000010089B2002908D080B2FFF765FF694965
:1050D00088866849A1F8400004E040F68C206549C4
:1050E000A1F840006348B0F84010002000F019F922
:1050F0000121102000F0EFF801BD10B50C000100F7
:1051000089B2002907D080B2FFF76DFF5949488660
:105110005849C88702E0FF205649C887200080B25E
:10512000002809D0200080B2FFF75DFF5149C886F2
:105130005049A1F8420003E0FF204E49A1F8420087
:105140004C48B0F84210C9B24A48C08FC0B200F013
:1051500004F910BD10B50C0080B2FFF767FF454998
:1051600008874449A1F84400200080B2FFF775FF8A
:10517000404948873F49A1F846003E48B0F84610EC
:10518000C9B23C48B0F84400C0B200F033F910BDD9
:1051900080B540F68C21002000F0B5F801210020F8
:1051A00000F099F840F68C21002000F0BAF80121B7
:1051B000102000F090F8FF21FF2000F0CEF801BD94
:1051C00080B5FF21FF2000F015F901BD80B5FFF784
:1051D000DFFFFFF7F5FF4FF400412748FDF7B0FA76
:1051E0004FF480412448FDF7ABFA01BD80B54FF480
:1051F00000412148FDF7A6FA4FF480411E48FDF713
:10520000A1FA1C48008AFFF73FFF0020FFF757FF75
:1052100000211848408AFFF770FF1648C18A1548D8
:10522000808AFFF797FF01BD000000000000594091
:105230009A99999999994540F853E3A59BC40040E0
:1052400066660A4000FEAF400000E03F5A643BDF64
:105250004F8D973F62105839B4C80040FCA9F1D275
:105260004D62004066663C400070714033333D4003
:1052700000E07340000000200018024010B400223B
:1052800000222F4A136840F6FE72824093430C6856
:105290004A6814438A681443C9680C4314FA00F03E
:1052A00018432749086010BC7047C9B2002908D0CC
:1052B00023490968012212FA00F0084320490860D6
:1052C00008E01F490968012212FA00F031EA0000E3
:1052D0001B4908607047C9B2002909D019490968FB
:1052E0000122000912FA00F008431649086009E09B
:1052F000144909680122000912FA00F031EA00009D
:1053000010490860704781B0002200920C4A009258
:10531000009A80180830009089B20098016001B0AE
:10532000704781B000220092054A0092009A8018CE
:105330001430009089B20098016001B070470000FD
:10534000007400400474004080B5002302224FF432
:1053500000614F4803F06AFB01BD38B504000D0041
:105360004FF400514B48FDF7EDF949F2010148486F
:1053700003F0C8FB4FF47A6003F086FD4FF4005150
:105380004448FDF7DDF94FF4FA6003F07DFD4FF47A
:1053900000514048FDF7D6F9EDB22D0155F4805586
:1053A000290089B23A4803F0ADFB4FF47A6003F06C
:1053B0006BFD4FF400513748FDF7C2F94FF4FA6026
:1053C00003F062FD4FF400513248FDF7BBF9E4B23F
:1053D000240154F40044210089B22D4803F092FBCB
:1053E0004FF47A6003F050FD4FF400512948FDF767
:1053F000A7F931BD38B504000D004FF480412548B0
:10540000FDF7A0F949F20101214803F07BFB4FF4BD
:105410007A6003F039FD4FF480411E48FDF790F9A2
:105420004FF4FA6003F030FD4FF480411948FDF766
:1054300089F9EDB22D0155F48055290089B214483F
:1054400003F060FB4FF47A6003F01EFD4FF48041DF
:105450001048FDF775F94FF4FA6003F015FD4FF4AD
:1054600080410C48FDF76EF9E4B2240154F4004485
:10547000210089B2064803F045FB4FF47A6003F03F
:1054800003FD4FF480410348FDF75AF931BD000098
:10549000003C00400004024070B504000E001500FE
:1054A0000020DFF890020078002803D047F2752032
:1054B000288054E0DFF880020078002803D046F608
:1054C000635028804BE0300080B2002805D00228CD
:1054D00003D004282AD0082829D1002C03D147F270
:1054E0007E2028803BE003F0BBF8DFF84C120978FF
:1054F000491CDFF84422117003F0B6F82B0032008B
:1055000092B22100DFF83402006802F057F92888CF
:10551000002810D003F0A4F8DFF81C120978491E07
:10552000DFF81422117003F09FF818E0DBE745F66E
:105530002560288013E0DFF804020068FEF7D8FF3A
:1055400003F08EF8DFF8F0110978491EDFF8E82142
:10555000117003F089F8FEF739FC0020288070BD37
:10556000F8B50E00079C0021DFF8C8110978002962
:1055700003D047F275202080C1E0DFF8BC11097824
:10558000002903D046F663502080B8E0069911F058
:105590000E073D00ADB2002D05D0022D03D0042D25
:1055A00019D0082D18D1002B0FD11500ADB2002D48
:1055B0000BD13500ADB2002D07D10500ADB2002DE5
:1055C00003D147F27E20208099E04FF6E175294211
:1055D00006D1002505E0F8E745F6256020808EE03D
:1055E0000125EDB2012D03D145F62560208086E02E
:1055F000C9B2090911F00101C9B201291ED0B3F5E0
:105600007A7F03D347F27B20208078E0110089B2B3
:105610003C2903DB47F27A20208070E0310089B218
:105620003C2903DB47F27920208068E0010089B241
:10563000642916DB47F27820208060E0310089B2CF
:1056400042F21075A94203DB47F27920208056E030
:10565000010089B2B1F57A7F03DB47F27820208020
:105660004DE037490D6880B24FF4616CB6B23C2111
:105670004E430CFB006010FA82F14FF4FA70B0FB5D
:10568000F5F0C31803FB05F34FF47A70B3FBF0F0A9
:1056900005FB0105002D2FD002F0E2FF2649097815
:1056A000491C254A117002F0DFFF23003A0092B234
:1056B00029002248006802F081F82088002809D0DB
:1056C00002F0CEFF1C490978491E1B4A117002F0F6
:1056D000CBFF14E019480068FEF70AFF02F0C0FF94
:1056E00015490978491E144A117002F0BDFFFEF7F2
:1056F0006DFB0020208002E047F27E202080F1BD7B
:1057000018B585B000F0B5FF03F026F804A90391A1
:1057100002900020019000200090002300220949FF
:10572000094804780C2044432144084801F03CFD1A
:1057300006B010BDB8710020BD7100205871002066
:1057400050F20208D04E0020BA7100205449434B59
:10575000002848BF404270472DE9F34F83B0984678
:10576000DDF858900021DFF890150978002904D061
:1057700047F24A10A9F80000F3E00400002C04D11D
:1057800047F2AD10A9F80000EBE002920298002861
:1057900004D147F24F10A9F80000E2E00F9D002D60
:1057A00004D146F62F60A9F80000DAE0DDF844B035
:1057B000DFF8F4050068834504D246F63060A9F8A6
:1057C0000000CEE0DDF840A0DA4504D346F63160B3
:1057D000A9F80000C5E00E9E3000C0B2402804D3F6
:1057E00046F27320A9F80000BBE03000C0B20028E8
:1057F00008D1DFF80806844204D046F27320A9F8E5
:105800000000AEE03000C0B23F2808D1DFF8F0055C
:10581000844204D046F27320A9F80000A1E0159F4D
:10582000200000F047FB0020A9F80000F8070AD587
:10583000B80708D52900002003E000220A60091DEE
:10584000401C5845F9D3DDF84C9005EB8A0A380026
:1058500080B20190CDF800B053462A00414602982C
:1058600000F08AFE0299A162C4F82C80049921629A
:1058700084F837602060C4F808A0C4F85090B9F1EB
:10588000000F04D1DFF8B4050068606501E0C4F8DA
:105890005490149860606562C4F838B0A7870020FF
:1058A00006E000210200D2B204EB82029167401CA4
:1058B0000100C9B20029F4D0129989B214F1600034
:1058C00001F0AFF8200000F03CFE02F0C9FEDFF866
:1058D00030140978491CDFF82824117002F0C4FE46
:1058E00094F8370000F004FF2000FEF7B1FD20001F
:1058F00000F088FADFF8B0050088401CDFF8A81532
:105900000880DFF8A805007801281DD002F0A8FE65
:10591000DFF8EC130978491EDFF8E4231170DFF893
:10592000E013097800290CD1DFF8781409880029E0
:1059300004D002F099FEFEF709FE04E002F094FEA6
:1059400001E002F091FE0CE002F08AFEDFF8B013F5
:105950000978491EDFF8A823117002F085FEFEF7D2
:1059600035FA05B0BDE8F08F38B504000D00002011
:10597000DFF884030078002803D047F24E10288017
:105980005CE0DFF87C04844203D147F24C102880AD
:1059900054E0DFF86804844203D147F24D102880B8
:1059A0004CE0002C06D102F05BFEDFF850130C68CF
:1059B00002F05AFE02F054FEDFF844130978491C45
:1059C000DFF83C23117002F04FFE94F836000028F7
:1059D0000BD0022838D033D3042830D034D3062853
:1059E00032D02DD307282FD044E02000FEF780FDD1
:1059F00014F1600000F0F3FF200000F0ABFD200088
:105A000000F01EFADFF8A0040088401EDFF89814AA
:105A10000880200000F04EFAFF2084F8360002F0E3
:105A20001FFEDFF8DC120978491EDFF8D42211705E
:105A300002F01AFE00202880FEF7C8F931BDD7E732
:105A4000200001F011FFD3E794F83400002808D0BB
:105A5000401E07D0401E04D0401E032802D9001F5C
:105A600004D103E02000FEF7DAFBFFE7200001F09D
:105A7000FBFEBDE702F0F4FDDFF884120978491E51
:105A8000DFF87C221170DFF87812097800290CD138
:105A9000DFF81C140988002904D002F0E5FDFEF7A8
:105AA00055FD04E002F0E0FD01E002F0DDFD46F608
:105AB0002D602880C2E738B584B004000D000020B6
:105AC00002F0CEFD002C03D08C4909688C4205D130
:105AD00002F0CAFD47F25710288018E002F0C4FD1A
